{
	"data": {
		"bytecode": {
			"linkReferences": {},
			"object": "60806040523480156200001157600080fd5b5060405162003df038038062003df0833981016040819052620000349162000105565b6200003f3362000098565b6000805460ff60a01b1916905560018055600280546001600160a01b039788166001600160a01b0319918216179091556003805496909716951694909417909455600591909155600455600691909155600a5562000162565b600080546001600160a01b038381166001600160a01b0319831681178455604051919092169283917f8be0079c531659141344cd1fd0a4f28419497f9722a3daafe3b4186f6b6457e09190a35050565b80516001600160a01b03811681146200010057600080fd5b919050565b60008060008060008060c087890312156200011f57600080fd5b6200012a87620000e8565b95506200013a60208801620000e8565b945060408701519350606087015192506080870151915060a087015190509295509295509295565b613c7e80620001726000396000f3fe60806040526004361061025b5760003560e01c80637bf4125411610144578063b3ab15fb116100b6578063ec3247031161007a578063ec32470314610798578063f2b3c809146107ae578063f2fde38b146107c4578063fa968eea146107e4578063fc6f9468146107fa578063ff59bcd01461081a57600080fd5b8063b3ab15fb146106fa578063cf2f50391461071a578063dd1f75961461073a578063e5c9ad2e1461075a578063eaba23611461078257600080fd5b80638da5cb5b116101085780638da5cb5b146106085780638f1327c01461061d578063951fd60014610653578063aa6ca80814610682578063addd5099146106a4578063b29a8140146106da57600080fd5b80637bf41254146105265780637d1cd04f146105465780638456cb591461055c578063890dc766146105715780638c65c81f1461059157600080fd5b80635c975abb116101dd578063704b6c02116101a1578063704b6c021461043a578063715018a61461045a5780637285c58b1461046f578063749aa2d9146104db57806376671808146104f057806378d5f7811461050657600080fd5b80635c975abb1461039f57806360554011146103c457806362bfdf04146103da5780636ba4c138146103fa5780636c1885931461041a57600080fd5b80633f4ba83a116102245780633f4ba83a1461031a5780633fa417661461032f5780634f64b2be1461034257806355e3f0861461036257806358f7f6d21461037757600080fd5b80623bdc7414610260578063127effb214610277578063273867d4146102ad5780632a75cabe146102f1578063368acb0914610304575b600080fd5b34801561026c57600080fd5b5061027561083a565b005b34801561028357600080fd5b50600354610297906001600160a01b031681565b6040516102a491906136b1565b60405180910390f35b3480156102b957600080fd5b506102e36102c8366004613340565b6001600160a01b03166000908152600d602052604090205490565b6040519081526020016102a4565b6102756102ff366004613561565b610974565b34801561031057600080fd5b506102e360075481565b34801561032657600080fd5b50610275610b96565b61027561033d366004613561565b610c1a565b34801561034e57600080fd5b5061029761035d366004613548565b610e2f565b34801561036e57600080fd5b50610275610e59565b34801561038357600080fd5b5061029773eeeeeeeeeeeeeeeeeeeeeeeeeeeeeeeeeeeeeeee81565b3480156103ab57600080fd5b506103b4610ee8565b60405190151581526020016102a4565b3480156103d057600080fd5b506102e3600a5481565b3480156103e657600080fd5b506102756103f53660046133b8565b610ef8565b34801561040657600080fd5b5061027561041536600461341b565b6111fa565b34801561042657600080fd5b50610275610435366004613548565b61152e565b34801561044657600080fd5b50610275610455366004613340565b6115ff565b34801561046657600080fd5b506102756116aa565b34801561047b57600080fd5b506104cb61048a366004613561565b600b60209081526000928352604080842090915290825290208054600182015460029092015460ff808316936101009093046001600160a01b031692911684565b6040516102a49493929190613782565b3480156104e757600080fd5b506102756116e3565b3480156104fc57600080fd5b506102e360085481565b34801561051257600080fd5b506102756105213660046133b8565b61176b565b34801561053257600080fd5b506103b4610541366004613561565b611a38565b34801561055257600080fd5b506102e360055481565b34801561056857600080fd5b50610275611b2b565b34801561057d57600080fd5b5061027561058c36600461358d565b611bea565b34801561059d57600080fd5b506105de6105ac366004613548565b600c60205260009081526040902080546001820154600283015460038401546004909401549293919290919060ff1685565b6040805195865260208601949094529284019190915260608301521515608082015260a0016102a4565b34801561061457600080fd5b50610297611ce8565b34801561062957600080fd5b5061063d610638366004613548565b611cf7565b6040516102a49a99989796959493929190613a7a565b34801561065f57600080fd5b5061067361066e366004613385565b611fad565b6040516102a4939291906136f2565b34801561068e57600080fd5b5061069761221e565b6040516102a491906136df565b3480156106b057600080fd5b506102976106bf366004613340565b600e602052600090815260409020546001600160a01b031681565b3480156106e657600080fd5b506102756106f536600461335b565b612280565b34801561070657600080fd5b50610275610715366004613340565b612372565b34801561072657600080fd5b50610275610735366004613548565b61240d565b34801561074657600080fd5b506102e361075536600461335b565b612490565b34801561076657600080fd5b5061029773b2d7b35539a543bbe4c74965488ffe33c6721f0d81565b34801561078e57600080fd5b506102e360045481565b3480156107a457600080fd5b506102e360095481565b3480156107ba57600080fd5b506102e36103e881565b3480156107d057600080fd5b506102756107df366004613340565b6124c1565b3480156107f057600080fd5b506102e360065481565b34801561080657600080fd5b50600254610297906001600160a01b031681565b34801561082657600080fd5b5061027561083536600461348f565b612561565b600260015414156108665760405162461bcd60e51b815260040161085d9061399a565b60405180910390fd5b60026001819055546001600160a01b031633146108955760405162461bcd60e51b815260040161085d90613a26565b6007805460009182905560025460405163a9059cbb60e01b81526001600160a01b03909116600482015260248101929092529073b2d7b35539a543bbe4c74965488ffe33c6721f0d9063a9059cbb90604401602060405180830381600087803b15801561090157600080fd5b505af1158015610915573d6000803e3d6000fd5b505050506040513d601f19601f820116820180604052508101906109399190613526565b506040518181527fb9197c6b8e21274bd1e2d9c956a88af5cfee510f630fab3f046300f88b4223619060200160405180910390a15060018055565b61097c610ee8565b156109995760405162461bcd60e51b815260040161085d90613874565b600260015414156109bc5760405162461bcd60e51b815260040161085d9061399a565b6002600155333b156109e05760405162461bcd60e51b815260040161085d90613817565b3332146109ff5760405162461bcd60e51b815260040161085d906138ce565b6008548214610a205760405162461bcd60e51b815260040161085d906139d1565b610a2982612851565b610a455760405162461bcd60e51b815260040161085d90613937565b6000828152600b6020908152604080832033845290915290206001015415610a7f5760405162461bcd60e51b815260040161085d90613963565b6001600160a01b038181166000908152600e602052604090205416610ab65760405162461bcd60e51b815260040161085d90613a49565b600654610ad973b2d7b35539a543bbe4c74965488ffe33c6721f0d3330846128af565b6000838152600c602052604090206003810154610af7908390613b64565b60038201556000848152600b6020908152604080832033808552908352818420805460018083018990556001600160a81b03199091166101006001600160a01b038b1602178255600d855283862080549182018155865294849020909401889055905185815287927f438122d8cff518d18388099a5181f0d17a12b4f1b55faedf6e4a6acee0060c1291015b60405180910390a3505060018055505050565b610b9e610ee8565b610bba5760405162461bcd60e51b815260040161085d906137e9565b6002546001600160a01b03163314610be45760405162461bcd60e51b815260040161085d90613a26565b610bec612920565b6008546040517faaa520fdd7d2c83061d632fa017b0432407e798818af63ea908589fceda39ab790600090a2565b610c22610ee8565b15610c3f5760405162461bcd60e51b815260040161085d90613874565b60026001541415610c625760405162461bcd60e51b815260040161085d9061399a565b6002600155333b15610c865760405162461bcd60e51b815260040161085d90613817565b333214610ca55760405162461bcd60e51b815260040161085d906138ce565b6008548214610cc65760405162461bcd60e51b815260040161085d906139d1565b610ccf82612851565b610ceb5760405162461bcd60e51b815260040161085d90613937565b6000828152600b6020908152604080832033845290915290206001015415610d255760405162461bcd60e51b815260040161085d90613963565b6001600160a01b038181166000908152600e602052604090205416610d5c5760405162461bcd60e51b815260040161085d90613a49565b600654610d7f73b2d7b35539a543bbe4c74965488ffe33c6721f0d3330846128af565b6000838152600c602052604090206003810154610d9d908390613b64565b60038201556000848152600b6020908152604080832033808552908352818420805460018083018990556001600160a81b03199091166101006001600160a01b038b16021781178255600d855283862080549182018155865294849020909401889055905185815287927f0d8c1fe3e67ab767116a81f122b83c2557a8c2564019cb7c4f83de1aeb1f1f0d9101610b83565b600f8181548110610e3f57600080fd5b6000918252602090912001546001600160a01b0316905081565b610e61610ee8565b15610e7e5760405162461bcd60e51b815260040161085d90613874565b6003546001600160a01b03163314610ea85760405162461bcd60e51b815260040161085d90613a00565b600854610eb6906001613b64565b600881905560011015610ed357610ece60085461298b565b610ede565b610ede600854612aa6565b610ee6612b05565b565b600054600160a01b900460ff1690565b610f00610ee8565b15610f1d5760405162461bcd60e51b815260040161085d90613874565b6002546001600160a01b03163314610f475760405162461bcd60e51b815260040161085d90613a26565b60005b82518110156111f55760006001600160a01b0316838281518110610f7057610f70613c1c565b60200260200101516001600160a01b031614158015610fbb575060006001600160a01b0316828281518110610fa757610fa7613c1c565b60200260200101516001600160a01b031614155b6110155760405162461bcd60e51b815260206004820152602560248201527f507265646963746f696e3a2043616e6e6f74206164642061207a65726f206164604482015264647265737360d81b606482015260840161085d565b60006001600160a01b0316600e600085848151811061103657611036613c1c565b6020908102919091018101516001600160a01b039081168352908201929092526040016000205416146110ab5760405162461bcd60e51b815260206004820181905260248201527f507265646963746f696e3a2043616e6e6f74207265616464206120746f6b656e604482015260640161085d565b600f8382815181106110bf576110bf613c1c565b60209081029190910181015182546001810184556000938452919092200180546001600160a01b0319166001600160a01b03909216919091179055815182908290811061110e5761110e613c1c565b6020026020010151600e600085848151811061112c5761112c613c1c565b60200260200101516001600160a01b03166001600160a01b0316815260200190815260200160002060006101000a8154816001600160a01b0302191690836001600160a01b031602179055507fdffbd9ded1c09446f09377de547142dcce7dc541c8b0b028142b1eba7026b9e78382815181106111ab576111ab613c1c565b60200260200101518383815181106111c5576111c5613c1c565b60200260200101516040516111db9291906136c5565b60405180910390a1806111ed81613bbf565b915050610f4a565b505050565b6002600154141561121d5760405162461bcd60e51b815260040161085d9061399a565b6002600155333b156112415760405162461bcd60e51b815260040161085d90613817565b3332146112605760405162461bcd60e51b815260040161085d906138ce565b6000805b8281101561150557600c600085858481811061128257611282613c1c565b90506020020135815260200190815260200160002060010154600014156112e35760405162461bcd60e51b8152602060048201526015602482015274149bdd5b99081a185cc81b9bdd081cdd185c9d1959605a1b604482015260640161085d565b600c60008585848181106112f9576112f9613c1c565b9050602002013581526020019081526020016000206002015442116113565760405162461bcd60e51b8152602060048201526013602482015272149bdd5b99081a185cc81b9bdd08195b991959606a1b604482015260640161085d565b600c600085858481811061136c5761136c613c1c565b602090810292909201358352508101919091526040016000206004015460ff16156113ce5760405162461bcd60e51b815260206004820152601260248201527113dc9858db195cc81b9bdd0818d85b1b195960721b604482015260640161085d565b6113f08484838181106113e3576113e3613c1c565b9050602002013533611a38565b6114365760405162461bcd60e51b8152602060048201526017602482015276139bdd08195b1a59da589b1948199bdc881c99599d5b99604a1b604482015260640161085d565b6001600b600086868581811061144e5761144e613c1c565b6020908102929092013583525081810192909252604090810160009081203382529092529020600201805460ff19169115159190911790556006546114939083613b64565b91508383828181106114a7576114a7613c1c565b90506020020135336001600160a01b03167f34fcbac0073d7c3d388e51312faf357774904998eeb8fca628b9e6f65ee1cbf76006546040516114eb91815260200190565b60405180910390a3806114fd81613bbf565b915050611264565b5061152573b2d7b35539a543bbe4c74965488ffe33c6721f0d3383612bbb565b50506001805550565b611536610ee8565b6115525760405162461bcd60e51b815260040161085d906137e9565b6002546001600160a01b0316331461157c5760405162461bcd60e51b815260040161085d90613a26565b806115c15760405162461bcd60e51b815260206004820152601560248201527404d757374206265207375706572696f7220746f203605c1b604482015260640161085d565b60068190556008546040518281527f90eb87c560a0213754ceb3a7fa3012f01acab0a35602c1e1995adf69dabc9d509060200160405180910390a250565b33611608611ce8565b6001600160a01b03161461162e5760405162461bcd60e51b815260040161085d90613902565b6001600160a01b0381166116545760405162461bcd60e51b815260040161085d9061389e565b600280546001600160a01b0319166001600160a01b0383161790556040517f137b621413925496477d46e5055ac0d56178bdd724ba8bf843afceef18268ba39061169f9083906136b1565b60405180910390a150565b336116b3611ce8565b6001600160a01b0316146116d95760405162461bcd60e51b815260040161085d90613902565b610ee66000612beb565b6116eb610ee8565b156117085760405162461bcd60e51b815260040161085d90613874565b6003546001600160a01b031633146117325760405162461bcd60e51b815260040161085d90613a00565b61173a612c3b565b600c6000600854815260200190815260200160002060030154600760008282546117649190613b64565b9091555050565b611773610ee8565b61178f5760405162461bcd60e51b815260040161085d906137e9565b6002546001600160a01b031633146117b95760405162461bcd60e51b815260040161085d90613a26565b60005b82518110156111f55760006001600160a01b03168282815181106117e2576117e2613c1c565b60200260200101516001600160a01b031614156118115760405162461bcd60e51b815260040161085d9061389e565b60006001600160a01b0316600e600085848151811061183257611832613c1c565b6020908102919091018101516001600160a01b03908116835290820192909252604001600020541614156118785760405162461bcd60e51b815260040161085d90613845565b81818151811061188a5761188a613c1c565b6020026020010151600e60008584815181106118a8576118a8613c1c565b60200260200101516001600160a01b03166001600160a01b0316815260200190815260200160002060006101000a8154816001600160a01b0302191690836001600160a01b03160217905550600e600084838151811061190a5761190a613c1c565b60200260200101516001600160a01b03166001600160a01b0316815260200190815260200160002060009054906101000a90046001600160a01b03166001600160a01b031663feaf968c6040518163ffffffff1660e01b815260040160a06040518083038186803b15801561197e57600080fd5b505afa158015611992573d6000803e3d6000fd5b505050506040513d601f19601f820116820180604052508101906119b691906135af565b50505050507f08763b8c90c5db415d7b7f0e18ec87eda82e24e52e2ea8135d44e17db46d85bb8282815181106119ee576119ee613c1c565b6020026020010151848381518110611a0857611a08613c1c565b6020026020010151604051611a1e9291906136c5565b60405180910390a180611a3081613bbf565b9150506117bc565b6000828152600b602090815260408083206001600160a01b0385168452909152808220815160808101909252805483929190829060ff166001811115611a8057611a80613bf0565b6001811115611a9157611a91613bf0565b8152815461010090046001600160a01b0316602080830191909152600183015460408084019190915260029093015460ff90811615156060909301929092526000888152600c9091529190912060048101549293509116158015611af757508160600151155b8015611b1357506004548160020154611b109190613b64565b42115b8015611b225750604082015115155b95945050505050565b611b33610ee8565b15611b505760405162461bcd60e51b815260040161085d90613874565b6002546001600160a01b0316331480611b7357506003546001600160a01b031633145b611bb45760405162461bcd60e51b81526020600482015260126024820152712737ba1037b832b930ba37b917b0b236b4b760711b604482015260640161085d565b611bbc612dac565b6008546040517f68b095021b1f40fe513109f513c66692f0b3219aee674a69f4efc57badb8201d90600090a2565b611bf2610ee8565b611c0e5760405162461bcd60e51b815260040161085d906137e9565b6002546001600160a01b03163314611c385760405162461bcd60e51b815260040161085d90613a26565b808210611ca15760405162461bcd60e51b815260206004820152603160248201527f6275666665725365636f6e6473206d75737420626520696e666572696f7220746044820152706f20696e74657276616c5365636f6e647360781b606482015260840161085d565b6004829055600581905560408051838152602081018390527fe60149e0431fec12df63dfab5fce2a9cefe9a4d3df5f41cb626f579ae1f2b91a910160405180910390a15050565b6000546001600160a01b031690565b6000818152600c602052604090206001810154600282015460038301546004840154859460ff909116906060908190819081908190611d3461221e565b955085516001600160401b03811115611d4f57611d4f613c32565b604051908082528060200260200182016040528015611d78578160200160208202803683370190505b50945085516001600160401b03811115611d9457611d94613c32565b604051908082528060200260200182016040528015611dbd578160200160208202803683370190505b50935085516001600160401b03811115611dd957611dd9613c32565b604051908082528060200260200182016040528015611e02578160200160208202803683370190505b50925085516001600160401b03811115611e1e57611e1e613c32565b604051908082528060200260200182016040528015611e47578160200160208202803683370190505b50915060005b8651811015611f9e576000878281518110611e6a57611e6a613c1c565b60200260200101519050826007016000826001600160a01b03166001600160a01b0316815260200190815260200160002054878381518110611eae57611eae613c1c565b602002602001018181525050826008016000826001600160a01b03166001600160a01b0316815260200190815260200160002054868381518110611ef457611ef4613c1c565b602002602001018181525050826005016000826001600160a01b03166001600160a01b0316815260200190815260200160002054858381518110611f3a57611f3a613c1c565b602002602001018181525050826006016000826001600160a01b03166001600160a01b0316815260200190815260200160002054848381518110611f8057611f80613c1c565b60209081029190910101525080611f9681613bbf565b915050611e4d565b50509193959799509193959799565b6001600160a01b0383166000908152600d602052604081205460609182918490611fd8908790613b7c565b811115612006576001600160a01b0387166000908152600d6020526040902054612003908790613b7c565b90505b6000816001600160401b0381111561202057612020613c32565b604051908082528060200260200182016040528015612049578160200160208202803683370190505b5090506000826001600160401b0381111561206657612066613c32565b6040519080825280602002602001820160405280156120b857816020015b6040805160808101825260008082526020808301829052928201819052606082015282526000199092019101816120845790505b50905060005b838110156121ff576001600160a01b038a166000908152600d602052604090206120e8828b613b64565b815481106120f8576120f8613c1c565b906000526020600020015483828151811061211557612115613c1c565b602002602001018181525050600b600084838151811061213757612137613c1c565b602090810291909101810151825281810192909252604090810160009081206001600160a01b038e168252909252908190208151608081019092528054829060ff16600181111561218a5761218a613bf0565b600181111561219b5761219b613bf0565b8152815461010090046001600160a01b031660208201526001820154604082015260029091015460ff16151560609091015282518390839081106121e1576121e1613c1c565b602002602001018190525080806121f790613bbf565b9150506120be565b50818161220c858b613b64565b95509550955050505093509350939050565b6060600f80548060200260200160405190810160405280929190818152602001828054801561227657602002820191906000526020600020905b81546001600160a01b03168152600190910190602001808311612258575b5050505050905090565b33612289611ce8565b6001600160a01b0316146122af5760405162461bcd60e51b815260040161085d90613902565b6001600160a01b03821673b2d7b35539a543bbe4c74965488ffe33c6721f0d14156123175760405162461bcd60e51b8152602060048201526018602482015277141c99590818d85b9b9bdd081899481c9958dbdd995c995960421b604482015260640161085d565b61232b6001600160a01b0383163383612bbb565b816001600160a01b03167f14f11966a996e0629572e51064726d2057a80fbd34efc066682c06a71dbb6e988260405161236691815260200190565b60405180910390a25050565b6002546001600160a01b0316331461239c5760405162461bcd60e51b815260040161085d90613a26565b6001600160a01b0381166123c25760405162461bcd60e51b815260040161085d9061389e565b600380546001600160a01b0319166001600160a01b0383161790556040517fc47d127c07bdd56c5ccba00463ce3bd3c1bca71b4670eea6e5d0c02e4aa156e29061169f9083906136b1565b612415610ee8565b6124315760405162461bcd60e51b815260040161085d906137e9565b6002546001600160a01b0316331461245b5760405162461bcd60e51b815260040161085d90613a26565b600a8190556040518181527f93ccaceac092ffb842c46b8718667a13a80e9058dcd0bd403d0b47215b30da079060200161169f565b600d60205281600052604060002081815481106124ac57600080fd5b90600052602060002001600091509150505481565b336124ca611ce8565b6001600160a01b0316146124f05760405162461bcd60e51b815260040161085d90613902565b6001600160a01b0381166125555760405162461bcd60e51b815260206004820152602660248201527f4f776e61626c653a206e6577206f776e657220697320746865207a65726f206160448201526564647265737360d01b606482015260840161085d565b61255e81612beb565b50565b612569610ee8565b156125865760405162461bcd60e51b815260040161085d90613874565b6002546001600160a01b031633146125b05760405162461bcd60e51b815260040161085d90613a26565b60005b815181101561284d5760006001600160a01b0316600f8383815181106125db576125db613c1c565b6020026020010151815481106125f3576125f3613c1c565b6000918252602090912001546001600160a01b031614156126265760405162461bcd60e51b815260040161085d90613845565b600f805461263690600190613b7c565b8154811061264657612646613c1c565b9060005260206000200160009054906101000a90046001600160a01b0316600f83838151811061267857612678613c1c565b60200260200101518154811061269057612690613c1c565b9060005260206000200160006101000a8154816001600160a01b0302191690836001600160a01b03160217905550600f8054806126cf576126cf613c06565b6001900381819060005260206000200160006101000a8154906001600160a01b0302191690559055600e6000600f84848151811061270f5761270f613c1c565b60200260200101518154811061272757612727613c1c565b60009182526020808320909101546001600160a01b03168352820192909252604001902080546001600160a01b031916905581517fbbe55b1ff108e23e5ff1a6f5d36946eec15ec0ca0ded2bfed4cdcf697ca9046090600f9084908490811061279257612792613c1c565b6020026020010151815481106127aa576127aa613c1c565b9060005260206000200160009054906101000a90046001600160a01b0316600e6000600f8686815181106127e0576127e0613c1c565b6020026020010151815481106127f8576127f8613c1c565b60009182526020808320909101546001600160a01b0390811684529083019390935260409182019020549051612833939291909116906136c5565b60405180910390a18061284581613bbf565b9150506125b3565b5050565b6000818152600c60205260408120600101541580159061288157506000828152600c602052604090206001015442115b80156128a957506000828152600c60205260409020600101546128a690610e10613b64565b42105b92915050565b6040516001600160a01b038085166024830152831660448201526064810182905261291a9085906323b872dd60e01b906084015b60408051601f198184030181529190526020810180516001600160e01b03166001600160e01b031990931692909217909152612e0c565b50505050565b612928610ee8565b6129445760405162461bcd60e51b815260040161085d906137e9565b6000805460ff60a01b191690557f5db9ee0a495bf2e6ff9c91a7834c1ba4fdd244a5e8aa4e537bd38aeae4b073aa335b60405161298191906136b1565b60405180910390a1565b600c600061299a600184613b7c565b81526020019081526020016000206002015460001415612a135760405162461bcd60e51b815260206004820152602e60248201527f43616e206f6e6c7920737461727420726f756e6420616674657220726f756e6460448201526d081b8b4c481a185cc8195b99195960921b606482015260840161085d565b600c6000612a22600184613b7c565b815260200190815260200160002060020154421015612aa15760405162461bcd60e51b815260206004820152603560248201527f43616e206f6e6c79207374617274206e657720726f756e64206166746572207260448201527406f756e64206e2d3120656e6454696d657374616d7605c1b606482015260840161085d565b61255e815b6000818152600c602052604090204260018201819055600554612ac891613b64565b600282015581815560006003820181905560405183917f939f42374aa9bf1d8d8cd56d8a9110cb040cd8dfeae44080c6fcf2645e51b45291a25050565b6008546000908152600c60205260408120905b600f5481101561284d576000600f8281548110612b3757612b37613c1c565b60009182526020808320909101546001600160a01b03908116808452600e90925260408320549193508291612b6c9116612ede565b6001600160a01b039094166000908152600787016020908152604080832096909655600588019052939093206001600160501b0390931690925550819050612bb381613bbf565b915050612b18565b6040516001600160a01b0383166024820152604481018290526111f590849063a9059cbb60e01b906064016128e3565b600080546001600160a01b038381166001600160a01b0319831681178455604051919092169283917f8be0079c531659141344cd1fd0a4f28419497f9722a3daafe3b4186f6b6457e09190a35050565b6008546000908152600c6020526040902060010154612caf5760405162461bcd60e51b815260206004820152602a60248201527f43616e206f6e6c7920656e6420726f756e6420616674657220726f756e642068604482015269185cc81cdd185c9d195960b21b606482015260840161085d565b6008546000908152600c6020526040902060020154421015612d235760405162461bcd60e51b815260206004820152602760248201527f43616e206f6e6c7920656e6420726f756e6420616674657220636c6f7365546960448201526606d657374616d760cc1b606482015260840161085d565b6004546008546000908152600c6020526040902060020154612d459190613b64565b421115612da45760405162461bcd60e51b815260206004820152602760248201527f43616e206f6e6c7920656e6420726f756e642077697468696e206275666665726044820152665365636f6e647360c81b606482015260840161085d565b610ee6613064565b612db4610ee8565b15612dd15760405162461bcd60e51b815260040161085d90613874565b6000805460ff60a01b1916600160a01b1790557f62e78cea01bee320cd4e420270b5ea74000d11b0c9f74754ebdbfc544b05a2586129743390565b6000612e61826040518060400160405280602081526020017f5361666545524332303a206c6f772d6c6576656c2063616c6c206661696c6564815250856001600160a01b031661311a9092919063ffffffff16565b8051909150156111f55780806020019051810190612e7f9190613526565b6111f55760405162461bcd60e51b815260206004820152602a60248201527f5361666545524332303a204552433230206f7065726174696f6e20646964206e6044820152691bdd081cdd58d8d9595960b21b606482015260840161085d565b6000806000600a5442612ef19190613b64565b90506000806000866001600160a01b031663feaf968c6040518163ffffffff1660e01b815260040160a06040518083038186803b158015612f3157600080fd5b505afa158015612f45573d6000803e3d6000fd5b505050506040513d601f19601f82011682018060405250810190612f6991906135af565b509350509250925083811115612fd85760405162461bcd60e51b815260206004820152602e60248201527f4f7261636c6520757064617465206578636565646564206d61782074696d657360448201526d74616d7020616c6c6f77616e636560901b606482015260840161085d565b600954836001600160501b0316116130585760405162461bcd60e51b815260206004820152603d60248201527f4f7261636c652075706461746520726f756e644964206d757374206265206c6160448201527f72676572207468616e206f7261636c654c6174657374526f756e644964000000606482015260840161085d565b50909590945092505050565b6008546000908152600c60205260408120905b600f5481101561284d576000600f828154811061309657613096613c1c565b60009182526020808320909101546001600160a01b03908116808452600e909252604083205491935082916130cb9116612ede565b6001600160a01b039094166000908152600887016020908152604080832096909655600688019052939093206001600160501b039093169092555081905061311281613bbf565b915050613077565b60606131298484600085613133565b90505b9392505050565b6060824710156131945760405162461bcd60e51b815260206004820152602660248201527f416464726573733a20696e73756666696369656e742062616c616e636520666f6044820152651c8818d85b1b60d21b606482015260840161085d565b843b6131e25760405162461bcd60e51b815260206004820152601d60248201527f416464726573733a2063616c6c20746f206e6f6e2d636f6e7472616374000000604482015260640161085d565b600080866001600160a01b031685876040516131fe9190613695565b60006040518083038185875af1925050503d806000811461323b576040519150601f19603f3d011682016040523d82523d6000602084013e613240565b606091505b509150915061325082828661325b565b979650505050505050565b6060831561326a57508161312c565b82511561327a5782518084602001fd5b8160405162461bcd60e51b815260040161085d91906137b6565b80356001600160a01b03811681146132ab57600080fd5b919050565b600082601f8301126132c157600080fd5b813560206132d66132d183613b41565b613b11565b80838252828201915082860187848660051b89010111156132f657600080fd5b60005b8581101561331c5761330a82613294565b845292840192908401906001016132f9565b5090979650505050505050565b80516001600160501b03811681146132ab57600080fd5b60006020828403121561335257600080fd5b61312c82613294565b6000806040838503121561336e57600080fd5b61337783613294565b946020939093013593505050565b60008060006060848603121561339a57600080fd5b6133a384613294565b95602085013595506040909401359392505050565b600080604083850312156133cb57600080fd5b82356001600160401b03808211156133e257600080fd5b6133ee868387016132b0565b9350602085013591508082111561340457600080fd5b50613411858286016132b0565b9150509250929050565b6000806020838503121561342e57600080fd5b82356001600160401b038082111561344557600080fd5b818501915085601f83011261345957600080fd5b81358181111561346857600080fd5b8660208260051b850101111561347d57600080fd5b60209290920196919550909350505050565b600060208083850312156134a257600080fd5b82356001600160401b038111156134b857600080fd5b8301601f810185136134c957600080fd5b80356134d76132d182613b41565b80828252848201915084840188868560051b87010111156134f757600080fd5b600094505b8385101561351a5780358352600194909401939185019185016134fc565b50979650505050505050565b60006020828403121561353857600080fd5b8151801515811461312c57600080fd5b60006020828403121561355a57600080fd5b5035919050565b6000806040838503121561357457600080fd5b8235915061358460208401613294565b90509250929050565b600080604083850312156135a057600080fd5b50508035926020909101359150565b600080600080600060a086880312156135c757600080fd5b6135d086613329565b94506020860151935060408601519250606086015191506135f360808701613329565b90509295509295909350565b600081518084526020808501945080840160005b838110156136385781516001600160a01b031687529582019590820190600101613613565b509495945050505050565b600081518084526020808501945080840160005b8381101561363857815187529582019590820190600101613657565b6002811061369157634e487b7160e01b600052602160045260246000fd5b9052565b600082516136a7818460208701613b93565b9190910192915050565b6001600160a01b0391909116815260200190565b6001600160a01b0392831681529116602082015260400190565b60208152600061312c60208301846135ff565b6000606080835261370581840187613643565b83810360208581019190915286518083528782019282019060005b8181101561376b578451613735848251613673565b808501516001600160a01b0316848601526040808201519085015286015115158684015293830193608090920191600101613720565b505080945050505050826040830152949350505050565b608081016137908287613673565b6001600160a01b0394909416602082015260408101929092521515606090910152919050565b60208152600082518060208401526137d5816040850160208701613b93565b601f01601f19169190910160400192915050565b60208082526014908201527314185d5cd8589b194e881b9bdd081c185d5cd95960621b604082015260600190565b60208082526014908201527310dbdb9d1c9858dd081b9bdd08185b1b1bddd95960621b604082015260600190565b602080825260159082015274546f6b656e206e6f74207072656469637461626c6560581b604082015260600190565b60208082526010908201526f14185d5cd8589b194e881c185d5cd95960821b604082015260600190565b60208082526016908201527543616e6e6f74206265207a65726f206164647265737360501b604082015260600190565b6020808252601a9082015279141c9bde1e4818dbdb9d1c9858dd081b9bdd08185b1b1bddd95960321b604082015260600190565b6020808252818101527f4f776e61626c653a2063616c6c6572206973206e6f7420746865206f776e6572604082015260600190565b602080825260129082015271526f756e64206e6f74206265747461626c6560701b604082015260600190565b6020808252601b908201527f43616e206f6e6c7920626574206f6e63652070657220726f756e640000000000604082015260600190565b6020808252601f908201527f5265656e7472616e637947756172643a207265656e7472616e742063616c6c00604082015260600190565b60208082526015908201527442657420697320746f6f206561726c792f6c61746560581b604082015260600190565b6020808252600c908201526b2737ba1037b832b930ba37b960a11b604082015260600190565b6020808252600990820152682737ba1030b236b4b760b91b604082015260600190565b60208082526017908201527621b0b713ba10383932b234b1ba103337b9103a37b5b2b760491b604082015260600190565b60006101408c83528b60208401528a604084015289606084015288151560808401528060a0840152613aae818401896135ff565b905082810360c0840152613ac28188613643565b905082810360e0840152613ad68187613643565b9050828103610100840152613aeb8186613643565b9050828103610120840152613b008185613643565b9d9c50505050505050505050505050565b604051601f8201601f191681016001600160401b0381118282101715613b3957613b39613c32565b604052919050565b60006001600160401b03821115613b5a57613b5a613c32565b5060051b60200190565b60008219821115613b7757613b77613bda565b500190565b600082821015613b8e57613b8e613bda565b500390565b60005b83811015613bae578181015183820152602001613b96565b8381111561291a5750506000910152565b6000600019821415613bd357613bd3613bda565b5060010190565b634e487b7160e01b600052601160045260246000fd5b634e487b7160e01b600052602160045260246000fd5b634e487b7160e01b600052603160045260246000fd5b634e487b7160e01b600052603260045260246000fd5b634e487b7160e01b600052604160045260246000fdfea2646970667358221220e5b9b80031720174502822aacd5f52125f9d222376a6c45b81a27f566e372b2064736f6c63430008070033",
			"opcodes": "PUSH1 0x80 PUSH1 0x40 MSTORE CALLVALUE DUP1 ISZERO PUSH3 0x11 JUMPI PUSH1 0x0 DUP1 REVERT JUMPDEST POP PUSH1 0x40 MLOAD PUSH3 0x3DF0 CODESIZE SUB DUP1 PUSH3 0x3DF0 DUP4 CODECOPY DUP2 ADD PUSH1 0x40 DUP2 SWAP1 MSTORE PUSH3 0x34 SWAP2 PUSH3 0x105 JUMP JUMPDEST PUSH3 0x3F CALLER PUSH3 0x98 JUMP JUMPDEST PUSH1 0x0 DUP1 SLOAD PUSH1 0xFF PUSH1 0xA0 SHL NOT AND SWAP1 SSTORE PUSH1 0x1 DUP1 SSTORE PUSH1 0x2 DUP1 SLOAD PUSH1 0x1 PUSH1 0x1 PUSH1 0xA0 SHL SUB SWAP8 DUP9 AND PUSH1 0x1 PUSH1 0x1 PUSH1 0xA0 SHL SUB NOT SWAP2 DUP3 AND OR SWAP1 SWAP2 SSTORE PUSH1 0x3 DUP1 SLOAD SWAP7 SWAP1 SWAP8 AND SWAP6 AND SWAP5 SWAP1 SWAP5 OR SWAP1 SWAP5 SSTORE PUSH1 0x5 SWAP2 SWAP1 SWAP2 SSTORE PUSH1 0x4 SSTORE PUSH1 0x6 SWAP2 SWAP1 SWAP2 SSTORE PUSH1 0xA SSTORE PUSH3 0x162 JUMP JUMPDEST PUSH1 0x0 DUP1 SLOAD PUSH1 0x1 PUSH1 0x1 PUSH1 0xA0 SHL SUB DUP4 DUP2 AND PUSH1 0x1 PUSH1 0x1 PUSH1 0xA0 SHL SUB NOT DUP4 AND DUP2 OR DUP5 SSTORE PUSH1 0x40 MLOAD SWAP2 SWAP1 SWAP3 AND SWAP3 DUP4 SWAP2 PUSH32 0x8BE0079C531659141344CD1FD0A4F28419497F9722A3DAAFE3B4186F6B6457E0 SWAP2 SWAP1 LOG3 POP POP JUMP JUMPDEST DUP1 MLOAD PUSH1 0x1 PUSH1 0x1 PUSH1 0xA0 SHL SUB DUP2 AND DUP2 EQ PUSH3 0x100 JUMPI PUSH1 0x0 DUP1 REVERT JUMPDEST SWAP2 SWAP1 POP JUMP JUMPDEST PUSH1 0x0 DUP1 PUSH1 0x0 DUP1 PUSH1 0x0 DUP1 PUSH1 0xC0 DUP8 DUP10 SUB SLT ISZERO PUSH3 0x11F JUMPI PUSH1 0x0 DUP1 REVERT JUMPDEST PUSH3 0x12A DUP8 PUSH3 0xE8 JUMP JUMPDEST SWAP6 POP PUSH3 0x13A PUSH1 0x20 DUP9 ADD PUSH3 0xE8 JUMP JUMPDEST SWAP5 POP PUSH1 0x40 DUP8 ADD MLOAD SWAP4 POP PUSH1 0x60 DUP8 ADD MLOAD SWAP3 POP PUSH1 0x80 DUP8 ADD MLOAD SWAP2 POP PUSH1 0xA0 DUP8 ADD MLOAD SWAP1 POP SWAP3 SWAP6 POP SWAP3 SWAP6 POP SWAP3 SWAP6 JUMP JUMPDEST PUSH2 0x3C7E DUP1 PUSH3 0x172 PUSH1 0x0 CODECOPY PUSH1 0x0 RETURN INVALID PUSH1 0x80 PUSH1 0x40 MSTORE PUSH1 0x4 CALLDATASIZE LT PUSH2 0x25B JUMPI PUSH1 0x0 CALLDATALOAD PUSH1 0xE0 SHR DUP1 PUSH4 0x7BF41254 GT PUSH2 0x144 JUMPI DUP1 PUSH4 0xB3AB15FB GT PUSH2 0xB6 JUMPI DUP1 PUSH4 0xEC324703 GT PUSH2 0x7A JUMPI DUP1 PUSH4 0xEC324703 EQ PUSH2 0x798 JUMPI DUP1 PUSH4 0xF2B3C809 EQ PUSH2 0x7AE JUMPI DUP1 PUSH4 0xF2FDE38B EQ PUSH2 0x7C4 JUMPI DUP1 PUSH4 0xFA968EEA EQ PUSH2 0x7E4 JUMPI DUP1 PUSH4 0xFC6F9468 EQ PUSH2 0x7FA JUMPI DUP1 PUSH4 0xFF59BCD0 EQ PUSH2 0x81A JUMPI PUSH1 0x0 DUP1 REVERT JUMPDEST DUP1 PUSH4 0xB3AB15FB EQ PUSH2 0x6FA JUMPI DUP1 PUSH4 0xCF2F5039 EQ PUSH2 0x71A JUMPI DUP1 PUSH4 0xDD1F7596 EQ PUSH2 0x73A JUMPI DUP1 PUSH4 0xE5C9AD2E EQ PUSH2 0x75A JUMPI DUP1 PUSH4 0xEABA2361 EQ PUSH2 0x782 JUMPI PUSH1 0x0 DUP1 REVERT JUMPDEST DUP1 PUSH4 0x8DA5CB5B GT PUSH2 0x108 JUMPI DUP1 PUSH4 0x8DA5CB5B EQ PUSH2 0x608 JUMPI DUP1 PUSH4 0x8F1327C0 EQ PUSH2 0x61D JUMPI DUP1 PUSH4 0x951FD600 EQ PUSH2 0x653 JUMPI DUP1 PUSH4 0xAA6CA808 EQ PUSH2 0x682 JUMPI DUP1 PUSH4 0xADDD5099 EQ PUSH2 0x6A4 JUMPI DUP1 PUSH4 0xB29A8140 EQ PUSH2 0x6DA JUMPI PUSH1 0x0 DUP1 REVERT JUMPDEST DUP1 PUSH4 0x7BF41254 EQ PUSH2 0x526 JUMPI DUP1 PUSH4 0x7D1CD04F EQ PUSH2 0x546 JUMPI DUP1 PUSH4 0x8456CB59 EQ PUSH2 0x55C JUMPI DUP1 PUSH4 0x890DC766 EQ PUSH2 0x571 JUMPI DUP1 PUSH4 0x8C65C81F EQ PUSH2 0x591 JUMPI PUSH1 0x0 DUP1 REVERT JUMPDEST DUP1 PUSH4 0x5C975ABB GT PUSH2 0x1DD JUMPI DUP1 PUSH4 0x704B6C02 GT PUSH2 0x1A1 JUMPI DUP1 PUSH4 0x704B6C02 EQ PUSH2 0x43A JUMPI DUP1 PUSH4 0x715018A6 EQ PUSH2 0x45A JUMPI DUP1 PUSH4 0x7285C58B EQ PUSH2 0x46F JUMPI DUP1 PUSH4 0x749AA2D9 EQ PUSH2 0x4DB JUMPI DUP1 PUSH4 0x76671808 EQ PUSH2 0x4F0 JUMPI DUP1 PUSH4 0x78D5F781 EQ PUSH2 0x506 JUMPI PUSH1 0x0 DUP1 REVERT JUMPDEST DUP1 PUSH4 0x5C975ABB EQ PUSH2 0x39F JUMPI DUP1 PUSH4 0x60554011 EQ PUSH2 0x3C4 JUMPI DUP1 PUSH4 0x62BFDF04 EQ PUSH2 0x3DA JUMPI DUP1 PUSH4 0x6BA4C138 EQ PUSH2 0x3FA JUMPI DUP1 PUSH4 0x6C188593 EQ PUSH2 0x41A JUMPI PUSH1 0x0 DUP1 REVERT JUMPDEST DUP1 PUSH4 0x3F4BA83A GT PUSH2 0x224 JUMPI DUP1 PUSH4 0x3F4BA83A EQ PUSH2 0x31A JUMPI DUP1 PUSH4 0x3FA41766 EQ PUSH2 0x32F JUMPI DUP1 PUSH4 0x4F64B2BE EQ PUSH2 0x342 JUMPI DUP1 PUSH4 0x55E3F086 EQ PUSH2 0x362 JUMPI DUP1 PUSH4 0x58F7F6D2 EQ PUSH2 0x377 JUMPI PUSH1 0x0 DUP1 REVERT JUMPDEST DUP1 PUSH3 0x3BDC74 EQ PUSH2 0x260 JUMPI DUP1 PUSH4 0x127EFFB2 EQ PUSH2 0x277 JUMPI DUP1 PUSH4 0x273867D4 EQ PUSH2 0x2AD JUMPI DUP1 PUSH4 0x2A75CABE EQ PUSH2 0x2F1 JUMPI DUP1 PUSH4 0x368ACB09 EQ PUSH2 0x304 JUMPI JUMPDEST PUSH1 0x0 DUP1 REVERT JUMPDEST CALLVALUE DUP1 ISZERO PUSH2 0x26C JUMPI PUSH1 0x0 DUP1 REVERT JUMPDEST POP PUSH2 0x275 PUSH2 0x83A JUMP JUMPDEST STOP JUMPDEST CALLVALUE DUP1 ISZERO PUSH2 0x283 JUMPI PUSH1 0x0 DUP1 REVERT JUMPDEST POP PUSH1 0x3 SLOAD PUSH2 0x297 SWAP1 PUSH1 0x1 PUSH1 0x1 PUSH1 0xA0 SHL SUB AND DUP2 JUMP JUMPDEST PUSH1 0x40 MLOAD PUSH2 0x2A4 SWAP2 SWAP1 PUSH2 0x36B1 JUMP JUMPDEST PUSH1 0x40 MLOAD DUP1 SWAP2 SUB SWAP1 RETURN JUMPDEST CALLVALUE DUP1 ISZERO PUSH2 0x2B9 JUMPI PUSH1 0x0 DUP1 REVERT JUMPDEST POP PUSH2 0x2E3 PUSH2 0x2C8 CALLDATASIZE PUSH1 0x4 PUSH2 0x3340 JUMP JUMPDEST PUSH1 0x1 PUSH1 0x1 PUSH1 0xA0 SHL SUB AND PUSH1 0x0 SWAP1 DUP2 MSTORE PUSH1 0xD PUSH1 0x20 MSTORE PUSH1 0x40 SWAP1 KECCAK256 SLOAD SWAP1 JUMP JUMPDEST PUSH1 0x40 MLOAD SWAP1 DUP2 MSTORE PUSH1 0x20 ADD PUSH2 0x2A4 JUMP JUMPDEST PUSH2 0x275 PUSH2 0x2FF CALLDATASIZE PUSH1 0x4 PUSH2 0x3561 JUMP JUMPDEST PUSH2 0x974 JUMP JUMPDEST CALLVALUE DUP1 ISZERO PUSH2 0x310 JUMPI PUSH1 0x0 DUP1 REVERT JUMPDEST POP PUSH2 0x2E3 PUSH1 0x7 SLOAD DUP2 JUMP JUMPDEST CALLVALUE DUP1 ISZERO PUSH2 0x326 JUMPI PUSH1 0x0 DUP1 REVERT JUMPDEST POP PUSH2 0x275 PUSH2 0xB96 JUMP JUMPDEST PUSH2 0x275 PUSH2 0x33D CALLDATASIZE PUSH1 0x4 PUSH2 0x3561 JUMP JUMPDEST PUSH2 0xC1A JUMP JUMPDEST CALLVALUE DUP1 ISZERO PUSH2 0x34E JUMPI PUSH1 0x0 DUP1 REVERT JUMPDEST POP PUSH2 0x297 PUSH2 0x35D CALLDATASIZE PUSH1 0x4 PUSH2 0x3548 JUMP JUMPDEST PUSH2 0xE2F JUMP JUMPDEST CALLVALUE DUP1 ISZERO PUSH2 0x36E JUMPI PUSH1 0x0 DUP1 REVERT JUMPDEST POP PUSH2 0x275 PUSH2 0xE59 JUMP JUMPDEST CALLVALUE DUP1 ISZERO PUSH2 0x383 JUMPI PUSH1 0x0 DUP1 REVERT JUMPDEST POP PUSH2 0x297 PUSH20 0xEEEEEEEEEEEEEEEEEEEEEEEEEEEEEEEEEEEEEEEE DUP2 JUMP JUMPDEST CALLVALUE DUP1 ISZERO PUSH2 0x3AB JUMPI PUSH1 0x0 DUP1 REVERT JUMPDEST POP PUSH2 0x3B4 PUSH2 0xEE8 JUMP JUMPDEST PUSH1 0x40 MLOAD SWAP1 ISZERO ISZERO DUP2 MSTORE PUSH1 0x20 ADD PUSH2 0x2A4 JUMP JUMPDEST CALLVALUE DUP1 ISZERO PUSH2 0x3D0 JUMPI PUSH1 0x0 DUP1 REVERT JUMPDEST POP PUSH2 0x2E3 PUSH1 0xA SLOAD DUP2 JUMP JUMPDEST CALLVALUE DUP1 ISZERO PUSH2 0x3E6 JUMPI PUSH1 0x0 DUP1 REVERT JUMPDEST POP PUSH2 0x275 PUSH2 0x3F5 CALLDATASIZE PUSH1 0x4 PUSH2 0x33B8 JUMP JUMPDEST PUSH2 0xEF8 JUMP JUMPDEST CALLVALUE DUP1 ISZERO PUSH2 0x406 JUMPI PUSH1 0x0 DUP1 REVERT JUMPDEST POP PUSH2 0x275 PUSH2 0x415 CALLDATASIZE PUSH1 0x4 PUSH2 0x341B JUMP JUMPDEST PUSH2 0x11FA JUMP JUMPDEST CALLVALUE DUP1 ISZERO PUSH2 0x426 JUMPI PUSH1 0x0 DUP1 REVERT JUMPDEST POP PUSH2 0x275 PUSH2 0x435 CALLDATASIZE PUSH1 0x4 PUSH2 0x3548 JUMP JUMPDEST PUSH2 0x152E JUMP JUMPDEST CALLVALUE DUP1 ISZERO PUSH2 0x446 JUMPI PUSH1 0x0 DUP1 REVERT JUMPDEST POP PUSH2 0x275 PUSH2 0x455 CALLDATASIZE PUSH1 0x4 PUSH2 0x3340 JUMP JUMPDEST PUSH2 0x15FF JUMP JUMPDEST CALLVALUE DUP1 ISZERO PUSH2 0x466 JUMPI PUSH1 0x0 DUP1 REVERT JUMPDEST POP PUSH2 0x275 PUSH2 0x16AA JUMP JUMPDEST CALLVALUE DUP1 ISZERO PUSH2 0x47B JUMPI PUSH1 0x0 DUP1 REVERT JUMPDEST POP PUSH2 0x4CB PUSH2 0x48A CALLDATASIZE PUSH1 0x4 PUSH2 0x3561 JUMP JUMPDEST PUSH1 0xB PUSH1 0x20 SWAP1 DUP2 MSTORE PUSH1 0x0 SWAP3 DUP4 MSTORE PUSH1 0x40 DUP1 DUP5 KECCAK256 SWAP1 SWAP2 MSTORE SWAP1 DUP3 MSTORE SWAP1 KECCAK256 DUP1 SLOAD PUSH1 0x1 DUP3 ADD SLOAD PUSH1 0x2 SWAP1 SWAP3 ADD SLOAD PUSH1 0xFF DUP1 DUP4 AND SWAP4 PUSH2 0x100 SWAP1 SWAP4 DIV PUSH1 0x1 PUSH1 0x1 PUSH1 0xA0 SHL SUB AND SWAP3 SWAP2 AND DUP5 JUMP JUMPDEST PUSH1 0x40 MLOAD PUSH2 0x2A4 SWAP5 SWAP4 SWAP3 SWAP2 SWAP1 PUSH2 0x3782 JUMP JUMPDEST CALLVALUE DUP1 ISZERO PUSH2 0x4E7 JUMPI PUSH1 0x0 DUP1 REVERT JUMPDEST POP PUSH2 0x275 PUSH2 0x16E3 JUMP JUMPDEST CALLVALUE DUP1 ISZERO PUSH2 0x4FC JUMPI PUSH1 0x0 DUP1 REVERT JUMPDEST POP PUSH2 0x2E3 PUSH1 0x8 SLOAD DUP2 JUMP JUMPDEST CALLVALUE DUP1 ISZERO PUSH2 0x512 JUMPI PUSH1 0x0 DUP1 REVERT JUMPDEST POP PUSH2 0x275 PUSH2 0x521 CALLDATASIZE PUSH1 0x4 PUSH2 0x33B8 JUMP JUMPDEST PUSH2 0x176B JUMP JUMPDEST CALLVALUE DUP1 ISZERO PUSH2 0x532 JUMPI PUSH1 0x0 DUP1 REVERT JUMPDEST POP PUSH2 0x3B4 PUSH2 0x541 CALLDATASIZE PUSH1 0x4 PUSH2 0x3561 JUMP JUMPDEST PUSH2 0x1A38 JUMP JUMPDEST CALLVALUE DUP1 ISZERO PUSH2 0x552 JUMPI PUSH1 0x0 DUP1 REVERT JUMPDEST POP PUSH2 0x2E3 PUSH1 0x5 SLOAD DUP2 JUMP JUMPDEST CALLVALUE DUP1 ISZERO PUSH2 0x568 JUMPI PUSH1 0x0 DUP1 REVERT JUMPDEST POP PUSH2 0x275 PUSH2 0x1B2B JUMP JUMPDEST CALLVALUE DUP1 ISZERO PUSH2 0x57D JUMPI PUSH1 0x0 DUP1 REVERT JUMPDEST POP PUSH2 0x275 PUSH2 0x58C CALLDATASIZE PUSH1 0x4 PUSH2 0x358D JUMP JUMPDEST PUSH2 0x1BEA JUMP JUMPDEST CALLVALUE DUP1 ISZERO PUSH2 0x59D JUMPI PUSH1 0x0 DUP1 REVERT JUMPDEST POP PUSH2 0x5DE PUSH2 0x5AC CALLDATASIZE PUSH1 0x4 PUSH2 0x3548 JUMP JUMPDEST PUSH1 0xC PUSH1 0x20 MSTORE PUSH1 0x0 SWAP1 DUP2 MSTORE PUSH1 0x40 SWAP1 KECCAK256 DUP1 SLOAD PUSH1 0x1 DUP3 ADD SLOAD PUSH1 0x2 DUP4 ADD SLOAD PUSH1 0x3 DUP5 ADD SLOAD PUSH1 0x4 SWAP1 SWAP5 ADD SLOAD SWAP3 SWAP4 SWAP2 SWAP3 SWAP1 SWAP2 SWAP1 PUSH1 0xFF AND DUP6 JUMP JUMPDEST PUSH1 0x40 DUP1 MLOAD SWAP6 DUP7 MSTORE PUSH1 0x20 DUP7 ADD SWAP5 SWAP1 SWAP5 MSTORE SWAP3 DUP5 ADD SWAP2 SWAP1 SWAP2 MSTORE PUSH1 0x60 DUP4 ADD MSTORE ISZERO ISZERO PUSH1 0x80 DUP3 ADD MSTORE PUSH1 0xA0 ADD PUSH2 0x2A4 JUMP JUMPDEST CALLVALUE DUP1 ISZERO PUSH2 0x614 JUMPI PUSH1 0x0 DUP1 REVERT JUMPDEST POP PUSH2 0x297 PUSH2 0x1CE8 JUMP JUMPDEST CALLVALUE DUP1 ISZERO PUSH2 0x629 JUMPI PUSH1 0x0 DUP1 REVERT JUMPDEST POP PUSH2 0x63D PUSH2 0x638 CALLDATASIZE PUSH1 0x4 PUSH2 0x3548 JUMP JUMPDEST PUSH2 0x1CF7 JUMP JUMPDEST PUSH1 0x40 MLOAD PUSH2 0x2A4 SWAP11 SWAP10 SWAP9 SWAP8 SWAP7 SWAP6 SWAP5 SWAP4 SWAP3 SWAP2 SWAP1 PUSH2 0x3A7A JUMP JUMPDEST CALLVALUE DUP1 ISZERO PUSH2 0x65F JUMPI PUSH1 0x0 DUP1 REVERT JUMPDEST POP PUSH2 0x673 PUSH2 0x66E CALLDATASIZE PUSH1 0x4 PUSH2 0x3385 JUMP JUMPDEST PUSH2 0x1FAD JUMP JUMPDEST PUSH1 0x40 MLOAD PUSH2 0x2A4 SWAP4 SWAP3 SWAP2 SWAP1 PUSH2 0x36F2 JUMP JUMPDEST CALLVALUE DUP1 ISZERO PUSH2 0x68E JUMPI PUSH1 0x0 DUP1 REVERT JUMPDEST POP PUSH2 0x697 PUSH2 0x221E JUMP JUMPDEST PUSH1 0x40 MLOAD PUSH2 0x2A4 SWAP2 SWAP1 PUSH2 0x36DF JUMP JUMPDEST CALLVALUE DUP1 ISZERO PUSH2 0x6B0 JUMPI PUSH1 0x0 DUP1 REVERT JUMPDEST POP PUSH2 0x297 PUSH2 0x6BF CALLDATASIZE PUSH1 0x4 PUSH2 0x3340 JUMP JUMPDEST PUSH1 0xE PUSH1 0x20 MSTORE PUSH1 0x0 SWAP1 DUP2 MSTORE PUSH1 0x40 SWAP1 KECCAK256 SLOAD PUSH1 0x1 PUSH1 0x1 PUSH1 0xA0 SHL SUB AND DUP2 JUMP JUMPDEST CALLVALUE DUP1 ISZERO PUSH2 0x6E6 JUMPI PUSH1 0x0 DUP1 REVERT JUMPDEST POP PUSH2 0x275 PUSH2 0x6F5 CALLDATASIZE PUSH1 0x4 PUSH2 0x335B JUMP JUMPDEST PUSH2 0x2280 JUMP JUMPDEST CALLVALUE DUP1 ISZERO PUSH2 0x706 JUMPI PUSH1 0x0 DUP1 REVERT JUMPDEST POP PUSH2 0x275 PUSH2 0x715 CALLDATASIZE PUSH1 0x4 PUSH2 0x3340 JUMP JUMPDEST PUSH2 0x2372 JUMP JUMPDEST CALLVALUE DUP1 ISZERO PUSH2 0x726 JUMPI PUSH1 0x0 DUP1 REVERT JUMPDEST POP PUSH2 0x275 PUSH2 0x735 CALLDATASIZE PUSH1 0x4 PUSH2 0x3548 JUMP JUMPDEST PUSH2 0x240D JUMP JUMPDEST CALLVALUE DUP1 ISZERO PUSH2 0x746 JUMPI PUSH1 0x0 DUP1 REVERT JUMPDEST POP PUSH2 0x2E3 PUSH2 0x755 CALLDATASIZE PUSH1 0x4 PUSH2 0x335B JUMP JUMPDEST PUSH2 0x2490 JUMP JUMPDEST CALLVALUE DUP1 ISZERO PUSH2 0x766 JUMPI PUSH1 0x0 DUP1 REVERT JUMPDEST POP PUSH2 0x297 PUSH20 0xB2D7B35539A543BBE4C74965488FFE33C6721F0D DUP2 JUMP JUMPDEST CALLVALUE DUP1 ISZERO PUSH2 0x78E JUMPI PUSH1 0x0 DUP1 REVERT JUMPDEST POP PUSH2 0x2E3 PUSH1 0x4 SLOAD DUP2 JUMP JUMPDEST CALLVALUE DUP1 ISZERO PUSH2 0x7A4 JUMPI PUSH1 0x0 DUP1 REVERT JUMPDEST POP PUSH2 0x2E3 PUSH1 0x9 SLOAD DUP2 JUMP JUMPDEST CALLVALUE DUP1 ISZERO PUSH2 0x7BA JUMPI PUSH1 0x0 DUP1 REVERT JUMPDEST POP PUSH2 0x2E3 PUSH2 0x3E8 DUP2 JUMP JUMPDEST CALLVALUE DUP1 ISZERO PUSH2 0x7D0 JUMPI PUSH1 0x0 DUP1 REVERT JUMPDEST POP PUSH2 0x275 PUSH2 0x7DF CALLDATASIZE PUSH1 0x4 PUSH2 0x3340 JUMP JUMPDEST PUSH2 0x24C1 JUMP JUMPDEST CALLVALUE DUP1 ISZERO PUSH2 0x7F0 JUMPI PUSH1 0x0 DUP1 REVERT JUMPDEST POP PUSH2 0x2E3 PUSH1 0x6 SLOAD DUP2 JUMP JUMPDEST CALLVALUE DUP1 ISZERO PUSH2 0x806 JUMPI PUSH1 0x0 DUP1 REVERT JUMPDEST POP PUSH1 0x2 SLOAD PUSH2 0x297 SWAP1 PUSH1 0x1 PUSH1 0x1 PUSH1 0xA0 SHL SUB AND DUP2 JUMP JUMPDEST CALLVALUE DUP1 ISZERO PUSH2 0x826 JUMPI PUSH1 0x0 DUP1 REVERT JUMPDEST POP PUSH2 0x275 PUSH2 0x835 CALLDATASIZE PUSH1 0x4 PUSH2 0x348F JUMP JUMPDEST PUSH2 0x2561 JUMP JUMPDEST PUSH1 0x2 PUSH1 0x1 SLOAD EQ ISZERO PUSH2 0x866 JUMPI PUSH1 0x40 MLOAD PUSH3 0x461BCD PUSH1 0xE5 SHL DUP2 MSTORE PUSH1 0x4 ADD PUSH2 0x85D SWAP1 PUSH2 0x399A JUMP JUMPDEST PUSH1 0x40 MLOAD DUP1 SWAP2 SUB SWAP1 REVERT JUMPDEST PUSH1 0x2 PUSH1 0x1 DUP2 SWAP1 SSTORE SLOAD PUSH1 0x1 PUSH1 0x1 PUSH1 0xA0 SHL SUB AND CALLER EQ PUSH2 0x895 JUMPI PUSH1 0x40 MLOAD PUSH3 0x461BCD PUSH1 0xE5 SHL DUP2 MSTORE PUSH1 0x4 ADD PUSH2 0x85D SWAP1 PUSH2 0x3A26 JUMP JUMPDEST PUSH1 0x7 DUP1 SLOAD PUSH1 0x0 SWAP2 DUP3 SWAP1 SSTORE PUSH1 0x2 SLOAD PUSH1 0x40 MLOAD PUSH4 0xA9059CBB PUSH1 0xE0 SHL DUP2 MSTORE PUSH1 0x1 PUSH1 0x1 PUSH1 0xA0 SHL SUB SWAP1 SWAP2 AND PUSH1 0x4 DUP3 ADD MSTORE PUSH1 0x24 DUP2 ADD SWAP3 SWAP1 SWAP3 MSTORE SWAP1 PUSH20 0xB2D7B35539A543BBE4C74965488FFE33C6721F0D SWAP1 PUSH4 0xA9059CBB SWAP1 PUSH1 0x44 ADD PUSH1 0x20 PUSH1 0x40 MLOAD DUP1 DUP4 SUB DUP2 PUSH1 0x0 DUP8 DUP1 EXTCODESIZE ISZERO DUP1 ISZERO PUSH2 0x901 JUMPI PUSH1 0x0 DUP1 REVERT JUMPDEST POP GAS CALL ISZERO DUP1 ISZERO PUSH2 0x915 JUMPI RETURNDATASIZE PUSH1 0x0 DUP1 RETURNDATACOPY RETURNDATASIZE PUSH1 0x0 REVERT JUMPDEST POP POP POP POP PUSH1 0x40 MLOAD RETURNDATASIZE PUSH1 0x1F NOT PUSH1 0x1F DUP3 ADD AND DUP3 ADD DUP1 PUSH1 0x40 MSTORE POP DUP2 ADD SWAP1 PUSH2 0x939 SWAP2 SWAP1 PUSH2 0x3526 JUMP JUMPDEST POP PUSH1 0x40 MLOAD DUP2 DUP2 MSTORE PUSH32 0xB9197C6B8E21274BD1E2D9C956A88AF5CFEE510F630FAB3F046300F88B422361 SWAP1 PUSH1 0x20 ADD PUSH1 0x40 MLOAD DUP1 SWAP2 SUB SWAP1 LOG1 POP PUSH1 0x1 DUP1 SSTORE JUMP JUMPDEST PUSH2 0x97C PUSH2 0xEE8 JUMP JUMPDEST ISZERO PUSH2 0x999 JUMPI PUSH1 0x40 MLOAD PUSH3 0x461BCD PUSH1 0xE5 SHL DUP2 MSTORE PUSH1 0x4 ADD PUSH2 0x85D SWAP1 PUSH2 0x3874 JUMP JUMPDEST PUSH1 0x2 PUSH1 0x1 SLOAD EQ ISZERO PUSH2 0x9BC JUMPI PUSH1 0x40 MLOAD PUSH3 0x461BCD PUSH1 0xE5 SHL DUP2 MSTORE PUSH1 0x4 ADD PUSH2 0x85D SWAP1 PUSH2 0x399A JUMP JUMPDEST PUSH1 0x2 PUSH1 0x1 SSTORE CALLER EXTCODESIZE ISZERO PUSH2 0x9E0 JUMPI PUSH1 0x40 MLOAD PUSH3 0x461BCD PUSH1 0xE5 SHL DUP2 MSTORE PUSH1 0x4 ADD PUSH2 0x85D SWAP1 PUSH2 0x3817 JUMP JUMPDEST CALLER ORIGIN EQ PUSH2 0x9FF JUMPI PUSH1 0x40 MLOAD PUSH3 0x461BCD PUSH1 0xE5 SHL DUP2 MSTORE PUSH1 0x4 ADD PUSH2 0x85D SWAP1 PUSH2 0x38CE JUMP JUMPDEST PUSH1 0x8 SLOAD DUP3 EQ PUSH2 0xA20 JUMPI PUSH1 0x40 MLOAD PUSH3 0x461BCD PUSH1 0xE5 SHL DUP2 MSTORE PUSH1 0x4 ADD PUSH2 0x85D SWAP1 PUSH2 0x39D1 JUMP JUMPDEST PUSH2 0xA29 DUP3 PUSH2 0x2851 JUMP JUMPDEST PUSH2 0xA45 JUMPI PUSH1 0x40 MLOAD PUSH3 0x461BCD PUSH1 0xE5 SHL DUP2 MSTORE PUSH1 0x4 ADD PUSH2 0x85D SWAP1 PUSH2 0x3937 JUMP JUMPDEST PUSH1 0x0 DUP3 DUP2 MSTORE PUSH1 0xB PUSH1 0x20 SWAP1 DUP2 MSTORE PUSH1 0x40 DUP1 DUP4 KECCAK256 CALLER DUP5 MSTORE SWAP1 SWAP2 MSTORE SWAP1 KECCAK256 PUSH1 0x1 ADD SLOAD ISZERO PUSH2 0xA7F JUMPI PUSH1 0x40 MLOAD PUSH3 0x461BCD PUSH1 0xE5 SHL DUP2 MSTORE PUSH1 0x4 ADD PUSH2 0x85D SWAP1 PUSH2 0x3963 JUMP JUMPDEST PUSH1 0x1 PUSH1 0x1 PUSH1 0xA0 SHL SUB DUP2 DUP2 AND PUSH1 0x0 SWAP1 DUP2 MSTORE PUSH1 0xE PUSH1 0x20 MSTORE PUSH1 0x40 SWAP1 KECCAK256 SLOAD AND PUSH2 0xAB6 JUMPI PUSH1 0x40 MLOAD PUSH3 0x461BCD PUSH1 0xE5 SHL DUP2 MSTORE PUSH1 0x4 ADD PUSH2 0x85D SWAP1 PUSH2 0x3A49 JUMP JUMPDEST PUSH1 0x6 SLOAD PUSH2 0xAD9 PUSH20 0xB2D7B35539A543BBE4C74965488FFE33C6721F0D CALLER ADDRESS DUP5 PUSH2 0x28AF JUMP JUMPDEST PUSH1 0x0 DUP4 DUP2 MSTORE PUSH1 0xC PUSH1 0x20 MSTORE PUSH1 0x40 SWAP1 KECCAK256 PUSH1 0x3 DUP2 ADD SLOAD PUSH2 0xAF7 SWAP1 DUP4 SWAP1 PUSH2 0x3B64 JUMP JUMPDEST PUSH1 0x3 DUP3 ADD SSTORE PUSH1 0x0 DUP5 DUP2 MSTORE PUSH1 0xB PUSH1 0x20 SWAP1 DUP2 MSTORE PUSH1 0x40 DUP1 DUP4 KECCAK256 CALLER DUP1 DUP6 MSTORE SWAP1 DUP4 MSTORE DUP2 DUP5 KECCAK256 DUP1 SLOAD PUSH1 0x1 DUP1 DUP4 ADD DUP10 SWAP1 SSTORE PUSH1 0x1 PUSH1 0x1 PUSH1 0xA8 SHL SUB NOT SWAP1 SWAP2 AND PUSH2 0x100 PUSH1 0x1 PUSH1 0x1 PUSH1 0xA0 SHL SUB DUP12 AND MUL OR DUP3 SSTORE PUSH1 0xD DUP6 MSTORE DUP4 DUP7 KECCAK256 DUP1 SLOAD SWAP2 DUP3 ADD DUP2 SSTORE DUP7 MSTORE SWAP5 DUP5 SWAP1 KECCAK256 SWAP1 SWAP5 ADD DUP9 SWAP1 SSTORE SWAP1 MLOAD DUP6 DUP2 MSTORE DUP8 SWAP3 PUSH32 0x438122D8CFF518D18388099A5181F0D17A12B4F1B55FAEDF6E4A6ACEE0060C12 SWAP2 ADD JUMPDEST PUSH1 0x40 MLOAD DUP1 SWAP2 SUB SWAP1 LOG3 POP POP PUSH1 0x1 DUP1 SSTORE POP POP POP JUMP JUMPDEST PUSH2 0xB9E PUSH2 0xEE8 JUMP JUMPDEST PUSH2 0xBBA JUMPI PUSH1 0x40 MLOAD PUSH3 0x461BCD PUSH1 0xE5 SHL DUP2 MSTORE PUSH1 0x4 ADD PUSH2 0x85D SWAP1 PUSH2 0x37E9 JUMP JUMPDEST PUSH1 0x2 SLOAD PUSH1 0x1 PUSH1 0x1 PUSH1 0xA0 SHL SUB AND CALLER EQ PUSH2 0xBE4 JUMPI PUSH1 0x40 MLOAD PUSH3 0x461BCD PUSH1 0xE5 SHL DUP2 MSTORE PUSH1 0x4 ADD PUSH2 0x85D SWAP1 PUSH2 0x3A26 JUMP JUMPDEST PUSH2 0xBEC PUSH2 0x2920 JUMP JUMPDEST PUSH1 0x8 SLOAD PUSH1 0x40 MLOAD PUSH32 0xAAA520FDD7D2C83061D632FA017B0432407E798818AF63EA908589FCEDA39AB7 SWAP1 PUSH1 0x0 SWAP1 LOG2 JUMP JUMPDEST PUSH2 0xC22 PUSH2 0xEE8 JUMP JUMPDEST ISZERO PUSH2 0xC3F JUMPI PUSH1 0x40 MLOAD PUSH3 0x461BCD PUSH1 0xE5 SHL DUP2 MSTORE PUSH1 0x4 ADD PUSH2 0x85D SWAP1 PUSH2 0x3874 JUMP JUMPDEST PUSH1 0x2 PUSH1 0x1 SLOAD EQ ISZERO PUSH2 0xC62 JUMPI PUSH1 0x40 MLOAD PUSH3 0x461BCD PUSH1 0xE5 SHL DUP2 MSTORE PUSH1 0x4 ADD PUSH2 0x85D SWAP1 PUSH2 0x399A JUMP JUMPDEST PUSH1 0x2 PUSH1 0x1 SSTORE CALLER EXTCODESIZE ISZERO PUSH2 0xC86 JUMPI PUSH1 0x40 MLOAD PUSH3 0x461BCD PUSH1 0xE5 SHL DUP2 MSTORE PUSH1 0x4 ADD PUSH2 0x85D SWAP1 PUSH2 0x3817 JUMP JUMPDEST CALLER ORIGIN EQ PUSH2 0xCA5 JUMPI PUSH1 0x40 MLOAD PUSH3 0x461BCD PUSH1 0xE5 SHL DUP2 MSTORE PUSH1 0x4 ADD PUSH2 0x85D SWAP1 PUSH2 0x38CE JUMP JUMPDEST PUSH1 0x8 SLOAD DUP3 EQ PUSH2 0xCC6 JUMPI PUSH1 0x40 MLOAD PUSH3 0x461BCD PUSH1 0xE5 SHL DUP2 MSTORE PUSH1 0x4 ADD PUSH2 0x85D SWAP1 PUSH2 0x39D1 JUMP JUMPDEST PUSH2 0xCCF DUP3 PUSH2 0x2851 JUMP JUMPDEST PUSH2 0xCEB JUMPI PUSH1 0x40 MLOAD PUSH3 0x461BCD PUSH1 0xE5 SHL DUP2 MSTORE PUSH1 0x4 ADD PUSH2 0x85D SWAP1 PUSH2 0x3937 JUMP JUMPDEST PUSH1 0x0 DUP3 DUP2 MSTORE PUSH1 0xB PUSH1 0x20 SWAP1 DUP2 MSTORE PUSH1 0x40 DUP1 DUP4 KECCAK256 CALLER DUP5 MSTORE SWAP1 SWAP2 MSTORE SWAP1 KECCAK256 PUSH1 0x1 ADD SLOAD ISZERO PUSH2 0xD25 JUMPI PUSH1 0x40 MLOAD PUSH3 0x461BCD PUSH1 0xE5 SHL DUP2 MSTORE PUSH1 0x4 ADD PUSH2 0x85D SWAP1 PUSH2 0x3963 JUMP JUMPDEST PUSH1 0x1 PUSH1 0x1 PUSH1 0xA0 SHL SUB DUP2 DUP2 AND PUSH1 0x0 SWAP1 DUP2 MSTORE PUSH1 0xE PUSH1 0x20 MSTORE PUSH1 0x40 SWAP1 KECCAK256 SLOAD AND PUSH2 0xD5C JUMPI PUSH1 0x40 MLOAD PUSH3 0x461BCD PUSH1 0xE5 SHL DUP2 MSTORE PUSH1 0x4 ADD PUSH2 0x85D SWAP1 PUSH2 0x3A49 JUMP JUMPDEST PUSH1 0x6 SLOAD PUSH2 0xD7F PUSH20 0xB2D7B35539A543BBE4C74965488FFE33C6721F0D CALLER ADDRESS DUP5 PUSH2 0x28AF JUMP JUMPDEST PUSH1 0x0 DUP4 DUP2 MSTORE PUSH1 0xC PUSH1 0x20 MSTORE PUSH1 0x40 SWAP1 KECCAK256 PUSH1 0x3 DUP2 ADD SLOAD PUSH2 0xD9D SWAP1 DUP4 SWAP1 PUSH2 0x3B64 JUMP JUMPDEST PUSH1 0x3 DUP3 ADD SSTORE PUSH1 0x0 DUP5 DUP2 MSTORE PUSH1 0xB PUSH1 0x20 SWAP1 DUP2 MSTORE PUSH1 0x40 DUP1 DUP4 KECCAK256 CALLER DUP1 DUP6 MSTORE SWAP1 DUP4 MSTORE DUP2 DUP5 KECCAK256 DUP1 SLOAD PUSH1 0x1 DUP1 DUP4 ADD DUP10 SWAP1 SSTORE PUSH1 0x1 PUSH1 0x1 PUSH1 0xA8 SHL SUB NOT SWAP1 SWAP2 AND PUSH2 0x100 PUSH1 0x1 PUSH1 0x1 PUSH1 0xA0 SHL SUB DUP12 AND MUL OR DUP2 OR DUP3 SSTORE PUSH1 0xD DUP6 MSTORE DUP4 DUP7 KECCAK256 DUP1 SLOAD SWAP2 DUP3 ADD DUP2 SSTORE DUP7 MSTORE SWAP5 DUP5 SWAP1 KECCAK256 SWAP1 SWAP5 ADD DUP9 SWAP1 SSTORE SWAP1 MLOAD DUP6 DUP2 MSTORE DUP8 SWAP3 PUSH32 0xD8C1FE3E67AB767116A81F122B83C2557A8C2564019CB7C4F83DE1AEB1F1F0D SWAP2 ADD PUSH2 0xB83 JUMP JUMPDEST PUSH1 0xF DUP2 DUP2 SLOAD DUP2 LT PUSH2 0xE3F JUMPI PUSH1 0x0 DUP1 REVERT JUMPDEST PUSH1 0x0 SWAP2 DUP3 MSTORE PUSH1 0x20 SWAP1 SWAP2 KECCAK256 ADD SLOAD PUSH1 0x1 PUSH1 0x1 PUSH1 0xA0 SHL SUB AND SWAP1 POP DUP2 JUMP JUMPDEST PUSH2 0xE61 PUSH2 0xEE8 JUMP JUMPDEST ISZERO PUSH2 0xE7E JUMPI PUSH1 0x40 MLOAD PUSH3 0x461BCD PUSH1 0xE5 SHL DUP2 MSTORE PUSH1 0x4 ADD PUSH2 0x85D SWAP1 PUSH2 0x3874 JUMP JUMPDEST PUSH1 0x3 SLOAD PUSH1 0x1 PUSH1 0x1 PUSH1 0xA0 SHL SUB AND CALLER EQ PUSH2 0xEA8 JUMPI PUSH1 0x40 MLOAD PUSH3 0x461BCD PUSH1 0xE5 SHL DUP2 MSTORE PUSH1 0x4 ADD PUSH2 0x85D SWAP1 PUSH2 0x3A00 JUMP JUMPDEST PUSH1 0x8 SLOAD PUSH2 0xEB6 SWAP1 PUSH1 0x1 PUSH2 0x3B64 JUMP JUMPDEST PUSH1 0x8 DUP2 SWAP1 SSTORE PUSH1 0x1 LT ISZERO PUSH2 0xED3 JUMPI PUSH2 0xECE PUSH1 0x8 SLOAD PUSH2 0x298B JUMP JUMPDEST PUSH2 0xEDE JUMP JUMPDEST PUSH2 0xEDE PUSH1 0x8 SLOAD PUSH2 0x2AA6 JUMP JUMPDEST PUSH2 0xEE6 PUSH2 0x2B05 JUMP JUMPDEST JUMP JUMPDEST PUSH1 0x0 SLOAD PUSH1 0x1 PUSH1 0xA0 SHL SWAP1 DIV PUSH1 0xFF AND SWAP1 JUMP JUMPDEST PUSH2 0xF00 PUSH2 0xEE8 JUMP JUMPDEST ISZERO PUSH2 0xF1D JUMPI PUSH1 0x40 MLOAD PUSH3 0x461BCD PUSH1 0xE5 SHL DUP2 MSTORE PUSH1 0x4 ADD PUSH2 0x85D SWAP1 PUSH2 0x3874 JUMP JUMPDEST PUSH1 0x2 SLOAD PUSH1 0x1 PUSH1 0x1 PUSH1 0xA0 SHL SUB AND CALLER EQ PUSH2 0xF47 JUMPI PUSH1 0x40 MLOAD PUSH3 0x461BCD PUSH1 0xE5 SHL DUP2 MSTORE PUSH1 0x4 ADD PUSH2 0x85D SWAP1 PUSH2 0x3A26 JUMP JUMPDEST PUSH1 0x0 JUMPDEST DUP3 MLOAD DUP2 LT ISZERO PUSH2 0x11F5 JUMPI PUSH1 0x0 PUSH1 0x1 PUSH1 0x1 PUSH1 0xA0 SHL SUB AND DUP4 DUP3 DUP2 MLOAD DUP2 LT PUSH2 0xF70 JUMPI PUSH2 0xF70 PUSH2 0x3C1C JUMP JUMPDEST PUSH1 0x20 MUL PUSH1 0x20 ADD ADD MLOAD PUSH1 0x1 PUSH1 0x1 PUSH1 0xA0 SHL SUB AND EQ ISZERO DUP1 ISZERO PUSH2 0xFBB JUMPI POP PUSH1 0x0 PUSH1 0x1 PUSH1 0x1 PUSH1 0xA0 SHL SUB AND DUP3 DUP3 DUP2 MLOAD DUP2 LT PUSH2 0xFA7 JUMPI PUSH2 0xFA7 PUSH2 0x3C1C JUMP JUMPDEST PUSH1 0x20 MUL PUSH1 0x20 ADD ADD MLOAD PUSH1 0x1 PUSH1 0x1 PUSH1 0xA0 SHL SUB AND EQ ISZERO JUMPDEST PUSH2 0x1015 JUMPI PUSH1 0x40 MLOAD PUSH3 0x461BCD PUSH1 0xE5 SHL DUP2 MSTORE PUSH1 0x20 PUSH1 0x4 DUP3 ADD MSTORE PUSH1 0x25 PUSH1 0x24 DUP3 ADD MSTORE PUSH32 0x507265646963746F696E3A2043616E6E6F74206164642061207A65726F206164 PUSH1 0x44 DUP3 ADD MSTORE PUSH5 0x6472657373 PUSH1 0xD8 SHL PUSH1 0x64 DUP3 ADD MSTORE PUSH1 0x84 ADD PUSH2 0x85D JUMP JUMPDEST PUSH1 0x0 PUSH1 0x1 PUSH1 0x1 PUSH1 0xA0 SHL SUB AND PUSH1 0xE PUSH1 0x0 DUP6 DUP5 DUP2 MLOAD DUP2 LT PUSH2 0x1036 JUMPI PUSH2 0x1036 PUSH2 0x3C1C JUMP JUMPDEST PUSH1 0x20 SWAP1 DUP2 MUL SWAP2 SWAP1 SWAP2 ADD DUP2 ADD MLOAD PUSH1 0x1 PUSH1 0x1 PUSH1 0xA0 SHL SUB SWAP1 DUP2 AND DUP4 MSTORE SWAP1 DUP3 ADD SWAP3 SWAP1 SWAP3 MSTORE PUSH1 0x40 ADD PUSH1 0x0 KECCAK256 SLOAD AND EQ PUSH2 0x10AB JUMPI PUSH1 0x40 MLOAD PUSH3 0x461BCD PUSH1 0xE5 SHL DUP2 MSTORE PUSH1 0x20 PUSH1 0x4 DUP3 ADD DUP2 SWAP1 MSTORE PUSH1 0x24 DUP3 ADD MSTORE PUSH32 0x507265646963746F696E3A2043616E6E6F74207265616464206120746F6B656E PUSH1 0x44 DUP3 ADD MSTORE PUSH1 0x64 ADD PUSH2 0x85D JUMP JUMPDEST PUSH1 0xF DUP4 DUP3 DUP2 MLOAD DUP2 LT PUSH2 0x10BF JUMPI PUSH2 0x10BF PUSH2 0x3C1C JUMP JUMPDEST PUSH1 0x20 SWAP1 DUP2 MUL SWAP2 SWAP1 SWAP2 ADD DUP2 ADD MLOAD DUP3 SLOAD PUSH1 0x1 DUP2 ADD DUP5 SSTORE PUSH1 0x0 SWAP4 DUP5 MSTORE SWAP2 SWAP1 SWAP3 KECCAK256 ADD DUP1 SLOAD PUSH1 0x1 PUSH1 0x1 PUSH1 0xA0 SHL SUB NOT AND PUSH1 0x1 PUSH1 0x1 PUSH1 0xA0 SHL SUB SWAP1 SWAP3 AND SWAP2 SWAP1 SWAP2 OR SWAP1 SSTORE DUP2 MLOAD DUP3 SWAP1 DUP3 SWAP1 DUP2 LT PUSH2 0x110E JUMPI PUSH2 0x110E PUSH2 0x3C1C JUMP JUMPDEST PUSH1 0x20 MUL PUSH1 0x20 ADD ADD MLOAD PUSH1 0xE PUSH1 0x0 DUP6 DUP5 DUP2 MLOAD DUP2 LT PUSH2 0x112C JUMPI PUSH2 0x112C PUSH2 0x3C1C JUMP JUMPDEST PUSH1 0x20 MUL PUSH1 0x20 ADD ADD MLOAD PUSH1 0x1 PUSH1 0x1 PUSH1 0xA0 SHL SUB AND PUSH1 0x1 PUSH1 0x1 PUSH1 0xA0 SHL SUB AND DUP2 MSTORE PUSH1 0x20 ADD SWAP1 DUP2 MSTORE PUSH1 0x20 ADD PUSH1 0x0 KECCAK256 PUSH1 0x0 PUSH2 0x100 EXP DUP2 SLOAD DUP2 PUSH1 0x1 PUSH1 0x1 PUSH1 0xA0 SHL SUB MUL NOT AND SWAP1 DUP4 PUSH1 0x1 PUSH1 0x1 PUSH1 0xA0 SHL SUB AND MUL OR SWAP1 SSTORE POP PUSH32 0xDFFBD9DED1C09446F09377DE547142DCCE7DC541C8B0B028142B1EBA7026B9E7 DUP4 DUP3 DUP2 MLOAD DUP2 LT PUSH2 0x11AB JUMPI PUSH2 0x11AB PUSH2 0x3C1C JUMP JUMPDEST PUSH1 0x20 MUL PUSH1 0x20 ADD ADD MLOAD DUP4 DUP4 DUP2 MLOAD DUP2 LT PUSH2 0x11C5 JUMPI PUSH2 0x11C5 PUSH2 0x3C1C JUMP JUMPDEST PUSH1 0x20 MUL PUSH1 0x20 ADD ADD MLOAD PUSH1 0x40 MLOAD PUSH2 0x11DB SWAP3 SWAP2 SWAP1 PUSH2 0x36C5 JUMP JUMPDEST PUSH1 0x40 MLOAD DUP1 SWAP2 SUB SWAP1 LOG1 DUP1 PUSH2 0x11ED DUP2 PUSH2 0x3BBF JUMP JUMPDEST SWAP2 POP POP PUSH2 0xF4A JUMP JUMPDEST POP POP POP JUMP JUMPDEST PUSH1 0x2 PUSH1 0x1 SLOAD EQ ISZERO PUSH2 0x121D JUMPI PUSH1 0x40 MLOAD PUSH3 0x461BCD PUSH1 0xE5 SHL DUP2 MSTORE PUSH1 0x4 ADD PUSH2 0x85D SWAP1 PUSH2 0x399A JUMP JUMPDEST PUSH1 0x2 PUSH1 0x1 SSTORE CALLER EXTCODESIZE ISZERO PUSH2 0x1241 JUMPI PUSH1 0x40 MLOAD PUSH3 0x461BCD PUSH1 0xE5 SHL DUP2 MSTORE PUSH1 0x4 ADD PUSH2 0x85D SWAP1 PUSH2 0x3817 JUMP JUMPDEST CALLER ORIGIN EQ PUSH2 0x1260 JUMPI PUSH1 0x40 MLOAD PUSH3 0x461BCD PUSH1 0xE5 SHL DUP2 MSTORE PUSH1 0x4 ADD PUSH2 0x85D SWAP1 PUSH2 0x38CE JUMP JUMPDEST PUSH1 0x0 DUP1 JUMPDEST DUP3 DUP2 LT ISZERO PUSH2 0x1505 JUMPI PUSH1 0xC PUSH1 0x0 DUP6 DUP6 DUP5 DUP2 DUP2 LT PUSH2 0x1282 JUMPI PUSH2 0x1282 PUSH2 0x3C1C JUMP JUMPDEST SWAP1 POP PUSH1 0x20 MUL ADD CALLDATALOAD DUP2 MSTORE PUSH1 0x20 ADD SWAP1 DUP2 MSTORE PUSH1 0x20 ADD PUSH1 0x0 KECCAK256 PUSH1 0x1 ADD SLOAD PUSH1 0x0 EQ ISZERO PUSH2 0x12E3 JUMPI PUSH1 0x40 MLOAD PUSH3 0x461BCD PUSH1 0xE5 SHL DUP2 MSTORE PUSH1 0x20 PUSH1 0x4 DUP3 ADD MSTORE PUSH1 0x15 PUSH1 0x24 DUP3 ADD MSTORE PUSH21 0x149BDD5B99081A185CC81B9BDD081CDD185C9D1959 PUSH1 0x5A SHL PUSH1 0x44 DUP3 ADD MSTORE PUSH1 0x64 ADD PUSH2 0x85D JUMP JUMPDEST PUSH1 0xC PUSH1 0x0 DUP6 DUP6 DUP5 DUP2 DUP2 LT PUSH2 0x12F9 JUMPI PUSH2 0x12F9 PUSH2 0x3C1C JUMP JUMPDEST SWAP1 POP PUSH1 0x20 MUL ADD CALLDATALOAD DUP2 MSTORE PUSH1 0x20 ADD SWAP1 DUP2 MSTORE PUSH1 0x20 ADD PUSH1 0x0 KECCAK256 PUSH1 0x2 ADD SLOAD TIMESTAMP GT PUSH2 0x1356 JUMPI PUSH1 0x40 MLOAD PUSH3 0x461BCD PUSH1 0xE5 SHL DUP2 MSTORE PUSH1 0x20 PUSH1 0x4 DUP3 ADD MSTORE PUSH1 0x13 PUSH1 0x24 DUP3 ADD MSTORE PUSH19 0x149BDD5B99081A185CC81B9BDD08195B991959 PUSH1 0x6A SHL PUSH1 0x44 DUP3 ADD MSTORE PUSH1 0x64 ADD PUSH2 0x85D JUMP JUMPDEST PUSH1 0xC PUSH1 0x0 DUP6 DUP6 DUP5 DUP2 DUP2 LT PUSH2 0x136C JUMPI PUSH2 0x136C PUSH2 0x3C1C JUMP JUMPDEST PUSH1 0x20 SWAP1 DUP2 MUL SWAP3 SWAP1 SWAP3 ADD CALLDATALOAD DUP4 MSTORE POP DUP2 ADD SWAP2 SWAP1 SWAP2 MSTORE PUSH1 0x40 ADD PUSH1 0x0 KECCAK256 PUSH1 0x4 ADD SLOAD PUSH1 0xFF AND ISZERO PUSH2 0x13CE JUMPI PUSH1 0x40 MLOAD PUSH3 0x461BCD PUSH1 0xE5 SHL DUP2 MSTORE PUSH1 0x20 PUSH1 0x4 DUP3 ADD MSTORE PUSH1 0x12 PUSH1 0x24 DUP3 ADD MSTORE PUSH18 0x13DC9858DB195CC81B9BDD0818D85B1B1959 PUSH1 0x72 SHL PUSH1 0x44 DUP3 ADD MSTORE PUSH1 0x64 ADD PUSH2 0x85D JUMP JUMPDEST PUSH2 0x13F0 DUP5 DUP5 DUP4 DUP2 DUP2 LT PUSH2 0x13E3 JUMPI PUSH2 0x13E3 PUSH2 0x3C1C JUMP JUMPDEST SWAP1 POP PUSH1 0x20 MUL ADD CALLDATALOAD CALLER PUSH2 0x1A38 JUMP JUMPDEST PUSH2 0x1436 JUMPI PUSH1 0x40 MLOAD PUSH3 0x461BCD PUSH1 0xE5 SHL DUP2 MSTORE PUSH1 0x20 PUSH1 0x4 DUP3 ADD MSTORE PUSH1 0x17 PUSH1 0x24 DUP3 ADD MSTORE PUSH23 0x139BDD08195B1A59DA589B1948199BDC881C99599D5B99 PUSH1 0x4A SHL PUSH1 0x44 DUP3 ADD MSTORE PUSH1 0x64 ADD PUSH2 0x85D JUMP JUMPDEST PUSH1 0x1 PUSH1 0xB PUSH1 0x0 DUP7 DUP7 DUP6 DUP2 DUP2 LT PUSH2 0x144E JUMPI PUSH2 0x144E PUSH2 0x3C1C JUMP JUMPDEST PUSH1 0x20 SWAP1 DUP2 MUL SWAP3 SWAP1 SWAP3 ADD CALLDATALOAD DUP4 MSTORE POP DUP2 DUP2 ADD SWAP3 SWAP1 SWAP3 MSTORE PUSH1 0x40 SWAP1 DUP2 ADD PUSH1 0x0 SWAP1 DUP2 KECCAK256 CALLER DUP3 MSTORE SWAP1 SWAP3 MSTORE SWAP1 KECCAK256 PUSH1 0x2 ADD DUP1 SLOAD PUSH1 0xFF NOT AND SWAP2 ISZERO ISZERO SWAP2 SWAP1 SWAP2 OR SWAP1 SSTORE PUSH1 0x6 SLOAD PUSH2 0x1493 SWAP1 DUP4 PUSH2 0x3B64 JUMP JUMPDEST SWAP2 POP DUP4 DUP4 DUP3 DUP2 DUP2 LT PUSH2 0x14A7 JUMPI PUSH2 0x14A7 PUSH2 0x3C1C JUMP JUMPDEST SWAP1 POP PUSH1 0x20 MUL ADD CALLDATALOAD CALLER PUSH1 0x1 PUSH1 0x1 PUSH1 0xA0 SHL SUB AND PUSH32 0x34FCBAC0073D7C3D388E51312FAF357774904998EEB8FCA628B9E6F65EE1CBF7 PUSH1 0x6 SLOAD PUSH1 0x40 MLOAD PUSH2 0x14EB SWAP2 DUP2 MSTORE PUSH1 0x20 ADD SWAP1 JUMP JUMPDEST PUSH1 0x40 MLOAD DUP1 SWAP2 SUB SWAP1 LOG3 DUP1 PUSH2 0x14FD DUP2 PUSH2 0x3BBF JUMP JUMPDEST SWAP2 POP POP PUSH2 0x1264 JUMP JUMPDEST POP PUSH2 0x1525 PUSH20 0xB2D7B35539A543BBE4C74965488FFE33C6721F0D CALLER DUP4 PUSH2 0x2BBB JUMP JUMPDEST POP POP PUSH1 0x1 DUP1 SSTORE POP JUMP JUMPDEST PUSH2 0x1536 PUSH2 0xEE8 JUMP JUMPDEST PUSH2 0x1552 JUMPI PUSH1 0x40 MLOAD PUSH3 0x461BCD PUSH1 0xE5 SHL DUP2 MSTORE PUSH1 0x4 ADD PUSH2 0x85D SWAP1 PUSH2 0x37E9 JUMP JUMPDEST PUSH1 0x2 SLOAD PUSH1 0x1 PUSH1 0x1 PUSH1 0xA0 SHL SUB AND CALLER EQ PUSH2 0x157C JUMPI PUSH1 0x40 MLOAD PUSH3 0x461BCD PUSH1 0xE5 SHL DUP2 MSTORE PUSH1 0x4 ADD PUSH2 0x85D SWAP1 PUSH2 0x3A26 JUMP JUMPDEST DUP1 PUSH2 0x15C1 JUMPI PUSH1 0x40 MLOAD PUSH3 0x461BCD PUSH1 0xE5 SHL DUP2 MSTORE PUSH1 0x20 PUSH1 0x4 DUP3 ADD MSTORE PUSH1 0x15 PUSH1 0x24 DUP3 ADD MSTORE PUSH21 0x4D757374206265207375706572696F7220746F203 PUSH1 0x5C SHL PUSH1 0x44 DUP3 ADD MSTORE PUSH1 0x64 ADD PUSH2 0x85D JUMP JUMPDEST PUSH1 0x6 DUP2 SWAP1 SSTORE PUSH1 0x8 SLOAD PUSH1 0x40 MLOAD DUP3 DUP2 MSTORE PUSH32 0x90EB87C560A0213754CEB3A7FA3012F01ACAB0A35602C1E1995ADF69DABC9D50 SWAP1 PUSH1 0x20 ADD PUSH1 0x40 MLOAD DUP1 SWAP2 SUB SWAP1 LOG2 POP JUMP JUMPDEST CALLER PUSH2 0x1608 PUSH2 0x1CE8 JUMP JUMPDEST PUSH1 0x1 PUSH1 0x1 PUSH1 0xA0 SHL SUB AND EQ PUSH2 0x162E JUMPI PUSH1 0x40 MLOAD PUSH3 0x461BCD PUSH1 0xE5 SHL DUP2 MSTORE PUSH1 0x4 ADD PUSH2 0x85D SWAP1 PUSH2 0x3902 JUMP JUMPDEST PUSH1 0x1 PUSH1 0x1 PUSH1 0xA0 SHL SUB DUP2 AND PUSH2 0x1654 JUMPI PUSH1 0x40 MLOAD PUSH3 0x461BCD PUSH1 0xE5 SHL DUP2 MSTORE PUSH1 0x4 ADD PUSH2 0x85D SWAP1 PUSH2 0x389E JUMP JUMPDEST PUSH1 0x2 DUP1 SLOAD PUSH1 0x1 PUSH1 0x1 PUSH1 0xA0 SHL SUB NOT AND PUSH1 0x1 PUSH1 0x1 PUSH1 0xA0 SHL SUB DUP4 AND OR SWAP1 SSTORE PUSH1 0x40 MLOAD PUSH32 0x137B621413925496477D46E5055AC0D56178BDD724BA8BF843AFCEEF18268BA3 SWAP1 PUSH2 0x169F SWAP1 DUP4 SWAP1 PUSH2 0x36B1 JUMP JUMPDEST PUSH1 0x40 MLOAD DUP1 SWAP2 SUB SWAP1 LOG1 POP JUMP JUMPDEST CALLER PUSH2 0x16B3 PUSH2 0x1CE8 JUMP JUMPDEST PUSH1 0x1 PUSH1 0x1 PUSH1 0xA0 SHL SUB AND EQ PUSH2 0x16D9 JUMPI PUSH1 0x40 MLOAD PUSH3 0x461BCD PUSH1 0xE5 SHL DUP2 MSTORE PUSH1 0x4 ADD PUSH2 0x85D SWAP1 PUSH2 0x3902 JUMP JUMPDEST PUSH2 0xEE6 PUSH1 0x0 PUSH2 0x2BEB JUMP JUMPDEST PUSH2 0x16EB PUSH2 0xEE8 JUMP JUMPDEST ISZERO PUSH2 0x1708 JUMPI PUSH1 0x40 MLOAD PUSH3 0x461BCD PUSH1 0xE5 SHL DUP2 MSTORE PUSH1 0x4 ADD PUSH2 0x85D SWAP1 PUSH2 0x3874 JUMP JUMPDEST PUSH1 0x3 SLOAD PUSH1 0x1 PUSH1 0x1 PUSH1 0xA0 SHL SUB AND CALLER EQ PUSH2 0x1732 JUMPI PUSH1 0x40 MLOAD PUSH3 0x461BCD PUSH1 0xE5 SHL DUP2 MSTORE PUSH1 0x4 ADD PUSH2 0x85D SWAP1 PUSH2 0x3A00 JUMP JUMPDEST PUSH2 0x173A PUSH2 0x2C3B JUMP JUMPDEST PUSH1 0xC PUSH1 0x0 PUSH1 0x8 SLOAD DUP2 MSTORE PUSH1 0x20 ADD SWAP1 DUP2 MSTORE PUSH1 0x20 ADD PUSH1 0x0 KECCAK256 PUSH1 0x3 ADD SLOAD PUSH1 0x7 PUSH1 0x0 DUP3 DUP3 SLOAD PUSH2 0x1764 SWAP2 SWAP1 PUSH2 0x3B64 JUMP JUMPDEST SWAP1 SWAP2 SSTORE POP POP JUMP JUMPDEST PUSH2 0x1773 PUSH2 0xEE8 JUMP JUMPDEST PUSH2 0x178F JUMPI PUSH1 0x40 MLOAD PUSH3 0x461BCD PUSH1 0xE5 SHL DUP2 MSTORE PUSH1 0x4 ADD PUSH2 0x85D SWAP1 PUSH2 0x37E9 JUMP JUMPDEST PUSH1 0x2 SLOAD PUSH1 0x1 PUSH1 0x1 PUSH1 0xA0 SHL SUB AND CALLER EQ PUSH2 0x17B9 JUMPI PUSH1 0x40 MLOAD PUSH3 0x461BCD PUSH1 0xE5 SHL DUP2 MSTORE PUSH1 0x4 ADD PUSH2 0x85D SWAP1 PUSH2 0x3A26 JUMP JUMPDEST PUSH1 0x0 JUMPDEST DUP3 MLOAD DUP2 LT ISZERO PUSH2 0x11F5 JUMPI PUSH1 0x0 PUSH1 0x1 PUSH1 0x1 PUSH1 0xA0 SHL SUB AND DUP3 DUP3 DUP2 MLOAD DUP2 LT PUSH2 0x17E2 JUMPI PUSH2 0x17E2 PUSH2 0x3C1C JUMP JUMPDEST PUSH1 0x20 MUL PUSH1 0x20 ADD ADD MLOAD PUSH1 0x1 PUSH1 0x1 PUSH1 0xA0 SHL SUB AND EQ ISZERO PUSH2 0x1811 JUMPI PUSH1 0x40 MLOAD PUSH3 0x461BCD PUSH1 0xE5 SHL DUP2 MSTORE PUSH1 0x4 ADD PUSH2 0x85D SWAP1 PUSH2 0x389E JUMP JUMPDEST PUSH1 0x0 PUSH1 0x1 PUSH1 0x1 PUSH1 0xA0 SHL SUB AND PUSH1 0xE PUSH1 0x0 DUP6 DUP5 DUP2 MLOAD DUP2 LT PUSH2 0x1832 JUMPI PUSH2 0x1832 PUSH2 0x3C1C JUMP JUMPDEST PUSH1 0x20 SWAP1 DUP2 MUL SWAP2 SWAP1 SWAP2 ADD DUP2 ADD MLOAD PUSH1 0x1 PUSH1 0x1 PUSH1 0xA0 SHL SUB SWAP1 DUP2 AND DUP4 MSTORE SWAP1 DUP3 ADD SWAP3 SWAP1 SWAP3 MSTORE PUSH1 0x40 ADD PUSH1 0x0 KECCAK256 SLOAD AND EQ ISZERO PUSH2 0x1878 JUMPI PUSH1 0x40 MLOAD PUSH3 0x461BCD PUSH1 0xE5 SHL DUP2 MSTORE PUSH1 0x4 ADD PUSH2 0x85D SWAP1 PUSH2 0x3845 JUMP JUMPDEST DUP2 DUP2 DUP2 MLOAD DUP2 LT PUSH2 0x188A JUMPI PUSH2 0x188A PUSH2 0x3C1C JUMP JUMPDEST PUSH1 0x20 MUL PUSH1 0x20 ADD ADD MLOAD PUSH1 0xE PUSH1 0x0 DUP6 DUP5 DUP2 MLOAD DUP2 LT PUSH2 0x18A8 JUMPI PUSH2 0x18A8 PUSH2 0x3C1C JUMP JUMPDEST PUSH1 0x20 MUL PUSH1 0x20 ADD ADD MLOAD PUSH1 0x1 PUSH1 0x1 PUSH1 0xA0 SHL SUB AND PUSH1 0x1 PUSH1 0x1 PUSH1 0xA0 SHL SUB AND DUP2 MSTORE PUSH1 0x20 ADD SWAP1 DUP2 MSTORE PUSH1 0x20 ADD PUSH1 0x0 KECCAK256 PUSH1 0x0 PUSH2 0x100 EXP DUP2 SLOAD DUP2 PUSH1 0x1 PUSH1 0x1 PUSH1 0xA0 SHL SUB MUL NOT AND SWAP1 DUP4 PUSH1 0x1 PUSH1 0x1 PUSH1 0xA0 SHL SUB AND MUL OR SWAP1 SSTORE POP PUSH1 0xE PUSH1 0x0 DUP5 DUP4 DUP2 MLOAD DUP2 LT PUSH2 0x190A JUMPI PUSH2 0x190A PUSH2 0x3C1C JUMP JUMPDEST PUSH1 0x20 MUL PUSH1 0x20 ADD ADD MLOAD PUSH1 0x1 PUSH1 0x1 PUSH1 0xA0 SHL SUB AND PUSH1 0x1 PUSH1 0x1 PUSH1 0xA0 SHL SUB AND DUP2 MSTORE PUSH1 0x20 ADD SWAP1 DUP2 MSTORE PUSH1 0x20 ADD PUSH1 0x0 KECCAK256 PUSH1 0x0 SWAP1 SLOAD SWAP1 PUSH2 0x100 EXP SWAP1 DIV PUSH1 0x1 PUSH1 0x1 PUSH1 0xA0 SHL SUB AND PUSH1 0x1 PUSH1 0x1 PUSH1 0xA0 SHL SUB AND PUSH4 0xFEAF968C PUSH1 0x40 MLOAD DUP2 PUSH4 0xFFFFFFFF AND PUSH1 0xE0 SHL DUP2 MSTORE PUSH1 0x4 ADD PUSH1 0xA0 PUSH1 0x40 MLOAD DUP1 DUP4 SUB DUP2 DUP7 DUP1 EXTCODESIZE ISZERO DUP1 ISZERO PUSH2 0x197E JUMPI PUSH1 0x0 DUP1 REVERT JUMPDEST POP GAS STATICCALL ISZERO DUP1 ISZERO PUSH2 0x1992 JUMPI RETURNDATASIZE PUSH1 0x0 DUP1 RETURNDATACOPY RETURNDATASIZE PUSH1 0x0 REVERT JUMPDEST POP POP POP POP PUSH1 0x40 MLOAD RETURNDATASIZE PUSH1 0x1F NOT PUSH1 0x1F DUP3 ADD AND DUP3 ADD DUP1 PUSH1 0x40 MSTORE POP DUP2 ADD SWAP1 PUSH2 0x19B6 SWAP2 SWAP1 PUSH2 0x35AF JUMP JUMPDEST POP POP POP POP POP PUSH32 0x8763B8C90C5DB415D7B7F0E18EC87EDA82E24E52E2EA8135D44E17DB46D85BB DUP3 DUP3 DUP2 MLOAD DUP2 LT PUSH2 0x19EE JUMPI PUSH2 0x19EE PUSH2 0x3C1C JUMP JUMPDEST PUSH1 0x20 MUL PUSH1 0x20 ADD ADD MLOAD DUP5 DUP4 DUP2 MLOAD DUP2 LT PUSH2 0x1A08 JUMPI PUSH2 0x1A08 PUSH2 0x3C1C JUMP JUMPDEST PUSH1 0x20 MUL PUSH1 0x20 ADD ADD MLOAD PUSH1 0x40 MLOAD PUSH2 0x1A1E SWAP3 SWAP2 SWAP1 PUSH2 0x36C5 JUMP JUMPDEST PUSH1 0x40 MLOAD DUP1 SWAP2 SUB SWAP1 LOG1 DUP1 PUSH2 0x1A30 DUP2 PUSH2 0x3BBF JUMP JUMPDEST SWAP2 POP POP PUSH2 0x17BC JUMP JUMPDEST PUSH1 0x0 DUP3 DUP2 MSTORE PUSH1 0xB PUSH1 0x20 SWAP1 DUP2 MSTORE PUSH1 0x40 DUP1 DUP4 KECCAK256 PUSH1 0x1 PUSH1 0x1 PUSH1 0xA0 SHL SUB DUP6 AND DUP5 MSTORE SWAP1 SWAP2 MSTORE DUP1 DUP3 KECCAK256 DUP2 MLOAD PUSH1 0x80 DUP2 ADD SWAP1 SWAP3 MSTORE DUP1 SLOAD DUP4 SWAP3 SWAP2 SWAP1 DUP3 SWAP1 PUSH1 0xFF AND PUSH1 0x1 DUP2 GT ISZERO PUSH2 0x1A80 JUMPI PUSH2 0x1A80 PUSH2 0x3BF0 JUMP JUMPDEST PUSH1 0x1 DUP2 GT ISZERO PUSH2 0x1A91 JUMPI PUSH2 0x1A91 PUSH2 0x3BF0 JUMP JUMPDEST DUP2 MSTORE DUP2 SLOAD PUSH2 0x100 SWAP1 DIV PUSH1 0x1 PUSH1 0x1 PUSH1 0xA0 SHL SUB AND PUSH1 0x20 DUP1 DUP4 ADD SWAP2 SWAP1 SWAP2 MSTORE PUSH1 0x1 DUP4 ADD SLOAD PUSH1 0x40 DUP1 DUP5 ADD SWAP2 SWAP1 SWAP2 MSTORE PUSH1 0x2 SWAP1 SWAP4 ADD SLOAD PUSH1 0xFF SWAP1 DUP2 AND ISZERO ISZERO PUSH1 0x60 SWAP1 SWAP4 ADD SWAP3 SWAP1 SWAP3 MSTORE PUSH1 0x0 DUP9 DUP2 MSTORE PUSH1 0xC SWAP1 SWAP2 MSTORE SWAP2 SWAP1 SWAP2 KECCAK256 PUSH1 0x4 DUP2 ADD SLOAD SWAP3 SWAP4 POP SWAP2 AND ISZERO DUP1 ISZERO PUSH2 0x1AF7 JUMPI POP DUP2 PUSH1 0x60 ADD MLOAD ISZERO JUMPDEST DUP1 ISZERO PUSH2 0x1B13 JUMPI POP PUSH1 0x4 SLOAD DUP2 PUSH1 0x2 ADD SLOAD PUSH2 0x1B10 SWAP2 SWAP1 PUSH2 0x3B64 JUMP JUMPDEST TIMESTAMP GT JUMPDEST DUP1 ISZERO PUSH2 0x1B22 JUMPI POP PUSH1 0x40 DUP3 ADD MLOAD ISZERO ISZERO JUMPDEST SWAP6 SWAP5 POP POP POP POP POP JUMP JUMPDEST PUSH2 0x1B33 PUSH2 0xEE8 JUMP JUMPDEST ISZERO PUSH2 0x1B50 JUMPI PUSH1 0x40 MLOAD PUSH3 0x461BCD PUSH1 0xE5 SHL DUP2 MSTORE PUSH1 0x4 ADD PUSH2 0x85D SWAP1 PUSH2 0x3874 JUMP JUMPDEST PUSH1 0x2 SLOAD PUSH1 0x1 PUSH1 0x1 PUSH1 0xA0 SHL SUB AND CALLER EQ DUP1 PUSH2 0x1B73 JUMPI POP PUSH1 0x3 SLOAD PUSH1 0x1 PUSH1 0x1 PUSH1 0xA0 SHL SUB AND CALLER EQ JUMPDEST PUSH2 0x1BB4 JUMPI PUSH1 0x40 MLOAD PUSH3 0x461BCD PUSH1 0xE5 SHL DUP2 MSTORE PUSH1 0x20 PUSH1 0x4 DUP3 ADD MSTORE PUSH1 0x12 PUSH1 0x24 DUP3 ADD MSTORE PUSH18 0x2737BA1037B832B930BA37B917B0B236B4B7 PUSH1 0x71 SHL PUSH1 0x44 DUP3 ADD MSTORE PUSH1 0x64 ADD PUSH2 0x85D JUMP JUMPDEST PUSH2 0x1BBC PUSH2 0x2DAC JUMP JUMPDEST PUSH1 0x8 SLOAD PUSH1 0x40 MLOAD PUSH32 0x68B095021B1F40FE513109F513C66692F0B3219AEE674A69F4EFC57BADB8201D SWAP1 PUSH1 0x0 SWAP1 LOG2 JUMP JUMPDEST PUSH2 0x1BF2 PUSH2 0xEE8 JUMP JUMPDEST PUSH2 0x1C0E JUMPI PUSH1 0x40 MLOAD PUSH3 0x461BCD PUSH1 0xE5 SHL DUP2 MSTORE PUSH1 0x4 ADD PUSH2 0x85D SWAP1 PUSH2 0x37E9 JUMP JUMPDEST PUSH1 0x2 SLOAD PUSH1 0x1 PUSH1 0x1 PUSH1 0xA0 SHL SUB AND CALLER EQ PUSH2 0x1C38 JUMPI PUSH1 0x40 MLOAD PUSH3 0x461BCD PUSH1 0xE5 SHL DUP2 MSTORE PUSH1 0x4 ADD PUSH2 0x85D SWAP1 PUSH2 0x3A26 JUMP JUMPDEST DUP1 DUP3 LT PUSH2 0x1CA1 JUMPI PUSH1 0x40 MLOAD PUSH3 0x461BCD PUSH1 0xE5 SHL DUP2 MSTORE PUSH1 0x20 PUSH1 0x4 DUP3 ADD MSTORE PUSH1 0x31 PUSH1 0x24 DUP3 ADD MSTORE PUSH32 0x6275666665725365636F6E6473206D75737420626520696E666572696F722074 PUSH1 0x44 DUP3 ADD MSTORE PUSH17 0x6F20696E74657276616C5365636F6E6473 PUSH1 0x78 SHL PUSH1 0x64 DUP3 ADD MSTORE PUSH1 0x84 ADD PUSH2 0x85D JUMP JUMPDEST PUSH1 0x4 DUP3 SWAP1 SSTORE PUSH1 0x5 DUP2 SWAP1 SSTORE PUSH1 0x40 DUP1 MLOAD DUP4 DUP2 MSTORE PUSH1 0x20 DUP2 ADD DUP4 SWAP1 MSTORE PUSH32 0xE60149E0431FEC12DF63DFAB5FCE2A9CEFE9A4D3DF5F41CB626F579AE1F2B91A SWAP2 ADD PUSH1 0x40 MLOAD DUP1 SWAP2 SUB SWAP1 LOG1 POP POP JUMP JUMPDEST PUSH1 0x0 SLOAD PUSH1 0x1 PUSH1 0x1 PUSH1 0xA0 SHL SUB AND SWAP1 JUMP JUMPDEST PUSH1 0x0 DUP2 DUP2 MSTORE PUSH1 0xC PUSH1 0x20 MSTORE PUSH1 0x40 SWAP1 KECCAK256 PUSH1 0x1 DUP2 ADD SLOAD PUSH1 0x2 DUP3 ADD SLOAD PUSH1 0x3 DUP4 ADD SLOAD PUSH1 0x4 DUP5 ADD SLOAD DUP6 SWAP5 PUSH1 0xFF SWAP1 SWAP2 AND SWAP1 PUSH1 0x60 SWAP1 DUP2 SWAP1 DUP2 SWAP1 DUP2 SWAP1 DUP2 SWAP1 PUSH2 0x1D34 PUSH2 0x221E JUMP JUMPDEST SWAP6 POP DUP6 MLOAD PUSH1 0x1 PUSH1 0x1 PUSH1 0x40 SHL SUB DUP2 GT ISZERO PUSH2 0x1D4F JUMPI PUSH2 0x1D4F PUSH2 0x3C32 JUMP JUMPDEST PUSH1 0x40 MLOAD SWAP1 DUP1 DUP3 MSTORE DUP1 PUSH1 0x20 MUL PUSH1 0x20 ADD DUP3 ADD PUSH1 0x40 MSTORE DUP1 ISZERO PUSH2 0x1D78 JUMPI DUP2 PUSH1 0x20 ADD PUSH1 0x20 DUP3 MUL DUP1 CALLDATASIZE DUP4 CALLDATACOPY ADD SWAP1 POP JUMPDEST POP SWAP5 POP DUP6 MLOAD PUSH1 0x1 PUSH1 0x1 PUSH1 0x40 SHL SUB DUP2 GT ISZERO PUSH2 0x1D94 JUMPI PUSH2 0x1D94 PUSH2 0x3C32 JUMP JUMPDEST PUSH1 0x40 MLOAD SWAP1 DUP1 DUP3 MSTORE DUP1 PUSH1 0x20 MUL PUSH1 0x20 ADD DUP3 ADD PUSH1 0x40 MSTORE DUP1 ISZERO PUSH2 0x1DBD JUMPI DUP2 PUSH1 0x20 ADD PUSH1 0x20 DUP3 MUL DUP1 CALLDATASIZE DUP4 CALLDATACOPY ADD SWAP1 POP JUMPDEST POP SWAP4 POP DUP6 MLOAD PUSH1 0x1 PUSH1 0x1 PUSH1 0x40 SHL SUB DUP2 GT ISZERO PUSH2 0x1DD9 JUMPI PUSH2 0x1DD9 PUSH2 0x3C32 JUMP JUMPDEST PUSH1 0x40 MLOAD SWAP1 DUP1 DUP3 MSTORE DUP1 PUSH1 0x20 MUL PUSH1 0x20 ADD DUP3 ADD PUSH1 0x40 MSTORE DUP1 ISZERO PUSH2 0x1E02 JUMPI DUP2 PUSH1 0x20 ADD PUSH1 0x20 DUP3 MUL DUP1 CALLDATASIZE DUP4 CALLDATACOPY ADD SWAP1 POP JUMPDEST POP SWAP3 POP DUP6 MLOAD PUSH1 0x1 PUSH1 0x1 PUSH1 0x40 SHL SUB DUP2 GT ISZERO PUSH2 0x1E1E JUMPI PUSH2 0x1E1E PUSH2 0x3C32 JUMP JUMPDEST PUSH1 0x40 MLOAD SWAP1 DUP1 DUP3 MSTORE DUP1 PUSH1 0x20 MUL PUSH1 0x20 ADD DUP3 ADD PUSH1 0x40 MSTORE DUP1 ISZERO PUSH2 0x1E47 JUMPI DUP2 PUSH1 0x20 ADD PUSH1 0x20 DUP3 MUL DUP1 CALLDATASIZE DUP4 CALLDATACOPY ADD SWAP1 POP JUMPDEST POP SWAP2 POP PUSH1 0x0 JUMPDEST DUP7 MLOAD DUP2 LT ISZERO PUSH2 0x1F9E JUMPI PUSH1 0x0 DUP8 DUP3 DUP2 MLOAD DUP2 LT PUSH2 0x1E6A JUMPI PUSH2 0x1E6A PUSH2 0x3C1C JUMP JUMPDEST PUSH1 0x20 MUL PUSH1 0x20 ADD ADD MLOAD SWAP1 POP DUP3 PUSH1 0x7 ADD PUSH1 0x0 DUP3 PUSH1 0x1 PUSH1 0x1 PUSH1 0xA0 SHL SUB AND PUSH1 0x1 PUSH1 0x1 PUSH1 0xA0 SHL SUB AND DUP2 MSTORE PUSH1 0x20 ADD SWAP1 DUP2 MSTORE PUSH1 0x20 ADD PUSH1 0x0 KECCAK256 SLOAD DUP8 DUP4 DUP2 MLOAD DUP2 LT PUSH2 0x1EAE JUMPI PUSH2 0x1EAE PUSH2 0x3C1C JUMP JUMPDEST PUSH1 0x20 MUL PUSH1 0x20 ADD ADD DUP2 DUP2 MSTORE POP POP DUP3 PUSH1 0x8 ADD PUSH1 0x0 DUP3 PUSH1 0x1 PUSH1 0x1 PUSH1 0xA0 SHL SUB AND PUSH1 0x1 PUSH1 0x1 PUSH1 0xA0 SHL SUB AND DUP2 MSTORE PUSH1 0x20 ADD SWAP1 DUP2 MSTORE PUSH1 0x20 ADD PUSH1 0x0 KECCAK256 SLOAD DUP7 DUP4 DUP2 MLOAD DUP2 LT PUSH2 0x1EF4 JUMPI PUSH2 0x1EF4 PUSH2 0x3C1C JUMP JUMPDEST PUSH1 0x20 MUL PUSH1 0x20 ADD ADD DUP2 DUP2 MSTORE POP POP DUP3 PUSH1 0x5 ADD PUSH1 0x0 DUP3 PUSH1 0x1 PUSH1 0x1 PUSH1 0xA0 SHL SUB AND PUSH1 0x1 PUSH1 0x1 PUSH1 0xA0 SHL SUB AND DUP2 MSTORE PUSH1 0x20 ADD SWAP1 DUP2 MSTORE PUSH1 0x20 ADD PUSH1 0x0 KECCAK256 SLOAD DUP6 DUP4 DUP2 MLOAD DUP2 LT PUSH2 0x1F3A JUMPI PUSH2 0x1F3A PUSH2 0x3C1C JUMP JUMPDEST PUSH1 0x20 MUL PUSH1 0x20 ADD ADD DUP2 DUP2 MSTORE POP POP DUP3 PUSH1 0x6 ADD PUSH1 0x0 DUP3 PUSH1 0x1 PUSH1 0x1 PUSH1 0xA0 SHL SUB AND PUSH1 0x1 PUSH1 0x1 PUSH1 0xA0 SHL SUB AND DUP2 MSTORE PUSH1 0x20 ADD SWAP1 DUP2 MSTORE PUSH1 0x20 ADD PUSH1 0x0 KECCAK256 SLOAD DUP5 DUP4 DUP2 MLOAD DUP2 LT PUSH2 0x1F80 JUMPI PUSH2 0x1F80 PUSH2 0x3C1C JUMP JUMPDEST PUSH1 0x20 SWAP1 DUP2 MUL SWAP2 SWAP1 SWAP2 ADD ADD MSTORE POP DUP1 PUSH2 0x1F96 DUP2 PUSH2 0x3BBF JUMP JUMPDEST SWAP2 POP POP PUSH2 0x1E4D JUMP JUMPDEST POP POP SWAP2 SWAP4 SWAP6 SWAP8 SWAP10 POP SWAP2 SWAP4 SWAP6 SWAP8 SWAP10 JUMP JUMPDEST PUSH1 0x1 PUSH1 0x1 PUSH1 0xA0 SHL SUB DUP4 AND PUSH1 0x0 SWAP1 DUP2 MSTORE PUSH1 0xD PUSH1 0x20 MSTORE PUSH1 0x40 DUP2 KECCAK256 SLOAD PUSH1 0x60 SWAP2 DUP3 SWAP2 DUP5 SWAP1 PUSH2 0x1FD8 SWAP1 DUP8 SWAP1 PUSH2 0x3B7C JUMP JUMPDEST DUP2 GT ISZERO PUSH2 0x2006 JUMPI PUSH1 0x1 PUSH1 0x1 PUSH1 0xA0 SHL SUB DUP8 AND PUSH1 0x0 SWAP1 DUP2 MSTORE PUSH1 0xD PUSH1 0x20 MSTORE PUSH1 0x40 SWAP1 KECCAK256 SLOAD PUSH2 0x2003 SWAP1 DUP8 SWAP1 PUSH2 0x3B7C JUMP JUMPDEST SWAP1 POP JUMPDEST PUSH1 0x0 DUP2 PUSH1 0x1 PUSH1 0x1 PUSH1 0x40 SHL SUB DUP2 GT ISZERO PUSH2 0x2020 JUMPI PUSH2 0x2020 PUSH2 0x3C32 JUMP JUMPDEST PUSH1 0x40 MLOAD SWAP1 DUP1 DUP3 MSTORE DUP1 PUSH1 0x20 MUL PUSH1 0x20 ADD DUP3 ADD PUSH1 0x40 MSTORE DUP1 ISZERO PUSH2 0x2049 JUMPI DUP2 PUSH1 0x20 ADD PUSH1 0x20 DUP3 MUL DUP1 CALLDATASIZE DUP4 CALLDATACOPY ADD SWAP1 POP JUMPDEST POP SWAP1 POP PUSH1 0x0 DUP3 PUSH1 0x1 PUSH1 0x1 PUSH1 0x40 SHL SUB DUP2 GT ISZERO PUSH2 0x2066 JUMPI PUSH2 0x2066 PUSH2 0x3C32 JUMP JUMPDEST PUSH1 0x40 MLOAD SWAP1 DUP1 DUP3 MSTORE DUP1 PUSH1 0x20 MUL PUSH1 0x20 ADD DUP3 ADD PUSH1 0x40 MSTORE DUP1 ISZERO PUSH2 0x20B8 JUMPI DUP2 PUSH1 0x20 ADD JUMPDEST PUSH1 0x40 DUP1 MLOAD PUSH1 0x80 DUP2 ADD DUP3 MSTORE PUSH1 0x0 DUP1 DUP3 MSTORE PUSH1 0x20 DUP1 DUP4 ADD DUP3 SWAP1 MSTORE SWAP3 DUP3 ADD DUP2 SWAP1 MSTORE PUSH1 0x60 DUP3 ADD MSTORE DUP3 MSTORE PUSH1 0x0 NOT SWAP1 SWAP3 ADD SWAP2 ADD DUP2 PUSH2 0x2084 JUMPI SWAP1 POP JUMPDEST POP SWAP1 POP PUSH1 0x0 JUMPDEST DUP4 DUP2 LT ISZERO PUSH2 0x21FF JUMPI PUSH1 0x1 PUSH1 0x1 PUSH1 0xA0 SHL SUB DUP11 AND PUSH1 0x0 SWAP1 DUP2 MSTORE PUSH1 0xD PUSH1 0x20 MSTORE PUSH1 0x40 SWAP1 KECCAK256 PUSH2 0x20E8 DUP3 DUP12 PUSH2 0x3B64 JUMP JUMPDEST DUP2 SLOAD DUP2 LT PUSH2 0x20F8 JUMPI PUSH2 0x20F8 PUSH2 0x3C1C JUMP JUMPDEST SWAP1 PUSH1 0x0 MSTORE PUSH1 0x20 PUSH1 0x0 KECCAK256 ADD SLOAD DUP4 DUP3 DUP2 MLOAD DUP2 LT PUSH2 0x2115 JUMPI PUSH2 0x2115 PUSH2 0x3C1C JUMP JUMPDEST PUSH1 0x20 MUL PUSH1 0x20 ADD ADD DUP2 DUP2 MSTORE POP POP PUSH1 0xB PUSH1 0x0 DUP5 DUP4 DUP2 MLOAD DUP2 LT PUSH2 0x2137 JUMPI PUSH2 0x2137 PUSH2 0x3C1C JUMP JUMPDEST PUSH1 0x20 SWAP1 DUP2 MUL SWAP2 SWAP1 SWAP2 ADD DUP2 ADD MLOAD DUP3 MSTORE DUP2 DUP2 ADD SWAP3 SWAP1 SWAP3 MSTORE PUSH1 0x40 SWAP1 DUP2 ADD PUSH1 0x0 SWAP1 DUP2 KECCAK256 PUSH1 0x1 PUSH1 0x1 PUSH1 0xA0 SHL SUB DUP15 AND DUP3 MSTORE SWAP1 SWAP3 MSTORE SWAP1 DUP2 SWAP1 KECCAK256 DUP2 MLOAD PUSH1 0x80 DUP2 ADD SWAP1 SWAP3 MSTORE DUP1 SLOAD DUP3 SWAP1 PUSH1 0xFF AND PUSH1 0x1 DUP2 GT ISZERO PUSH2 0x218A JUMPI PUSH2 0x218A PUSH2 0x3BF0 JUMP JUMPDEST PUSH1 0x1 DUP2 GT ISZERO PUSH2 0x219B JUMPI PUSH2 0x219B PUSH2 0x3BF0 JUMP JUMPDEST DUP2 MSTORE DUP2 SLOAD PUSH2 0x100 SWAP1 DIV PUSH1 0x1 PUSH1 0x1 PUSH1 0xA0 SHL SUB AND PUSH1 0x20 DUP3 ADD MSTORE PUSH1 0x1 DUP3 ADD SLOAD PUSH1 0x40 DUP3 ADD MSTORE PUSH1 0x2 SWAP1 SWAP2 ADD SLOAD PUSH1 0xFF AND ISZERO ISZERO PUSH1 0x60 SWAP1 SWAP2 ADD MSTORE DUP3 MLOAD DUP4 SWAP1 DUP4 SWAP1 DUP2 LT PUSH2 0x21E1 JUMPI PUSH2 0x21E1 PUSH2 0x3C1C JUMP JUMPDEST PUSH1 0x20 MUL PUSH1 0x20 ADD ADD DUP2 SWAP1 MSTORE POP DUP1 DUP1 PUSH2 0x21F7 SWAP1 PUSH2 0x3BBF JUMP JUMPDEST SWAP2 POP POP PUSH2 0x20BE JUMP JUMPDEST POP DUP2 DUP2 PUSH2 0x220C DUP6 DUP12 PUSH2 0x3B64 JUMP JUMPDEST SWAP6 POP SWAP6 POP SWAP6 POP POP POP POP SWAP4 POP SWAP4 POP SWAP4 SWAP1 POP JUMP JUMPDEST PUSH1 0x60 PUSH1 0xF DUP1 SLOAD DUP1 PUSH1 0x20 MUL PUSH1 0x20 ADD PUSH1 0x40 MLOAD SWAP1 DUP2 ADD PUSH1 0x40 MSTORE DUP1 SWAP3 SWAP2 SWAP1 DUP2 DUP2 MSTORE PUSH1 0x20 ADD DUP3 DUP1 SLOAD DUP1 ISZERO PUSH2 0x2276 JUMPI PUSH1 0x20 MUL DUP3 ADD SWAP2 SWAP1 PUSH1 0x0 MSTORE PUSH1 0x20 PUSH1 0x0 KECCAK256 SWAP1 JUMPDEST DUP2 SLOAD PUSH1 0x1 PUSH1 0x1 PUSH1 0xA0 SHL SUB AND DUP2 MSTORE PUSH1 0x1 SWAP1 SWAP2 ADD SWAP1 PUSH1 0x20 ADD DUP1 DUP4 GT PUSH2 0x2258 JUMPI JUMPDEST POP POP POP POP POP SWAP1 POP SWAP1 JUMP JUMPDEST CALLER PUSH2 0x2289 PUSH2 0x1CE8 JUMP JUMPDEST PUSH1 0x1 PUSH1 0x1 PUSH1 0xA0 SHL SUB AND EQ PUSH2 0x22AF JUMPI PUSH1 0x40 MLOAD PUSH3 0x461BCD PUSH1 0xE5 SHL DUP2 MSTORE PUSH1 0x4 ADD PUSH2 0x85D SWAP1 PUSH2 0x3902 JUMP JUMPDEST PUSH1 0x1 PUSH1 0x1 PUSH1 0xA0 SHL SUB DUP3 AND PUSH20 0xB2D7B35539A543BBE4C74965488FFE33C6721F0D EQ ISZERO PUSH2 0x2317 JUMPI PUSH1 0x40 MLOAD PUSH3 0x461BCD PUSH1 0xE5 SHL DUP2 MSTORE PUSH1 0x20 PUSH1 0x4 DUP3 ADD MSTORE PUSH1 0x18 PUSH1 0x24 DUP3 ADD MSTORE PUSH24 0x141C99590818D85B9B9BDD081899481C9958DBDD995C9959 PUSH1 0x42 SHL PUSH1 0x44 DUP3 ADD MSTORE PUSH1 0x64 ADD PUSH2 0x85D JUMP JUMPDEST PUSH2 0x232B PUSH1 0x1 PUSH1 0x1 PUSH1 0xA0 SHL SUB DUP4 AND CALLER DUP4 PUSH2 0x2BBB JUMP JUMPDEST DUP2 PUSH1 0x1 PUSH1 0x1 PUSH1 0xA0 SHL SUB AND PUSH32 0x14F11966A996E0629572E51064726D2057A80FBD34EFC066682C06A71DBB6E98 DUP3 PUSH1 0x40 MLOAD PUSH2 0x2366 SWAP2 DUP2 MSTORE PUSH1 0x20 ADD SWAP1 JUMP JUMPDEST PUSH1 0x40 MLOAD DUP1 SWAP2 SUB SWAP1 LOG2 POP POP JUMP JUMPDEST PUSH1 0x2 SLOAD PUSH1 0x1 PUSH1 0x1 PUSH1 0xA0 SHL SUB AND CALLER EQ PUSH2 0x239C JUMPI PUSH1 0x40 MLOAD PUSH3 0x461BCD PUSH1 0xE5 SHL DUP2 MSTORE PUSH1 0x4 ADD PUSH2 0x85D SWAP1 PUSH2 0x3A26 JUMP JUMPDEST PUSH1 0x1 PUSH1 0x1 PUSH1 0xA0 SHL SUB DUP2 AND PUSH2 0x23C2 JUMPI PUSH1 0x40 MLOAD PUSH3 0x461BCD PUSH1 0xE5 SHL DUP2 MSTORE PUSH1 0x4 ADD PUSH2 0x85D SWAP1 PUSH2 0x389E JUMP JUMPDEST PUSH1 0x3 DUP1 SLOAD PUSH1 0x1 PUSH1 0x1 PUSH1 0xA0 SHL SUB NOT AND PUSH1 0x1 PUSH1 0x1 PUSH1 0xA0 SHL SUB DUP4 AND OR SWAP1 SSTORE PUSH1 0x40 MLOAD PUSH32 0xC47D127C07BDD56C5CCBA00463CE3BD3C1BCA71B4670EEA6E5D0C02E4AA156E2 SWAP1 PUSH2 0x169F SWAP1 DUP4 SWAP1 PUSH2 0x36B1 JUMP JUMPDEST PUSH2 0x2415 PUSH2 0xEE8 JUMP JUMPDEST PUSH2 0x2431 JUMPI PUSH1 0x40 MLOAD PUSH3 0x461BCD PUSH1 0xE5 SHL DUP2 MSTORE PUSH1 0x4 ADD PUSH2 0x85D SWAP1 PUSH2 0x37E9 JUMP JUMPDEST PUSH1 0x2 SLOAD PUSH1 0x1 PUSH1 0x1 PUSH1 0xA0 SHL SUB AND CALLER EQ PUSH2 0x245B JUMPI PUSH1 0x40 MLOAD PUSH3 0x461BCD PUSH1 0xE5 SHL DUP2 MSTORE PUSH1 0x4 ADD PUSH2 0x85D SWAP1 PUSH2 0x3A26 JUMP JUMPDEST PUSH1 0xA DUP2 SWAP1 SSTORE PUSH1 0x40 MLOAD DUP2 DUP2 MSTORE PUSH32 0x93CCACEAC092FFB842C46B8718667A13A80E9058DCD0BD403D0B47215B30DA07 SWAP1 PUSH1 0x20 ADD PUSH2 0x169F JUMP JUMPDEST PUSH1 0xD PUSH1 0x20 MSTORE DUP2 PUSH1 0x0 MSTORE PUSH1 0x40 PUSH1 0x0 KECCAK256 DUP2 DUP2 SLOAD DUP2 LT PUSH2 0x24AC JUMPI PUSH1 0x0 DUP1 REVERT JUMPDEST SWAP1 PUSH1 0x0 MSTORE PUSH1 0x20 PUSH1 0x0 KECCAK256 ADD PUSH1 0x0 SWAP2 POP SWAP2 POP POP SLOAD DUP2 JUMP JUMPDEST CALLER PUSH2 0x24CA PUSH2 0x1CE8 JUMP JUMPDEST PUSH1 0x1 PUSH1 0x1 PUSH1 0xA0 SHL SUB AND EQ PUSH2 0x24F0 JUMPI PUSH1 0x40 MLOAD PUSH3 0x461BCD PUSH1 0xE5 SHL DUP2 MSTORE PUSH1 0x4 ADD PUSH2 0x85D SWAP1 PUSH2 0x3902 JUMP JUMPDEST PUSH1 0x1 PUSH1 0x1 PUSH1 0xA0 SHL SUB DUP2 AND PUSH2 0x2555 JUMPI PUSH1 0x40 MLOAD PUSH3 0x461BCD PUSH1 0xE5 SHL DUP2 MSTORE PUSH1 0x20 PUSH1 0x4 DUP3 ADD MSTORE PUSH1 0x26 PUSH1 0x24 DUP3 ADD MSTORE PUSH32 0x4F776E61626C653A206E6577206F776E657220697320746865207A65726F2061 PUSH1 0x44 DUP3 ADD MSTORE PUSH6 0x646472657373 PUSH1 0xD0 SHL PUSH1 0x64 DUP3 ADD MSTORE PUSH1 0x84 ADD PUSH2 0x85D JUMP JUMPDEST PUSH2 0x255E DUP2 PUSH2 0x2BEB JUMP JUMPDEST POP JUMP JUMPDEST PUSH2 0x2569 PUSH2 0xEE8 JUMP JUMPDEST ISZERO PUSH2 0x2586 JUMPI PUSH1 0x40 MLOAD PUSH3 0x461BCD PUSH1 0xE5 SHL DUP2 MSTORE PUSH1 0x4 ADD PUSH2 0x85D SWAP1 PUSH2 0x3874 JUMP JUMPDEST PUSH1 0x2 SLOAD PUSH1 0x1 PUSH1 0x1 PUSH1 0xA0 SHL SUB AND CALLER EQ PUSH2 0x25B0 JUMPI PUSH1 0x40 MLOAD PUSH3 0x461BCD PUSH1 0xE5 SHL DUP2 MSTORE PUSH1 0x4 ADD PUSH2 0x85D SWAP1 PUSH2 0x3A26 JUMP JUMPDEST PUSH1 0x0 JUMPDEST DUP2 MLOAD DUP2 LT ISZERO PUSH2 0x284D JUMPI PUSH1 0x0 PUSH1 0x1 PUSH1 0x1 PUSH1 0xA0 SHL SUB AND PUSH1 0xF DUP4 DUP4 DUP2 MLOAD DUP2 LT PUSH2 0x25DB JUMPI PUSH2 0x25DB PUSH2 0x3C1C JUMP JUMPDEST PUSH1 0x20 MUL PUSH1 0x20 ADD ADD MLOAD DUP2 SLOAD DUP2 LT PUSH2 0x25F3 JUMPI PUSH2 0x25F3 PUSH2 0x3C1C JUMP JUMPDEST PUSH1 0x0 SWAP2 DUP3 MSTORE PUSH1 0x20 SWAP1 SWAP2 KECCAK256 ADD SLOAD PUSH1 0x1 PUSH1 0x1 PUSH1 0xA0 SHL SUB AND EQ ISZERO PUSH2 0x2626 JUMPI PUSH1 0x40 MLOAD PUSH3 0x461BCD PUSH1 0xE5 SHL DUP2 MSTORE PUSH1 0x4 ADD PUSH2 0x85D SWAP1 PUSH2 0x3845 JUMP JUMPDEST PUSH1 0xF DUP1 SLOAD PUSH2 0x2636 SWAP1 PUSH1 0x1 SWAP1 PUSH2 0x3B7C JUMP JUMPDEST DUP2 SLOAD DUP2 LT PUSH2 0x2646 JUMPI PUSH2 0x2646 PUSH2 0x3C1C JUMP JUMPDEST SWAP1 PUSH1 0x0 MSTORE PUSH1 0x20 PUSH1 0x0 KECCAK256 ADD PUSH1 0x0 SWAP1 SLOAD SWAP1 PUSH2 0x100 EXP SWAP1 DIV PUSH1 0x1 PUSH1 0x1 PUSH1 0xA0 SHL SUB AND PUSH1 0xF DUP4 DUP4 DUP2 MLOAD DUP2 LT PUSH2 0x2678 JUMPI PUSH2 0x2678 PUSH2 0x3C1C JUMP JUMPDEST PUSH1 0x20 MUL PUSH1 0x20 ADD ADD MLOAD DUP2 SLOAD DUP2 LT PUSH2 0x2690 JUMPI PUSH2 0x2690 PUSH2 0x3C1C JUMP JUMPDEST SWAP1 PUSH1 0x0 MSTORE PUSH1 0x20 PUSH1 0x0 KECCAK256 ADD PUSH1 0x0 PUSH2 0x100 EXP DUP2 SLOAD DUP2 PUSH1 0x1 PUSH1 0x1 PUSH1 0xA0 SHL SUB MUL NOT AND SWAP1 DUP4 PUSH1 0x1 PUSH1 0x1 PUSH1 0xA0 SHL SUB AND MUL OR SWAP1 SSTORE POP PUSH1 0xF DUP1 SLOAD DUP1 PUSH2 0x26CF JUMPI PUSH2 0x26CF PUSH2 0x3C06 JUMP JUMPDEST PUSH1 0x1 SWAP1 SUB DUP2 DUP2 SWAP1 PUSH1 0x0 MSTORE PUSH1 0x20 PUSH1 0x0 KECCAK256 ADD PUSH1 0x0 PUSH2 0x100 EXP DUP2 SLOAD SWAP1 PUSH1 0x1 PUSH1 0x1 PUSH1 0xA0 SHL SUB MUL NOT AND SWAP1 SSTORE SWAP1 SSTORE PUSH1 0xE PUSH1 0x0 PUSH1 0xF DUP5 DUP5 DUP2 MLOAD DUP2 LT PUSH2 0x270F JUMPI PUSH2 0x270F PUSH2 0x3C1C JUMP JUMPDEST PUSH1 0x20 MUL PUSH1 0x20 ADD ADD MLOAD DUP2 SLOAD DUP2 LT PUSH2 0x2727 JUMPI PUSH2 0x2727 PUSH2 0x3C1C JUMP JUMPDEST PUSH1 0x0 SWAP2 DUP3 MSTORE PUSH1 0x20 DUP1 DUP4 KECCAK256 SWAP1 SWAP2 ADD SLOAD PUSH1 0x1 PUSH1 0x1 PUSH1 0xA0 SHL SUB AND DUP4 MSTORE DUP3 ADD SWAP3 SWAP1 SWAP3 MSTORE PUSH1 0x40 ADD SWAP1 KECCAK256 DUP1 SLOAD PUSH1 0x1 PUSH1 0x1 PUSH1 0xA0 SHL SUB NOT AND SWAP1 SSTORE DUP2 MLOAD PUSH32 0xBBE55B1FF108E23E5FF1A6F5D36946EEC15EC0CA0DED2BFED4CDCF697CA90460 SWAP1 PUSH1 0xF SWAP1 DUP5 SWAP1 DUP5 SWAP1 DUP2 LT PUSH2 0x2792 JUMPI PUSH2 0x2792 PUSH2 0x3C1C JUMP JUMPDEST PUSH1 0x20 MUL PUSH1 0x20 ADD ADD MLOAD DUP2 SLOAD DUP2 LT PUSH2 0x27AA JUMPI PUSH2 0x27AA PUSH2 0x3C1C JUMP JUMPDEST SWAP1 PUSH1 0x0 MSTORE PUSH1 0x20 PUSH1 0x0 KECCAK256 ADD PUSH1 0x0 SWAP1 SLOAD SWAP1 PUSH2 0x100 EXP SWAP1 DIV PUSH1 0x1 PUSH1 0x1 PUSH1 0xA0 SHL SUB AND PUSH1 0xE PUSH1 0x0 PUSH1 0xF DUP7 DUP7 DUP2 MLOAD DUP2 LT PUSH2 0x27E0 JUMPI PUSH2 0x27E0 PUSH2 0x3C1C JUMP JUMPDEST PUSH1 0x20 MUL PUSH1 0x20 ADD ADD MLOAD DUP2 SLOAD DUP2 LT PUSH2 0x27F8 JUMPI PUSH2 0x27F8 PUSH2 0x3C1C JUMP JUMPDEST PUSH1 0x0 SWAP2 DUP3 MSTORE PUSH1 0x20 DUP1 DUP4 KECCAK256 SWAP1 SWAP2 ADD SLOAD PUSH1 0x1 PUSH1 0x1 PUSH1 0xA0 SHL SUB SWAP1 DUP2 AND DUP5 MSTORE SWAP1 DUP4 ADD SWAP4 SWAP1 SWAP4 MSTORE PUSH1 0x40 SWAP2 DUP3 ADD SWAP1 KECCAK256 SLOAD SWAP1 MLOAD PUSH2 0x2833 SWAP4 SWAP3 SWAP2 SWAP1 SWAP2 AND SWAP1 PUSH2 0x36C5 JUMP JUMPDEST PUSH1 0x40 MLOAD DUP1 SWAP2 SUB SWAP1 LOG1 DUP1 PUSH2 0x2845 DUP2 PUSH2 0x3BBF JUMP JUMPDEST SWAP2 POP POP PUSH2 0x25B3 JUMP JUMPDEST POP POP JUMP JUMPDEST PUSH1 0x0 DUP2 DUP2 MSTORE PUSH1 0xC PUSH1 0x20 MSTORE PUSH1 0x40 DUP2 KECCAK256 PUSH1 0x1 ADD SLOAD ISZERO DUP1 ISZERO SWAP1 PUSH2 0x2881 JUMPI POP PUSH1 0x0 DUP3 DUP2 MSTORE PUSH1 0xC PUSH1 0x20 MSTORE PUSH1 0x40 SWAP1 KECCAK256 PUSH1 0x1 ADD SLOAD TIMESTAMP GT JUMPDEST DUP1 ISZERO PUSH2 0x28A9 JUMPI POP PUSH1 0x0 DUP3 DUP2 MSTORE PUSH1 0xC PUSH1 0x20 MSTORE PUSH1 0x40 SWAP1 KECCAK256 PUSH1 0x1 ADD SLOAD PUSH2 0x28A6 SWAP1 PUSH2 0xE10 PUSH2 0x3B64 JUMP JUMPDEST TIMESTAMP LT JUMPDEST SWAP3 SWAP2 POP POP JUMP JUMPDEST PUSH1 0x40 MLOAD PUSH1 0x1 PUSH1 0x1 PUSH1 0xA0 SHL SUB DUP1 DUP6 AND PUSH1 0x24 DUP4 ADD MSTORE DUP4 AND PUSH1 0x44 DUP3 ADD MSTORE PUSH1 0x64 DUP2 ADD DUP3 SWAP1 MSTORE PUSH2 0x291A SWAP1 DUP6 SWAP1 PUSH4 0x23B872DD PUSH1 0xE0 SHL SWAP1 PUSH1 0x84 ADD JUMPDEST PUSH1 0x40 DUP1 MLOAD PUSH1 0x1F NOT DUP2 DUP5 SUB ADD DUP2 MSTORE SWAP2 SWAP1 MSTORE PUSH1 0x20 DUP2 ADD DUP1 MLOAD PUSH1 0x1 PUSH1 0x1 PUSH1 0xE0 SHL SUB AND PUSH1 0x1 PUSH1 0x1 PUSH1 0xE0 SHL SUB NOT SWAP1 SWAP4 AND SWAP3 SWAP1 SWAP3 OR SWAP1 SWAP2 MSTORE PUSH2 0x2E0C JUMP JUMPDEST POP POP POP POP JUMP JUMPDEST PUSH2 0x2928 PUSH2 0xEE8 JUMP JUMPDEST PUSH2 0x2944 JUMPI PUSH1 0x40 MLOAD PUSH3 0x461BCD PUSH1 0xE5 SHL DUP2 MSTORE PUSH1 0x4 ADD PUSH2 0x85D SWAP1 PUSH2 0x37E9 JUMP JUMPDEST PUSH1 0x0 DUP1 SLOAD PUSH1 0xFF PUSH1 0xA0 SHL NOT AND SWAP1 SSTORE PUSH32 0x5DB9EE0A495BF2E6FF9C91A7834C1BA4FDD244A5E8AA4E537BD38AEAE4B073AA CALLER JUMPDEST PUSH1 0x40 MLOAD PUSH2 0x2981 SWAP2 SWAP1 PUSH2 0x36B1 JUMP JUMPDEST PUSH1 0x40 MLOAD DUP1 SWAP2 SUB SWAP1 LOG1 JUMP JUMPDEST PUSH1 0xC PUSH1 0x0 PUSH2 0x299A PUSH1 0x1 DUP5 PUSH2 0x3B7C JUMP JUMPDEST DUP2 MSTORE PUSH1 0x20 ADD SWAP1 DUP2 MSTORE PUSH1 0x20 ADD PUSH1 0x0 KECCAK256 PUSH1 0x2 ADD SLOAD PUSH1 0x0 EQ ISZERO PUSH2 0x2A13 JUMPI PUSH1 0x40 MLOAD PUSH3 0x461BCD PUSH1 0xE5 SHL DUP2 MSTORE PUSH1 0x20 PUSH1 0x4 DUP3 ADD MSTORE PUSH1 0x2E PUSH1 0x24 DUP3 ADD MSTORE PUSH32 0x43616E206F6E6C7920737461727420726F756E6420616674657220726F756E64 PUSH1 0x44 DUP3 ADD MSTORE PUSH14 0x81B8B4C481A185CC8195B991959 PUSH1 0x92 SHL PUSH1 0x64 DUP3 ADD MSTORE PUSH1 0x84 ADD PUSH2 0x85D JUMP JUMPDEST PUSH1 0xC PUSH1 0x0 PUSH2 0x2A22 PUSH1 0x1 DUP5 PUSH2 0x3B7C JUMP JUMPDEST DUP2 MSTORE PUSH1 0x20 ADD SWAP1 DUP2 MSTORE PUSH1 0x20 ADD PUSH1 0x0 KECCAK256 PUSH1 0x2 ADD SLOAD TIMESTAMP LT ISZERO PUSH2 0x2AA1 JUMPI PUSH1 0x40 MLOAD PUSH3 0x461BCD PUSH1 0xE5 SHL DUP2 MSTORE PUSH1 0x20 PUSH1 0x4 DUP3 ADD MSTORE PUSH1 0x35 PUSH1 0x24 DUP3 ADD MSTORE PUSH32 0x43616E206F6E6C79207374617274206E657720726F756E642061667465722072 PUSH1 0x44 DUP3 ADD MSTORE PUSH21 0x6F756E64206E2D3120656E6454696D657374616D7 PUSH1 0x5C SHL PUSH1 0x64 DUP3 ADD MSTORE PUSH1 0x84 ADD PUSH2 0x85D JUMP JUMPDEST PUSH2 0x255E DUP2 JUMPDEST PUSH1 0x0 DUP2 DUP2 MSTORE PUSH1 0xC PUSH1 0x20 MSTORE PUSH1 0x40 SWAP1 KECCAK256 TIMESTAMP PUSH1 0x1 DUP3 ADD DUP2 SWAP1 SSTORE PUSH1 0x5 SLOAD PUSH2 0x2AC8 SWAP2 PUSH2 0x3B64 JUMP JUMPDEST PUSH1 0x2 DUP3 ADD SSTORE DUP2 DUP2 SSTORE PUSH1 0x0 PUSH1 0x3 DUP3 ADD DUP2 SWAP1 SSTORE PUSH1 0x40 MLOAD DUP4 SWAP2 PUSH32 0x939F42374AA9BF1D8D8CD56D8A9110CB040CD8DFEAE44080C6FCF2645E51B452 SWAP2 LOG2 POP POP JUMP JUMPDEST PUSH1 0x8 SLOAD PUSH1 0x0 SWAP1 DUP2 MSTORE PUSH1 0xC PUSH1 0x20 MSTORE PUSH1 0x40 DUP2 KECCAK256 SWAP1 JUMPDEST PUSH1 0xF SLOAD DUP2 LT ISZERO PUSH2 0x284D JUMPI PUSH1 0x0 PUSH1 0xF DUP3 DUP2 SLOAD DUP2 LT PUSH2 0x2B37 JUMPI PUSH2 0x2B37 PUSH2 0x3C1C JUMP JUMPDEST PUSH1 0x0 SWAP2 DUP3 MSTORE PUSH1 0x20 DUP1 DUP4 KECCAK256 SWAP1 SWAP2 ADD SLOAD PUSH1 0x1 PUSH1 0x1 PUSH1 0xA0 SHL SUB SWAP1 DUP2 AND DUP1 DUP5 MSTORE PUSH1 0xE SWAP1 SWAP3 MSTORE PUSH1 0x40 DUP4 KECCAK256 SLOAD SWAP2 SWAP4 POP DUP3 SWAP2 PUSH2 0x2B6C SWAP2 AND PUSH2 0x2EDE JUMP JUMPDEST PUSH1 0x1 PUSH1 0x1 PUSH1 0xA0 SHL SUB SWAP1 SWAP5 AND PUSH1 0x0 SWAP1 DUP2 MSTORE PUSH1 0x7 DUP8 ADD PUSH1 0x20 SWAP1 DUP2 MSTORE PUSH1 0x40 DUP1 DUP4 KECCAK256 SWAP7 SWAP1 SWAP7 SSTORE PUSH1 0x5 DUP9 ADD SWAP1 MSTORE SWAP4 SWAP1 SWAP4 KECCAK256 PUSH1 0x1 PUSH1 0x1 PUSH1 0x50 SHL SUB SWAP1 SWAP4 AND SWAP1 SWAP3 SSTORE POP DUP2 SWAP1 POP PUSH2 0x2BB3 DUP2 PUSH2 0x3BBF JUMP JUMPDEST SWAP2 POP POP PUSH2 0x2B18 JUMP JUMPDEST PUSH1 0x40 MLOAD PUSH1 0x1 PUSH1 0x1 PUSH1 0xA0 SHL SUB DUP4 AND PUSH1 0x24 DUP3 ADD MSTORE PUSH1 0x44 DUP2 ADD DUP3 SWAP1 MSTORE PUSH2 0x11F5 SWAP1 DUP5 SWAP1 PUSH4 0xA9059CBB PUSH1 0xE0 SHL SWAP1 PUSH1 0x64 ADD PUSH2 0x28E3 JUMP JUMPDEST PUSH1 0x0 DUP1 SLOAD PUSH1 0x1 PUSH1 0x1 PUSH1 0xA0 SHL SUB DUP4 DUP2 AND PUSH1 0x1 PUSH1 0x1 PUSH1 0xA0 SHL SUB NOT DUP4 AND DUP2 OR DUP5 SSTORE PUSH1 0x40 MLOAD SWAP2 SWAP1 SWAP3 AND SWAP3 DUP4 SWAP2 PUSH32 0x8BE0079C531659141344CD1FD0A4F28419497F9722A3DAAFE3B4186F6B6457E0 SWAP2 SWAP1 LOG3 POP POP JUMP JUMPDEST PUSH1 0x8 SLOAD PUSH1 0x0 SWAP1 DUP2 MSTORE PUSH1 0xC PUSH1 0x20 MSTORE PUSH1 0x40 SWAP1 KECCAK256 PUSH1 0x1 ADD SLOAD PUSH2 0x2CAF JUMPI PUSH1 0x40 MLOAD PUSH3 0x461BCD PUSH1 0xE5 SHL DUP2 MSTORE PUSH1 0x20 PUSH1 0x4 DUP3 ADD MSTORE PUSH1 0x2A PUSH1 0x24 DUP3 ADD MSTORE PUSH32 0x43616E206F6E6C7920656E6420726F756E6420616674657220726F756E642068 PUSH1 0x44 DUP3 ADD MSTORE PUSH10 0x185CC81CDD185C9D1959 PUSH1 0xB2 SHL PUSH1 0x64 DUP3 ADD MSTORE PUSH1 0x84 ADD PUSH2 0x85D JUMP JUMPDEST PUSH1 0x8 SLOAD PUSH1 0x0 SWAP1 DUP2 MSTORE PUSH1 0xC PUSH1 0x20 MSTORE PUSH1 0x40 SWAP1 KECCAK256 PUSH1 0x2 ADD SLOAD TIMESTAMP LT ISZERO PUSH2 0x2D23 JUMPI PUSH1 0x40 MLOAD PUSH3 0x461BCD PUSH1 0xE5 SHL DUP2 MSTORE PUSH1 0x20 PUSH1 0x4 DUP3 ADD MSTORE PUSH1 0x27 PUSH1 0x24 DUP3 ADD MSTORE PUSH32 0x43616E206F6E6C7920656E6420726F756E6420616674657220636C6F73655469 PUSH1 0x44 DUP3 ADD MSTORE PUSH7 0x6D657374616D7 PUSH1 0xCC SHL PUSH1 0x64 DUP3 ADD MSTORE PUSH1 0x84 ADD PUSH2 0x85D JUMP JUMPDEST PUSH1 0x4 SLOAD PUSH1 0x8 SLOAD PUSH1 0x0 SWAP1 DUP2 MSTORE PUSH1 0xC PUSH1 0x20 MSTORE PUSH1 0x40 SWAP1 KECCAK256 PUSH1 0x2 ADD SLOAD PUSH2 0x2D45 SWAP2 SWAP1 PUSH2 0x3B64 JUMP JUMPDEST TIMESTAMP GT ISZERO PUSH2 0x2DA4 JUMPI PUSH1 0x40 MLOAD PUSH3 0x461BCD PUSH1 0xE5 SHL DUP2 MSTORE PUSH1 0x20 PUSH1 0x4 DUP3 ADD MSTORE PUSH1 0x27 PUSH1 0x24 DUP3 ADD MSTORE PUSH32 0x43616E206F6E6C7920656E6420726F756E642077697468696E20627566666572 PUSH1 0x44 DUP3 ADD MSTORE PUSH7 0x5365636F6E6473 PUSH1 0xC8 SHL PUSH1 0x64 DUP3 ADD MSTORE PUSH1 0x84 ADD PUSH2 0x85D JUMP JUMPDEST PUSH2 0xEE6 PUSH2 0x3064 JUMP JUMPDEST PUSH2 0x2DB4 PUSH2 0xEE8 JUMP JUMPDEST ISZERO PUSH2 0x2DD1 JUMPI PUSH1 0x40 MLOAD PUSH3 0x461BCD PUSH1 0xE5 SHL DUP2 MSTORE PUSH1 0x4 ADD PUSH2 0x85D SWAP1 PUSH2 0x3874 JUMP JUMPDEST PUSH1 0x0 DUP1 SLOAD PUSH1 0xFF PUSH1 0xA0 SHL NOT AND PUSH1 0x1 PUSH1 0xA0 SHL OR SWAP1 SSTORE PUSH32 0x62E78CEA01BEE320CD4E420270B5EA74000D11B0C9F74754EBDBFC544B05A258 PUSH2 0x2974 CALLER SWAP1 JUMP JUMPDEST PUSH1 0x0 PUSH2 0x2E61 DUP3 PUSH1 0x40 MLOAD DUP1 PUSH1 0x40 ADD PUSH1 0x40 MSTORE DUP1 PUSH1 0x20 DUP2 MSTORE PUSH1 0x20 ADD PUSH32 0x5361666545524332303A206C6F772D6C6576656C2063616C6C206661696C6564 DUP2 MSTORE POP DUP6 PUSH1 0x1 PUSH1 0x1 PUSH1 0xA0 SHL SUB AND PUSH2 0x311A SWAP1 SWAP3 SWAP2 SWAP1 PUSH4 0xFFFFFFFF AND JUMP JUMPDEST DUP1 MLOAD SWAP1 SWAP2 POP ISZERO PUSH2 0x11F5 JUMPI DUP1 DUP1 PUSH1 0x20 ADD SWAP1 MLOAD DUP2 ADD SWAP1 PUSH2 0x2E7F SWAP2 SWAP1 PUSH2 0x3526 JUMP JUMPDEST PUSH2 0x11F5 JUMPI PUSH1 0x40 MLOAD PUSH3 0x461BCD PUSH1 0xE5 SHL DUP2 MSTORE PUSH1 0x20 PUSH1 0x4 DUP3 ADD MSTORE PUSH1 0x2A PUSH1 0x24 DUP3 ADD MSTORE PUSH32 0x5361666545524332303A204552433230206F7065726174696F6E20646964206E PUSH1 0x44 DUP3 ADD MSTORE PUSH10 0x1BDD081CDD58D8D95959 PUSH1 0xB2 SHL PUSH1 0x64 DUP3 ADD MSTORE PUSH1 0x84 ADD PUSH2 0x85D JUMP JUMPDEST PUSH1 0x0 DUP1 PUSH1 0x0 PUSH1 0xA SLOAD TIMESTAMP PUSH2 0x2EF1 SWAP2 SWAP1 PUSH2 0x3B64 JUMP JUMPDEST SWAP1 POP PUSH1 0x0 DUP1 PUSH1 0x0 DUP7 PUSH1 0x1 PUSH1 0x1 PUSH1 0xA0 SHL SUB AND PUSH4 0xFEAF968C PUSH1 0x40 MLOAD DUP2 PUSH4 0xFFFFFFFF AND PUSH1 0xE0 SHL DUP2 MSTORE PUSH1 0x4 ADD PUSH1 0xA0 PUSH1 0x40 MLOAD DUP1 DUP4 SUB DUP2 DUP7 DUP1 EXTCODESIZE ISZERO DUP1 ISZERO PUSH2 0x2F31 JUMPI PUSH1 0x0 DUP1 REVERT JUMPDEST POP GAS STATICCALL ISZERO DUP1 ISZERO PUSH2 0x2F45 JUMPI RETURNDATASIZE PUSH1 0x0 DUP1 RETURNDATACOPY RETURNDATASIZE PUSH1 0x0 REVERT JUMPDEST POP POP POP POP PUSH1 0x40 MLOAD RETURNDATASIZE PUSH1 0x1F NOT PUSH1 0x1F DUP3 ADD AND DUP3 ADD DUP1 PUSH1 0x40 MSTORE POP DUP2 ADD SWAP1 PUSH2 0x2F69 SWAP2 SWAP1 PUSH2 0x35AF JUMP JUMPDEST POP SWAP4 POP POP SWAP3 POP SWAP3 POP DUP4 DUP2 GT ISZERO PUSH2 0x2FD8 JUMPI PUSH1 0x40 MLOAD PUSH3 0x461BCD PUSH1 0xE5 SHL DUP2 MSTORE PUSH1 0x20 PUSH1 0x4 DUP3 ADD MSTORE PUSH1 0x2E PUSH1 0x24 DUP3 ADD MSTORE PUSH32 0x4F7261636C6520757064617465206578636565646564206D61782074696D6573 PUSH1 0x44 DUP3 ADD MSTORE PUSH14 0x74616D7020616C6C6F77616E6365 PUSH1 0x90 SHL PUSH1 0x64 DUP3 ADD MSTORE PUSH1 0x84 ADD PUSH2 0x85D JUMP JUMPDEST PUSH1 0x9 SLOAD DUP4 PUSH1 0x1 PUSH1 0x1 PUSH1 0x50 SHL SUB AND GT PUSH2 0x3058 JUMPI PUSH1 0x40 MLOAD PUSH3 0x461BCD PUSH1 0xE5 SHL DUP2 MSTORE PUSH1 0x20 PUSH1 0x4 DUP3 ADD MSTORE PUSH1 0x3D PUSH1 0x24 DUP3 ADD MSTORE PUSH32 0x4F7261636C652075706461746520726F756E644964206D757374206265206C61 PUSH1 0x44 DUP3 ADD MSTORE PUSH32 0x72676572207468616E206F7261636C654C6174657374526F756E644964000000 PUSH1 0x64 DUP3 ADD MSTORE PUSH1 0x84 ADD PUSH2 0x85D JUMP JUMPDEST POP SWAP1 SWAP6 SWAP1 SWAP5 POP SWAP3 POP POP POP JUMP JUMPDEST PUSH1 0x8 SLOAD PUSH1 0x0 SWAP1 DUP2 MSTORE PUSH1 0xC PUSH1 0x20 MSTORE PUSH1 0x40 DUP2 KECCAK256 SWAP1 JUMPDEST PUSH1 0xF SLOAD DUP2 LT ISZERO PUSH2 0x284D JUMPI PUSH1 0x0 PUSH1 0xF DUP3 DUP2 SLOAD DUP2 LT PUSH2 0x3096 JUMPI PUSH2 0x3096 PUSH2 0x3C1C JUMP JUMPDEST PUSH1 0x0 SWAP2 DUP3 MSTORE PUSH1 0x20 DUP1 DUP4 KECCAK256 SWAP1 SWAP2 ADD SLOAD PUSH1 0x1 PUSH1 0x1 PUSH1 0xA0 SHL SUB SWAP1 DUP2 AND DUP1 DUP5 MSTORE PUSH1 0xE SWAP1 SWAP3 MSTORE PUSH1 0x40 DUP4 KECCAK256 SLOAD SWAP2 SWAP4 POP DUP3 SWAP2 PUSH2 0x30CB SWAP2 AND PUSH2 0x2EDE JUMP JUMPDEST PUSH1 0x1 PUSH1 0x1 PUSH1 0xA0 SHL SUB SWAP1 SWAP5 AND PUSH1 0x0 SWAP1 DUP2 MSTORE PUSH1 0x8 DUP8 ADD PUSH1 0x20 SWAP1 DUP2 MSTORE PUSH1 0x40 DUP1 DUP4 KECCAK256 SWAP7 SWAP1 SWAP7 SSTORE PUSH1 0x6 DUP9 ADD SWAP1 MSTORE SWAP4 SWAP1 SWAP4 KECCAK256 PUSH1 0x1 PUSH1 0x1 PUSH1 0x50 SHL SUB SWAP1 SWAP4 AND SWAP1 SWAP3 SSTORE POP DUP2 SWAP1 POP PUSH2 0x3112 DUP2 PUSH2 0x3BBF JUMP JUMPDEST SWAP2 POP POP PUSH2 0x3077 JUMP JUMPDEST PUSH1 0x60 PUSH2 0x3129 DUP5 DUP5 PUSH1 0x0 DUP6 PUSH2 0x3133 JUMP JUMPDEST SWAP1 POP JUMPDEST SWAP4 SWAP3 POP POP POP JUMP JUMPDEST PUSH1 0x60 DUP3 SELFBALANCE LT ISZERO PUSH2 0x3194 JUMPI PUSH1 0x40 MLOAD PUSH3 0x461BCD PUSH1 0xE5 SHL DUP2 MSTORE PUSH1 0x20 PUSH1 0x4 DUP3 ADD MSTORE PUSH1 0x26 PUSH1 0x24 DUP3 ADD MSTORE PUSH32 0x416464726573733A20696E73756666696369656E742062616C616E636520666F PUSH1 0x44 DUP3 ADD MSTORE PUSH6 0x1C8818D85B1B PUSH1 0xD2 SHL PUSH1 0x64 DUP3 ADD MSTORE PUSH1 0x84 ADD PUSH2 0x85D JUMP JUMPDEST DUP5 EXTCODESIZE PUSH2 0x31E2 JUMPI PUSH1 0x40 MLOAD PUSH3 0x461BCD PUSH1 0xE5 SHL DUP2 MSTORE PUSH1 0x20 PUSH1 0x4 DUP3 ADD MSTORE PUSH1 0x1D PUSH1 0x24 DUP3 ADD MSTORE PUSH32 0x416464726573733A2063616C6C20746F206E6F6E2D636F6E7472616374000000 PUSH1 0x44 DUP3 ADD MSTORE PUSH1 0x64 ADD PUSH2 0x85D JUMP JUMPDEST PUSH1 0x0 DUP1 DUP7 PUSH1 0x1 PUSH1 0x1 PUSH1 0xA0 SHL SUB AND DUP6 DUP8 PUSH1 0x40 MLOAD PUSH2 0x31FE SWAP2 SWAP1 PUSH2 0x3695 JUMP JUMPDEST PUSH1 0x0 PUSH1 0x40 MLOAD DUP1 DUP4 SUB DUP2 DUP6 DUP8 GAS CALL SWAP3 POP POP POP RETURNDATASIZE DUP1 PUSH1 0x0 DUP2 EQ PUSH2 0x323B JUMPI PUSH1 0x40 MLOAD SWAP2 POP PUSH1 0x1F NOT PUSH1 0x3F RETURNDATASIZE ADD AND DUP3 ADD PUSH1 0x40 MSTORE RETURNDATASIZE DUP3 MSTORE RETURNDATASIZE PUSH1 0x0 PUSH1 0x20 DUP5 ADD RETURNDATACOPY PUSH2 0x3240 JUMP JUMPDEST PUSH1 0x60 SWAP2 POP JUMPDEST POP SWAP2 POP SWAP2 POP PUSH2 0x3250 DUP3 DUP3 DUP7 PUSH2 0x325B JUMP JUMPDEST SWAP8 SWAP7 POP POP POP POP POP POP POP JUMP JUMPDEST PUSH1 0x60 DUP4 ISZERO PUSH2 0x326A JUMPI POP DUP2 PUSH2 0x312C JUMP JUMPDEST DUP3 MLOAD ISZERO PUSH2 0x327A JUMPI DUP3 MLOAD DUP1 DUP5 PUSH1 0x20 ADD REVERT JUMPDEST DUP2 PUSH1 0x40 MLOAD PUSH3 0x461BCD PUSH1 0xE5 SHL DUP2 MSTORE PUSH1 0x4 ADD PUSH2 0x85D SWAP2 SWAP1 PUSH2 0x37B6 JUMP JUMPDEST DUP1 CALLDATALOAD PUSH1 0x1 PUSH1 0x1 PUSH1 0xA0 SHL SUB DUP2 AND DUP2 EQ PUSH2 0x32AB JUMPI PUSH1 0x0 DUP1 REVERT JUMPDEST SWAP2 SWAP1 POP JUMP JUMPDEST PUSH1 0x0 DUP3 PUSH1 0x1F DUP4 ADD SLT PUSH2 0x32C1 JUMPI PUSH1 0x0 DUP1 REVERT JUMPDEST DUP2 CALLDATALOAD PUSH1 0x20 PUSH2 0x32D6 PUSH2 0x32D1 DUP4 PUSH2 0x3B41 JUMP JUMPDEST PUSH2 0x3B11 JUMP JUMPDEST DUP1 DUP4 DUP3 MSTORE DUP3 DUP3 ADD SWAP2 POP DUP3 DUP7 ADD DUP8 DUP5 DUP7 PUSH1 0x5 SHL DUP10 ADD ADD GT ISZERO PUSH2 0x32F6 JUMPI PUSH1 0x0 DUP1 REVERT JUMPDEST PUSH1 0x0 JUMPDEST DUP6 DUP2 LT ISZERO PUSH2 0x331C JUMPI PUSH2 0x330A DUP3 PUSH2 0x3294 JUMP JUMPDEST DUP5 MSTORE SWAP3 DUP5 ADD SWAP3 SWAP1 DUP5 ADD SWAP1 PUSH1 0x1 ADD PUSH2 0x32F9 JUMP JUMPDEST POP SWAP1 SWAP8 SWAP7 POP POP POP POP POP POP POP JUMP JUMPDEST DUP1 MLOAD PUSH1 0x1 PUSH1 0x1 PUSH1 0x50 SHL SUB DUP2 AND DUP2 EQ PUSH2 0x32AB JUMPI PUSH1 0x0 DUP1 REVERT JUMPDEST PUSH1 0x0 PUSH1 0x20 DUP3 DUP5 SUB SLT ISZERO PUSH2 0x3352 JUMPI PUSH1 0x0 DUP1 REVERT JUMPDEST PUSH2 0x312C DUP3 PUSH2 0x3294 JUMP JUMPDEST PUSH1 0x0 DUP1 PUSH1 0x40 DUP4 DUP6 SUB SLT ISZERO PUSH2 0x336E JUMPI PUSH1 0x0 DUP1 REVERT JUMPDEST PUSH2 0x3377 DUP4 PUSH2 0x3294 JUMP JUMPDEST SWAP5 PUSH1 0x20 SWAP4 SWAP1 SWAP4 ADD CALLDATALOAD SWAP4 POP POP POP JUMP JUMPDEST PUSH1 0x0 DUP1 PUSH1 0x0 PUSH1 0x60 DUP5 DUP7 SUB SLT ISZERO PUSH2 0x339A JUMPI PUSH1 0x0 DUP1 REVERT JUMPDEST PUSH2 0x33A3 DUP5 PUSH2 0x3294 JUMP JUMPDEST SWAP6 PUSH1 0x20 DUP6 ADD CALLDATALOAD SWAP6 POP PUSH1 0x40 SWAP1 SWAP5 ADD CALLDATALOAD SWAP4 SWAP3 POP POP POP JUMP JUMPDEST PUSH1 0x0 DUP1 PUSH1 0x40 DUP4 DUP6 SUB SLT ISZERO PUSH2 0x33CB JUMPI PUSH1 0x0 DUP1 REVERT JUMPDEST DUP3 CALLDATALOAD PUSH1 0x1 PUSH1 0x1 PUSH1 0x40 SHL SUB DUP1 DUP3 GT ISZERO PUSH2 0x33E2 JUMPI PUSH1 0x0 DUP1 REVERT JUMPDEST PUSH2 0x33EE DUP7 DUP4 DUP8 ADD PUSH2 0x32B0 JUMP JUMPDEST SWAP4 POP PUSH1 0x20 DUP6 ADD CALLDATALOAD SWAP2 POP DUP1 DUP3 GT ISZERO PUSH2 0x3404 JUMPI PUSH1 0x0 DUP1 REVERT JUMPDEST POP PUSH2 0x3411 DUP6 DUP3 DUP7 ADD PUSH2 0x32B0 JUMP JUMPDEST SWAP2 POP POP SWAP3 POP SWAP3 SWAP1 POP JUMP JUMPDEST PUSH1 0x0 DUP1 PUSH1 0x20 DUP4 DUP6 SUB SLT ISZERO PUSH2 0x342E JUMPI PUSH1 0x0 DUP1 REVERT JUMPDEST DUP3 CALLDATALOAD PUSH1 0x1 PUSH1 0x1 PUSH1 0x40 SHL SUB DUP1 DUP3 GT ISZERO PUSH2 0x3445 JUMPI PUSH1 0x0 DUP1 REVERT JUMPDEST DUP2 DUP6 ADD SWAP2 POP DUP6 PUSH1 0x1F DUP4 ADD SLT PUSH2 0x3459 JUMPI PUSH1 0x0 DUP1 REVERT JUMPDEST DUP2 CALLDATALOAD DUP2 DUP2 GT ISZERO PUSH2 0x3468 JUMPI PUSH1 0x0 DUP1 REVERT JUMPDEST DUP7 PUSH1 0x20 DUP3 PUSH1 0x5 SHL DUP6 ADD ADD GT ISZERO PUSH2 0x347D JUMPI PUSH1 0x0 DUP1 REVERT JUMPDEST PUSH1 0x20 SWAP3 SWAP1 SWAP3 ADD SWAP7 SWAP2 SWAP6 POP SWAP1 SWAP4 POP POP POP POP JUMP JUMPDEST PUSH1 0x0 PUSH1 0x20 DUP1 DUP4 DUP6 SUB SLT ISZERO PUSH2 0x34A2 JUMPI PUSH1 0x0 DUP1 REVERT JUMPDEST DUP3 CALLDATALOAD PUSH1 0x1 PUSH1 0x1 PUSH1 0x40 SHL SUB DUP2 GT ISZERO PUSH2 0x34B8 JUMPI PUSH1 0x0 DUP1 REVERT JUMPDEST DUP4 ADD PUSH1 0x1F DUP2 ADD DUP6 SGT PUSH2 0x34C9 JUMPI PUSH1 0x0 DUP1 REVERT JUMPDEST DUP1 CALLDATALOAD PUSH2 0x34D7 PUSH2 0x32D1 DUP3 PUSH2 0x3B41 JUMP JUMPDEST DUP1 DUP3 DUP3 MSTORE DUP5 DUP3 ADD SWAP2 POP DUP5 DUP5 ADD DUP9 DUP7 DUP6 PUSH1 0x5 SHL DUP8 ADD ADD GT ISZERO PUSH2 0x34F7 JUMPI PUSH1 0x0 DUP1 REVERT JUMPDEST PUSH1 0x0 SWAP5 POP JUMPDEST DUP4 DUP6 LT ISZERO PUSH2 0x351A JUMPI DUP1 CALLDATALOAD DUP4 MSTORE PUSH1 0x1 SWAP5 SWAP1 SWAP5 ADD SWAP4 SWAP2 DUP6 ADD SWAP2 DUP6 ADD PUSH2 0x34FC JUMP JUMPDEST POP SWAP8 SWAP7 POP POP POP POP POP POP POP JUMP JUMPDEST PUSH1 0x0 PUSH1 0x20 DUP3 DUP5 SUB SLT ISZERO PUSH2 0x3538 JUMPI PUSH1 0x0 DUP1 REVERT JUMPDEST DUP2 MLOAD DUP1 ISZERO ISZERO DUP2 EQ PUSH2 0x312C JUMPI PUSH1 0x0 DUP1 REVERT JUMPDEST PUSH1 0x0 PUSH1 0x20 DUP3 DUP5 SUB SLT ISZERO PUSH2 0x355A JUMPI PUSH1 0x0 DUP1 REVERT JUMPDEST POP CALLDATALOAD SWAP2 SWAP1 POP JUMP JUMPDEST PUSH1 0x0 DUP1 PUSH1 0x40 DUP4 DUP6 SUB SLT ISZERO PUSH2 0x3574 JUMPI PUSH1 0x0 DUP1 REVERT JUMPDEST DUP3 CALLDATALOAD SWAP2 POP PUSH2 0x3584 PUSH1 0x20 DUP5 ADD PUSH2 0x3294 JUMP JUMPDEST SWAP1 POP SWAP3 POP SWAP3 SWAP1 POP JUMP JUMPDEST PUSH1 0x0 DUP1 PUSH1 0x40 DUP4 DUP6 SUB SLT ISZERO PUSH2 0x35A0 JUMPI PUSH1 0x0 DUP1 REVERT JUMPDEST POP POP DUP1 CALLDATALOAD SWAP3 PUSH1 0x20 SWAP1 SWAP2 ADD CALLDATALOAD SWAP2 POP JUMP JUMPDEST PUSH1 0x0 DUP1 PUSH1 0x0 DUP1 PUSH1 0x0 PUSH1 0xA0 DUP7 DUP9 SUB SLT ISZERO PUSH2 0x35C7 JUMPI PUSH1 0x0 DUP1 REVERT JUMPDEST PUSH2 0x35D0 DUP7 PUSH2 0x3329 JUMP JUMPDEST SWAP5 POP PUSH1 0x20 DUP7 ADD MLOAD SWAP4 POP PUSH1 0x40 DUP7 ADD MLOAD SWAP3 POP PUSH1 0x60 DUP7 ADD MLOAD SWAP2 POP PUSH2 0x35F3 PUSH1 0x80 DUP8 ADD PUSH2 0x3329 JUMP JUMPDEST SWAP1 POP SWAP3 SWAP6 POP SWAP3 SWAP6 SWAP1 SWAP4 POP JUMP JUMPDEST PUSH1 0x0 DUP2 MLOAD DUP1 DUP5 MSTORE PUSH1 0x20 DUP1 DUP6 ADD SWAP5 POP DUP1 DUP5 ADD PUSH1 0x0 JUMPDEST DUP4 DUP2 LT ISZERO PUSH2 0x3638 JUMPI DUP2 MLOAD PUSH1 0x1 PUSH1 0x1 PUSH1 0xA0 SHL SUB AND DUP8 MSTORE SWAP6 DUP3 ADD SWAP6 SWAP1 DUP3 ADD SWAP1 PUSH1 0x1 ADD PUSH2 0x3613 JUMP JUMPDEST POP SWAP5 SWAP6 SWAP5 POP POP POP POP POP JUMP JUMPDEST PUSH1 0x0 DUP2 MLOAD DUP1 DUP5 MSTORE PUSH1 0x20 DUP1 DUP6 ADD SWAP5 POP DUP1 DUP5 ADD PUSH1 0x0 JUMPDEST DUP4 DUP2 LT ISZERO PUSH2 0x3638 JUMPI DUP2 MLOAD DUP8 MSTORE SWAP6 DUP3 ADD SWAP6 SWAP1 DUP3 ADD SWAP1 PUSH1 0x1 ADD PUSH2 0x3657 JUMP JUMPDEST PUSH1 0x2 DUP2 LT PUSH2 0x3691 JUMPI PUSH4 0x4E487B71 PUSH1 0xE0 SHL PUSH1 0x0 MSTORE PUSH1 0x21 PUSH1 0x4 MSTORE PUSH1 0x24 PUSH1 0x0 REVERT JUMPDEST SWAP1 MSTORE JUMP JUMPDEST PUSH1 0x0 DUP3 MLOAD PUSH2 0x36A7 DUP2 DUP5 PUSH1 0x20 DUP8 ADD PUSH2 0x3B93 JUMP JUMPDEST SWAP2 SWAP1 SWAP2 ADD SWAP3 SWAP2 POP POP JUMP JUMPDEST PUSH1 0x1 PUSH1 0x1 PUSH1 0xA0 SHL SUB SWAP2 SWAP1 SWAP2 AND DUP2 MSTORE PUSH1 0x20 ADD SWAP1 JUMP JUMPDEST PUSH1 0x1 PUSH1 0x1 PUSH1 0xA0 SHL SUB SWAP3 DUP4 AND DUP2 MSTORE SWAP2 AND PUSH1 0x20 DUP3 ADD MSTORE PUSH1 0x40 ADD SWAP1 JUMP JUMPDEST PUSH1 0x20 DUP2 MSTORE PUSH1 0x0 PUSH2 0x312C PUSH1 0x20 DUP4 ADD DUP5 PUSH2 0x35FF JUMP JUMPDEST PUSH1 0x0 PUSH1 0x60 DUP1 DUP4 MSTORE PUSH2 0x3705 DUP2 DUP5 ADD DUP8 PUSH2 0x3643 JUMP JUMPDEST DUP4 DUP2 SUB PUSH1 0x20 DUP6 DUP2 ADD SWAP2 SWAP1 SWAP2 MSTORE DUP7 MLOAD DUP1 DUP4 MSTORE DUP8 DUP3 ADD SWAP3 DUP3 ADD SWAP1 PUSH1 0x0 JUMPDEST DUP2 DUP2 LT ISZERO PUSH2 0x376B JUMPI DUP5 MLOAD PUSH2 0x3735 DUP5 DUP3 MLOAD PUSH2 0x3673 JUMP JUMPDEST DUP1 DUP6 ADD MLOAD PUSH1 0x1 PUSH1 0x1 PUSH1 0xA0 SHL SUB AND DUP5 DUP7 ADD MSTORE PUSH1 0x40 DUP1 DUP3 ADD MLOAD SWAP1 DUP6 ADD MSTORE DUP7 ADD MLOAD ISZERO ISZERO DUP7 DUP5 ADD MSTORE SWAP4 DUP4 ADD SWAP4 PUSH1 0x80 SWAP1 SWAP3 ADD SWAP2 PUSH1 0x1 ADD PUSH2 0x3720 JUMP JUMPDEST POP POP DUP1 SWAP5 POP POP POP POP POP DUP3 PUSH1 0x40 DUP4 ADD MSTORE SWAP5 SWAP4 POP POP POP POP JUMP JUMPDEST PUSH1 0x80 DUP2 ADD PUSH2 0x3790 DUP3 DUP8 PUSH2 0x3673 JUMP JUMPDEST PUSH1 0x1 PUSH1 0x1 PUSH1 0xA0 SHL SUB SWAP5 SWAP1 SWAP5 AND PUSH1 0x20 DUP3 ADD MSTORE PUSH1 0x40 DUP2 ADD SWAP3 SWAP1 SWAP3 MSTORE ISZERO ISZERO PUSH1 0x60 SWAP1 SWAP2 ADD MSTORE SWAP2 SWAP1 POP JUMP JUMPDEST PUSH1 0x20 DUP2 MSTORE PUSH1 0x0 DUP3 MLOAD DUP1 PUSH1 0x20 DUP5 ADD MSTORE PUSH2 0x37D5 DUP2 PUSH1 0x40 DUP6 ADD PUSH1 0x20 DUP8 ADD PUSH2 0x3B93 JUMP JUMPDEST PUSH1 0x1F ADD PUSH1 0x1F NOT AND SWAP2 SWAP1 SWAP2 ADD PUSH1 0x40 ADD SWAP3 SWAP2 POP POP JUMP JUMPDEST PUSH1 0x20 DUP1 DUP3 MSTORE PUSH1 0x14 SWAP1 DUP3 ADD MSTORE PUSH20 0x14185D5CD8589B194E881B9BDD081C185D5CD959 PUSH1 0x62 SHL PUSH1 0x40 DUP3 ADD MSTORE PUSH1 0x60 ADD SWAP1 JUMP JUMPDEST PUSH1 0x20 DUP1 DUP3 MSTORE PUSH1 0x14 SWAP1 DUP3 ADD MSTORE PUSH20 0x10DBDB9D1C9858DD081B9BDD08185B1B1BDDD959 PUSH1 0x62 SHL PUSH1 0x40 DUP3 ADD MSTORE PUSH1 0x60 ADD SWAP1 JUMP JUMPDEST PUSH1 0x20 DUP1 DUP3 MSTORE PUSH1 0x15 SWAP1 DUP3 ADD MSTORE PUSH21 0x546F6B656E206E6F74207072656469637461626C65 PUSH1 0x58 SHL PUSH1 0x40 DUP3 ADD MSTORE PUSH1 0x60 ADD SWAP1 JUMP JUMPDEST PUSH1 0x20 DUP1 DUP3 MSTORE PUSH1 0x10 SWAP1 DUP3 ADD MSTORE PUSH16 0x14185D5CD8589B194E881C185D5CD959 PUSH1 0x82 SHL PUSH1 0x40 DUP3 ADD MSTORE PUSH1 0x60 ADD SWAP1 JUMP JUMPDEST PUSH1 0x20 DUP1 DUP3 MSTORE PUSH1 0x16 SWAP1 DUP3 ADD MSTORE PUSH22 0x43616E6E6F74206265207A65726F2061646472657373 PUSH1 0x50 SHL PUSH1 0x40 DUP3 ADD MSTORE PUSH1 0x60 ADD SWAP1 JUMP JUMPDEST PUSH1 0x20 DUP1 DUP3 MSTORE PUSH1 0x1A SWAP1 DUP3 ADD MSTORE PUSH26 0x141C9BDE1E4818DBDB9D1C9858DD081B9BDD08185B1B1BDDD959 PUSH1 0x32 SHL PUSH1 0x40 DUP3 ADD MSTORE PUSH1 0x60 ADD SWAP1 JUMP JUMPDEST PUSH1 0x20 DUP1 DUP3 MSTORE DUP2 DUP2 ADD MSTORE PUSH32 0x4F776E61626C653A2063616C6C6572206973206E6F7420746865206F776E6572 PUSH1 0x40 DUP3 ADD MSTORE PUSH1 0x60 ADD SWAP1 JUMP JUMPDEST PUSH1 0x20 DUP1 DUP3 MSTORE PUSH1 0x12 SWAP1 DUP3 ADD MSTORE PUSH18 0x526F756E64206E6F74206265747461626C65 PUSH1 0x70 SHL PUSH1 0x40 DUP3 ADD MSTORE PUSH1 0x60 ADD SWAP1 JUMP JUMPDEST PUSH1 0x20 DUP1 DUP3 MSTORE PUSH1 0x1B SWAP1 DUP3 ADD MSTORE PUSH32 0x43616E206F6E6C7920626574206F6E63652070657220726F756E640000000000 PUSH1 0x40 DUP3 ADD MSTORE PUSH1 0x60 ADD SWAP1 JUMP JUMPDEST PUSH1 0x20 DUP1 DUP3 MSTORE PUSH1 0x1F SWAP1 DUP3 ADD MSTORE PUSH32 0x5265656E7472616E637947756172643A207265656E7472616E742063616C6C00 PUSH1 0x40 DUP3 ADD MSTORE PUSH1 0x60 ADD SWAP1 JUMP JUMPDEST PUSH1 0x20 DUP1 DUP3 MSTORE PUSH1 0x15 SWAP1 DUP3 ADD MSTORE PUSH21 0x42657420697320746F6F206561726C792F6C617465 PUSH1 0x58 SHL PUSH1 0x40 DUP3 ADD MSTORE PUSH1 0x60 ADD SWAP1 JUMP JUMPDEST PUSH1 0x20 DUP1 DUP3 MSTORE PUSH1 0xC SWAP1 DUP3 ADD MSTORE PUSH12 0x2737BA1037B832B930BA37B9 PUSH1 0xA1 SHL PUSH1 0x40 DUP3 ADD MSTORE PUSH1 0x60 ADD SWAP1 JUMP JUMPDEST PUSH1 0x20 DUP1 DUP3 MSTORE PUSH1 0x9 SWAP1 DUP3 ADD MSTORE PUSH9 0x2737BA1030B236B4B7 PUSH1 0xB9 SHL PUSH1 0x40 DUP3 ADD MSTORE PUSH1 0x60 ADD SWAP1 JUMP JUMPDEST PUSH1 0x20 DUP1 DUP3 MSTORE PUSH1 0x17 SWAP1 DUP3 ADD MSTORE PUSH23 0x21B0B713BA10383932B234B1BA103337B9103A37B5B2B7 PUSH1 0x49 SHL PUSH1 0x40 DUP3 ADD MSTORE PUSH1 0x60 ADD SWAP1 JUMP JUMPDEST PUSH1 0x0 PUSH2 0x140 DUP13 DUP4 MSTORE DUP12 PUSH1 0x20 DUP5 ADD MSTORE DUP11 PUSH1 0x40 DUP5 ADD MSTORE DUP10 PUSH1 0x60 DUP5 ADD MSTORE DUP9 ISZERO ISZERO PUSH1 0x80 DUP5 ADD MSTORE DUP1 PUSH1 0xA0 DUP5 ADD MSTORE PUSH2 0x3AAE DUP2 DUP5 ADD DUP10 PUSH2 0x35FF JUMP JUMPDEST SWAP1 POP DUP3 DUP2 SUB PUSH1 0xC0 DUP5 ADD MSTORE PUSH2 0x3AC2 DUP2 DUP9 PUSH2 0x3643 JUMP JUMPDEST SWAP1 POP DUP3 DUP2 SUB PUSH1 0xE0 DUP5 ADD MSTORE PUSH2 0x3AD6 DUP2 DUP8 PUSH2 0x3643 JUMP JUMPDEST SWAP1 POP DUP3 DUP2 SUB PUSH2 0x100 DUP5 ADD MSTORE PUSH2 0x3AEB DUP2 DUP7 PUSH2 0x3643 JUMP JUMPDEST SWAP1 POP DUP3 DUP2 SUB PUSH2 0x120 DUP5 ADD MSTORE PUSH2 0x3B00 DUP2 DUP6 PUSH2 0x3643 JUMP JUMPDEST SWAP14 SWAP13 POP POP POP POP POP POP POP POP POP POP POP POP POP JUMP JUMPDEST PUSH1 0x40 MLOAD PUSH1 0x1F DUP3 ADD PUSH1 0x1F NOT AND DUP2 ADD PUSH1 0x1 PUSH1 0x1 PUSH1 0x40 SHL SUB DUP2 GT DUP3 DUP3 LT OR ISZERO PUSH2 0x3B39 JUMPI PUSH2 0x3B39 PUSH2 0x3C32 JUMP JUMPDEST PUSH1 0x40 MSTORE SWAP2 SWAP1 POP JUMP JUMPDEST PUSH1 0x0 PUSH1 0x1 PUSH1 0x1 PUSH1 0x40 SHL SUB DUP3 GT ISZERO PUSH2 0x3B5A JUMPI PUSH2 0x3B5A PUSH2 0x3C32 JUMP JUMPDEST POP PUSH1 0x5 SHL PUSH1 0x20 ADD SWAP1 JUMP JUMPDEST PUSH1 0x0 DUP3 NOT DUP3 GT ISZERO PUSH2 0x3B77 JUMPI PUSH2 0x3B77 PUSH2 0x3BDA JUMP JUMPDEST POP ADD SWAP1 JUMP JUMPDEST PUSH1 0x0 DUP3 DUP3 LT ISZERO PUSH2 0x3B8E JUMPI PUSH2 0x3B8E PUSH2 0x3BDA JUMP JUMPDEST POP SUB SWAP1 JUMP JUMPDEST PUSH1 0x0 JUMPDEST DUP4 DUP2 LT ISZERO PUSH2 0x3BAE JUMPI DUP2 DUP2 ADD MLOAD DUP4 DUP3 ADD MSTORE PUSH1 0x20 ADD PUSH2 0x3B96 JUMP JUMPDEST DUP4 DUP2 GT ISZERO PUSH2 0x291A JUMPI POP POP PUSH1 0x0 SWAP2 ADD MSTORE JUMP JUMPDEST PUSH1 0x0 PUSH1 0x0 NOT DUP3 EQ ISZERO PUSH2 0x3BD3 JUMPI PUSH2 0x3BD3 PUSH2 0x3BDA JUMP JUMPDEST POP PUSH1 0x1 ADD SWAP1 JUMP JUMPDEST PUSH4 0x4E487B71 PUSH1 0xE0 SHL PUSH1 0x0 MSTORE PUSH1 0x11 PUSH1 0x4 MSTORE PUSH1 0x24 PUSH1 0x0 REVERT JUMPDEST PUSH4 0x4E487B71 PUSH1 0xE0 SHL PUSH1 0x0 MSTORE PUSH1 0x21 PUSH1 0x4 MSTORE PUSH1 0x24 PUSH1 0x0 REVERT JUMPDEST PUSH4 0x4E487B71 PUSH1 0xE0 SHL PUSH1 0x0 MSTORE PUSH1 0x31 PUSH1 0x4 MSTORE PUSH1 0x24 PUSH1 0x0 REVERT JUMPDEST PUSH4 0x4E487B71 PUSH1 0xE0 SHL PUSH1 0x0 MSTORE PUSH1 0x32 PUSH1 0x4 MSTORE PUSH1 0x24 PUSH1 0x0 REVERT JUMPDEST PUSH4 0x4E487B71 PUSH1 0xE0 SHL PUSH1 0x0 MSTORE PUSH1 0x41 PUSH1 0x4 MSTORE PUSH1 0x24 PUSH1 0x0 REVERT INVALID LOG2 PUSH5 0x6970667358 0x22 SLT KECCAK256 0xE5 0xB9 0xB8 STOP BALANCE PUSH19 0x174502822AACD5F52125F9D222376A6C45B81 LOG2 PUSH32 0x566E372B2064736F6C6343000807003300000000000000000000000000000000 "
		},
		"gasEstimates": {
			"creation": {
				"codeDepositCost": "3097200",
				"executionCost": "infinite",
				"totalCost": "infinite"
			},
			"external": {
				"BNB()": "374",
				"MAX_TREASURY_FEE()": "261",
				"addTokens(address[],address[])": "infinite",
				"adminAddress()": "2493",
				"betBear(uint256,address)": "infinite",
				"betBull(uint256,address)": "infinite",
				"bufferSeconds()": "2428",
				"claim(uint256[])": "infinite",
				"claimTreasury()": "infinite",
				"currentEpoch()": "2428",
				"endRound()": "infinite",
				"getRound(uint256)": "infinite",
				"getTokens()": "infinite",
				"getUserRounds(address,uint256,uint256)": "infinite",
				"getUserRoundsLength(address)": "2628",
				"intervalSeconds()": "2363",
				"ledger(uint256,address)": "7164",
				"minBetAmount()": "2405",
				"operatorAddress()": "2430",
				"oracleLatestRoundId()": "2339",
				"oracleUpdateAllowance()": "2363",
				"oracles(address)": "2715",
				"owner()": "2415",
				"pause()": "infinite",
				"paused()": "2382",
				"pred()": "351",
				"recoverToken(address,uint256)": "infinite",
				"refundable(uint256,address)": "15866",
				"removeTokens(uint256[])": "infinite",
				"renounceOwnership()": "28226",
				"rounds(uint256)": "11128",
				"setAdmin(address)": "27940",
				"setBufferAndIntervalSeconds(uint256,uint256)": "50242",
				"setMinBetAmount(uint256)": "30325",
				"setOperator(address)": "27895",
				"setOracleUpdateAllowance(uint256)": "27775",
				"setOracles(address[],address[])": "infinite",
				"startRound()": "infinite",
				"tokens(uint256)": "4728",
				"transferOwnership(address)": "28442",
				"treasuryAmount()": "2430",
				"unpause()": "infinite",
				"userRounds(address,uint256)": "4833"
			},
			"internal": {
				"_bettable(uint256)": "6683",
				"_getPriceFromOracle(contract AggregatorV3Interface)": "infinite",
				"_isContract(address)": "infinite",
				"_safeEndRound()": "infinite",
				"_safeStartRound(uint256)": "infinite",
				"_setEndPrices()": "infinite",
				"_setStartPrices()": "infinite",
				"_startRound(uint256)": "74754"
			}
		},
		"methodIdentifiers": {
			"BNB()": "58f7f6d2",
			"MAX_TREASURY_FEE()": "f2b3c809",
			"addTokens(address[],address[])": "62bfdf04",
			"adminAddress()": "fc6f9468",
			"betBear(uint256,address)": "3fa41766",
			"betBull(uint256,address)": "2a75cabe",
			"bufferSeconds()": "eaba2361",
			"claim(uint256[])": "6ba4c138",
			"claimTreasury()": "003bdc74",
			"currentEpoch()": "76671808",
			"endRound()": "749aa2d9",
			"getRound(uint256)": "8f1327c0",
			"getTokens()": "aa6ca808",
			"getUserRounds(address,uint256,uint256)": "951fd600",
			"getUserRoundsLength(address)": "273867d4",
			"intervalSeconds()": "7d1cd04f",
			"ledger(uint256,address)": "7285c58b",
			"minBetAmount()": "fa968eea",
			"operatorAddress()": "127effb2",
			"oracleLatestRoundId()": "ec324703",
			"oracleUpdateAllowance()": "60554011",
			"oracles(address)": "addd5099",
			"owner()": "8da5cb5b",
			"pause()": "8456cb59",
			"paused()": "5c975abb",
			"pred()": "e5c9ad2e",
			"recoverToken(address,uint256)": "b29a8140",
			"refundable(uint256,address)": "7bf41254",
			"removeTokens(uint256[])": "ff59bcd0",
			"renounceOwnership()": "715018a6",
			"rounds(uint256)": "8c65c81f",
			"setAdmin(address)": "704b6c02",
			"setBufferAndIntervalSeconds(uint256,uint256)": "890dc766",
			"setMinBetAmount(uint256)": "6c188593",
			"setOperator(address)": "b3ab15fb",
			"setOracleUpdateAllowance(uint256)": "cf2f5039",
			"setOracles(address[],address[])": "78d5f781",
			"startRound()": "55e3f086",
			"tokens(uint256)": "4f64b2be",
			"transferOwnership(address)": "f2fde38b",
			"treasuryAmount()": "368acb09",
			"unpause()": "3f4ba83a",
			"userRounds(address,uint256)": "dd1f7596"
		}
	},
	"abi": [
		{
			"inputs": [
				{
					"internalType": "address",
					"name": "_adminAddress",
					"type": "address"
				},
				{
					"internalType": "address",
					"name": "_operatorAddress",
					"type": "address"
				},
				{
					"internalType": "uint256",
					"name": "_intervalSeconds",
					"type": "uint256"
				},
				{
					"internalType": "uint256",
					"name": "_bufferSeconds",
					"type": "uint256"
				},
				{
					"internalType": "uint256",
					"name": "_minBetAmount",
					"type": "uint256"
				},
				{
					"internalType": "uint256",
					"name": "_oracleUpdateAllowance",
					"type": "uint256"
				}
			],
			"stateMutability": "nonpayable",
			"type": "constructor"
		},
		{
			"anonymous": false,
			"inputs": [
				{
					"indexed": true,
					"internalType": "address",
					"name": "sender",
					"type": "address"
				},
				{
					"indexed": true,
					"internalType": "uint256",
					"name": "epoch",
					"type": "uint256"
				},
				{
					"indexed": false,
					"internalType": "uint256",
					"name": "amount",
					"type": "uint256"
				}
			],
			"name": "BetBear",
			"type": "event"
		},
		{
			"anonymous": false,
			"inputs": [
				{
					"indexed": true,
					"internalType": "address",
					"name": "sender",
					"type": "address"
				},
				{
					"indexed": true,
					"internalType": "uint256",
					"name": "epoch",
					"type": "uint256"
				},
				{
					"indexed": false,
					"internalType": "uint256",
					"name": "amount",
					"type": "uint256"
				}
			],
			"name": "BetBull",
			"type": "event"
		},
		{
			"anonymous": false,
			"inputs": [
				{
					"indexed": true,
					"internalType": "address",
					"name": "sender",
					"type": "address"
				},
				{
					"indexed": true,
					"internalType": "uint256",
					"name": "epoch",
					"type": "uint256"
				},
				{
					"indexed": false,
					"internalType": "uint256",
					"name": "amount",
					"type": "uint256"
				}
			],
			"name": "Claim",
			"type": "event"
		},
		{
			"anonymous": false,
			"inputs": [
				{
					"indexed": true,
					"internalType": "uint256",
					"name": "epoch",
					"type": "uint256"
				},
				{
					"indexed": true,
					"internalType": "uint256",
					"name": "roundId",
					"type": "uint256"
				},
				{
					"indexed": false,
					"internalType": "int256",
					"name": "price",
					"type": "int256"
				}
			],
			"name": "EndRound",
			"type": "event"
		},
		{
			"anonymous": false,
			"inputs": [
				{
					"indexed": false,
					"internalType": "address",
					"name": "admin",
					"type": "address"
				}
			],
			"name": "NewAdminAddress",
			"type": "event"
		},
		{
			"anonymous": false,
			"inputs": [
				{
					"indexed": false,
					"internalType": "uint256",
					"name": "bufferSeconds",
					"type": "uint256"
				},
				{
					"indexed": false,
					"internalType": "uint256",
					"name": "intervalSeconds",
					"type": "uint256"
				}
			],
			"name": "NewBufferAndIntervalSeconds",
			"type": "event"
		},
		{
			"anonymous": false,
			"inputs": [
				{
					"indexed": true,
					"internalType": "uint256",
					"name": "epoch",
					"type": "uint256"
				},
				{
					"indexed": false,
					"internalType": "uint256",
					"name": "minBetAmount",
					"type": "uint256"
				}
			],
			"name": "NewMinBetAmount",
			"type": "event"
		},
		{
			"anonymous": false,
			"inputs": [
				{
					"indexed": false,
					"internalType": "address",
					"name": "operator",
					"type": "address"
				}
			],
			"name": "NewOperatorAddress",
			"type": "event"
		},
		{
			"anonymous": false,
			"inputs": [
				{
					"indexed": false,
					"internalType": "address",
					"name": "oracle",
					"type": "address"
				},
				{
					"indexed": false,
					"internalType": "address",
					"name": "token",
					"type": "address"
				}
			],
			"name": "NewOracle",
			"type": "event"
		},
		{
			"anonymous": false,
			"inputs": [
				{
					"indexed": false,
					"internalType": "uint256",
					"name": "oracleUpdateAllowance",
					"type": "uint256"
				}
			],
			"name": "NewOracleUpdateAllowance",
			"type": "event"
		},
		{
			"anonymous": false,
			"inputs": [
				{
					"indexed": true,
					"internalType": "address",
					"name": "previousOwner",
					"type": "address"
				},
				{
					"indexed": true,
					"internalType": "address",
					"name": "newOwner",
					"type": "address"
				}
			],
			"name": "OwnershipTransferred",
			"type": "event"
		},
		{
			"anonymous": false,
			"inputs": [
				{
					"indexed": true,
					"internalType": "uint256",
					"name": "epoch",
					"type": "uint256"
				}
			],
			"name": "Pause",
			"type": "event"
		},
		{
			"anonymous": false,
			"inputs": [
				{
					"indexed": false,
					"internalType": "address",
					"name": "account",
					"type": "address"
				}
			],
			"name": "Paused",
			"type": "event"
		},
		{
			"anonymous": false,
			"inputs": [
				{
					"indexed": true,
					"internalType": "uint256",
					"name": "epoch",
					"type": "uint256"
				}
			],
			"name": "StartRound",
			"type": "event"
		},
		{
			"anonymous": false,
			"inputs": [
				{
					"indexed": false,
					"internalType": "address",
					"name": "token",
					"type": "address"
				},
				{
					"indexed": false,
					"internalType": "address",
					"name": "oracle",
					"type": "address"
				}
			],
			"name": "TokenAdded",
			"type": "event"
		},
		{
			"anonymous": false,
			"inputs": [
				{
					"indexed": true,
					"internalType": "address",
					"name": "token",
					"type": "address"
				},
				{
					"indexed": false,
					"internalType": "uint256",
					"name": "amount",
					"type": "uint256"
				}
			],
			"name": "TokenRecovery",
			"type": "event"
		},
		{
			"anonymous": false,
			"inputs": [
				{
					"indexed": false,
					"internalType": "address",
					"name": "token",
					"type": "address"
				},
				{
					"indexed": false,
					"internalType": "address",
					"name": "oracle",
					"type": "address"
				}
			],
			"name": "TokenRemoved",
			"type": "event"
		},
		{
			"anonymous": false,
			"inputs": [
				{
					"indexed": false,
					"internalType": "uint256",
					"name": "amount",
					"type": "uint256"
				}
			],
			"name": "TreasuryClaim",
			"type": "event"
		},
		{
			"anonymous": false,
			"inputs": [
				{
					"indexed": true,
					"internalType": "uint256",
					"name": "epoch",
					"type": "uint256"
				}
			],
			"name": "Unpause",
			"type": "event"
		},
		{
			"anonymous": false,
			"inputs": [
				{
					"indexed": false,
					"internalType": "address",
					"name": "account",
					"type": "address"
				}
			],
			"name": "Unpaused",
			"type": "event"
		},
		{
			"inputs": [],
			"name": "BNB",
			"outputs": [
				{
					"internalType": "address",
					"name": "",
					"type": "address"
				}
			],
			"stateMutability": "view",
			"type": "function"
		},
		{
			"inputs": [],
			"name": "MAX_TREASURY_FEE",
			"outputs": [
				{
					"internalType": "uint256",
					"name": "",
					"type": "uint256"
				}
			],
			"stateMutability": "view",
			"type": "function"
		},
		{
			"inputs": [
				{
					"internalType": "address[]",
					"name": "_tokens",
					"type": "address[]"
				},
				{
					"internalType": "address[]",
					"name": "_oracles",
					"type": "address[]"
				}
			],
			"name": "addTokens",
			"outputs": [],
			"stateMutability": "nonpayable",
			"type": "function"
		},
		{
			"inputs": [],
			"name": "adminAddress",
			"outputs": [
				{
					"internalType": "address",
					"name": "",
					"type": "address"
				}
			],
			"stateMutability": "view",
			"type": "function"
		},
		{
			"inputs": [
				{
					"internalType": "uint256",
					"name": "epoch",
					"type": "uint256"
				},
				{
					"internalType": "address",
					"name": "token",
					"type": "address"
				}
			],
			"name": "betBear",
			"outputs": [],
			"stateMutability": "payable",
			"type": "function"
		},
		{
			"inputs": [
				{
					"internalType": "uint256",
					"name": "epoch",
					"type": "uint256"
				},
				{
					"internalType": "address",
					"name": "token",
					"type": "address"
				}
			],
			"name": "betBull",
			"outputs": [],
			"stateMutability": "payable",
			"type": "function"
		},
		{
			"inputs": [],
			"name": "bufferSeconds",
			"outputs": [
				{
					"internalType": "uint256",
					"name": "",
					"type": "uint256"
				}
			],
			"stateMutability": "view",
			"type": "function"
		},
		{
			"inputs": [
				{
					"internalType": "uint256[]",
					"name": "epochs",
					"type": "uint256[]"
				}
			],
			"name": "claim",
			"outputs": [],
			"stateMutability": "nonpayable",
			"type": "function"
		},
		{
			"inputs": [],
			"name": "claimTreasury",
			"outputs": [],
			"stateMutability": "nonpayable",
			"type": "function"
		},
		{
			"inputs": [],
			"name": "currentEpoch",
			"outputs": [
				{
					"internalType": "uint256",
					"name": "",
					"type": "uint256"
				}
			],
			"stateMutability": "view",
			"type": "function"
		},
		{
			"inputs": [],
			"name": "endRound",
			"outputs": [],
			"stateMutability": "nonpayable",
			"type": "function"
		},
		{
			"inputs": [
				{
					"internalType": "uint256",
					"name": "_round",
					"type": "uint256"
				}
			],
			"name": "getRound",
			"outputs": [
				{
					"internalType": "uint256",
					"name": "epoch",
					"type": "uint256"
				},
				{
					"internalType": "uint256",
					"name": "startTimestamp",
					"type": "uint256"
				},
				{
					"internalType": "uint256",
					"name": "endTimestamp",
					"type": "uint256"
				},
				{
					"internalType": "uint256",
					"name": "totalAmount",
					"type": "uint256"
				},
				{
					"internalType": "bool",
					"name": "oraclesCalled",
					"type": "bool"
				},
				{
					"internalType": "address[]",
					"name": "_tokens",
					"type": "address[]"
				},
				{
					"internalType": "int256[]",
					"name": "startPrices",
					"type": "int256[]"
				},
				{
					"internalType": "int256[]",
					"name": "endPrices",
					"type": "int256[]"
				},
				{
					"internalType": "uint256[]",
					"name": "startOracleIds",
					"type": "uint256[]"
				},
				{
					"internalType": "uint256[]",
					"name": "endOracleIds",
					"type": "uint256[]"
				}
			],
			"stateMutability": "view",
			"type": "function"
		},
		{
			"inputs": [],
			"name": "getTokens",
			"outputs": [
				{
					"internalType": "address[]",
					"name": "",
					"type": "address[]"
				}
			],
			"stateMutability": "view",
			"type": "function"
		},
		{
			"inputs": [
				{
					"internalType": "address",
					"name": "user",
					"type": "address"
				},
				{
					"internalType": "uint256",
					"name": "cursor",
					"type": "uint256"
				},
				{
					"internalType": "uint256",
					"name": "size",
					"type": "uint256"
				}
			],
			"name": "getUserRounds",
			"outputs": [
				{
					"internalType": "uint256[]",
					"name": "",
					"type": "uint256[]"
				},
				{
					"components": [
						{
							"internalType": "enum Prediction.Position",
							"name": "position",
							"type": "uint8"
						},
						{
							"internalType": "address",
							"name": "token",
							"type": "address"
						},
						{
							"internalType": "uint256",
							"name": "amount",
							"type": "uint256"
						},
						{
							"internalType": "bool",
							"name": "claimed",
							"type": "bool"
						}
					],
					"internalType": "struct Prediction.BetInfo[]",
					"name": "",
					"type": "tuple[]"
				},
				{
					"internalType": "uint256",
					"name": "",
					"type": "uint256"
				}
			],
			"stateMutability": "view",
			"type": "function"
		},
		{
			"inputs": [
				{
					"internalType": "address",
					"name": "user",
					"type": "address"
				}
			],
			"name": "getUserRoundsLength",
			"outputs": [
				{
					"internalType": "uint256",
					"name": "",
					"type": "uint256"
				}
			],
			"stateMutability": "view",
			"type": "function"
		},
		{
			"inputs": [],
			"name": "intervalSeconds",
			"outputs": [
				{
					"internalType": "uint256",
					"name": "",
					"type": "uint256"
				}
			],
			"stateMutability": "view",
			"type": "function"
		},
		{
			"inputs": [
				{
					"internalType": "uint256",
					"name": "",
					"type": "uint256"
				},
				{
					"internalType": "address",
					"name": "",
					"type": "address"
				}
			],
			"name": "ledger",
			"outputs": [
				{
					"internalType": "enum Prediction.Position",
					"name": "position",
					"type": "uint8"
				},
				{
					"internalType": "address",
					"name": "token",
					"type": "address"
				},
				{
					"internalType": "uint256",
					"name": "amount",
					"type": "uint256"
				},
				{
					"internalType": "bool",
					"name": "claimed",
					"type": "bool"
				}
			],
			"stateMutability": "view",
			"type": "function"
		},
		{
			"inputs": [],
			"name": "minBetAmount",
			"outputs": [
				{
					"internalType": "uint256",
					"name": "",
					"type": "uint256"
				}
			],
			"stateMutability": "view",
			"type": "function"
		},
		{
			"inputs": [],
			"name": "operatorAddress",
			"outputs": [
				{
					"internalType": "address",
					"name": "",
					"type": "address"
				}
			],
			"stateMutability": "view",
			"type": "function"
		},
		{
			"inputs": [],
			"name": "oracleLatestRoundId",
			"outputs": [
				{
					"internalType": "uint256",
					"name": "",
					"type": "uint256"
				}
			],
			"stateMutability": "view",
			"type": "function"
		},
		{
			"inputs": [],
			"name": "oracleUpdateAllowance",
			"outputs": [
				{
					"internalType": "uint256",
					"name": "",
					"type": "uint256"
				}
			],
			"stateMutability": "view",
			"type": "function"
		},
		{
			"inputs": [
				{
					"internalType": "address",
					"name": "",
					"type": "address"
				}
			],
			"name": "oracles",
			"outputs": [
				{
					"internalType": "contract AggregatorV3Interface",
					"name": "",
					"type": "address"
				}
			],
			"stateMutability": "view",
			"type": "function"
		},
		{
			"inputs": [],
			"name": "owner",
			"outputs": [
				{
					"internalType": "address",
					"name": "",
					"type": "address"
				}
			],
			"stateMutability": "view",
			"type": "function"
		},
		{
			"inputs": [],
			"name": "pause",
			"outputs": [],
			"stateMutability": "nonpayable",
			"type": "function"
		},
		{
			"inputs": [],
			"name": "paused",
			"outputs": [
				{
					"internalType": "bool",
					"name": "",
					"type": "bool"
				}
			],
			"stateMutability": "view",
			"type": "function"
		},
		{
			"inputs": [],
			"name": "pred",
			"outputs": [
				{
					"internalType": "contract IERC20",
					"name": "",
					"type": "address"
				}
			],
			"stateMutability": "view",
			"type": "function"
		},
		{
			"inputs": [
				{
					"internalType": "address",
					"name": "_token",
					"type": "address"
				},
				{
					"internalType": "uint256",
					"name": "_amount",
					"type": "uint256"
				}
			],
			"name": "recoverToken",
			"outputs": [],
			"stateMutability": "nonpayable",
			"type": "function"
		},
		{
			"inputs": [
				{
					"internalType": "uint256",
					"name": "epoch",
					"type": "uint256"
				},
				{
					"internalType": "address",
					"name": "user",
					"type": "address"
				}
			],
			"name": "refundable",
			"outputs": [
				{
					"internalType": "bool",
					"name": "",
					"type": "bool"
				}
			],
			"stateMutability": "view",
			"type": "function"
		},
		{
			"inputs": [
				{
					"internalType": "uint256[]",
					"name": "_ids",
					"type": "uint256[]"
				}
			],
			"name": "removeTokens",
			"outputs": [],
			"stateMutability": "nonpayable",
			"type": "function"
		},
		{
			"inputs": [],
			"name": "renounceOwnership",
			"outputs": [],
			"stateMutability": "nonpayable",
			"type": "function"
		},
		{
			"inputs": [
				{
					"internalType": "uint256",
					"name": "",
					"type": "uint256"
				}
			],
			"name": "rounds",
			"outputs": [
				{
					"internalType": "uint256",
					"name": "epoch",
					"type": "uint256"
				},
				{
					"internalType": "uint256",
					"name": "startTimestamp",
					"type": "uint256"
				},
				{
					"internalType": "uint256",
					"name": "endTimestamp",
					"type": "uint256"
				},
				{
					"internalType": "uint256",
					"name": "totalAmount",
					"type": "uint256"
				},
				{
					"internalType": "bool",
					"name": "oraclesCalled",
					"type": "bool"
				}
			],
			"stateMutability": "view",
			"type": "function"
		},
		{
			"inputs": [
				{
					"internalType": "address",
					"name": "_adminAddress",
					"type": "address"
				}
			],
			"name": "setAdmin",
			"outputs": [],
			"stateMutability": "nonpayable",
			"type": "function"
		},
		{
			"inputs": [
				{
					"internalType": "uint256",
					"name": "_bufferSeconds",
					"type": "uint256"
				},
				{
					"internalType": "uint256",
					"name": "_intervalSeconds",
					"type": "uint256"
				}
			],
			"name": "setBufferAndIntervalSeconds",
			"outputs": [],
			"stateMutability": "nonpayable",
			"type": "function"
		},
		{
			"inputs": [
				{
					"internalType": "uint256",
					"name": "_minBetAmount",
					"type": "uint256"
				}
			],
			"name": "setMinBetAmount",
			"outputs": [],
			"stateMutability": "nonpayable",
			"type": "function"
		},
		{
			"inputs": [
				{
					"internalType": "address",
					"name": "_operatorAddress",
					"type": "address"
				}
			],
			"name": "setOperator",
			"outputs": [],
			"stateMutability": "nonpayable",
			"type": "function"
		},
		{
			"inputs": [
				{
					"internalType": "uint256",
					"name": "_oracleUpdateAllowance",
					"type": "uint256"
				}
			],
			"name": "setOracleUpdateAllowance",
			"outputs": [],
			"stateMutability": "nonpayable",
			"type": "function"
		},
		{
			"inputs": [
				{
					"internalType": "address[]",
					"name": "_tokens",
					"type": "address[]"
				},
				{
					"internalType": "address[]",
					"name": "_oracles",
					"type": "address[]"
				}
			],
			"name": "setOracles",
			"outputs": [],
			"stateMutability": "nonpayable",
			"type": "function"
		},
		{
			"inputs": [],
			"name": "startRound",
			"outputs": [],
			"stateMutability": "nonpayable",
			"type": "function"
		},
		{
			"inputs": [
				{
					"internalType": "uint256",
					"name": "",
					"type": "uint256"
				}
			],
			"name": "tokens",
			"outputs": [
				{
					"internalType": "address",
					"name": "",
					"type": "address"
				}
			],
			"stateMutability": "view",
			"type": "function"
		},
		{
			"inputs": [
				{
					"internalType": "address",
					"name": "newOwner",
					"type": "address"
				}
			],
			"name": "transferOwnership",
			"outputs": [],
			"stateMutability": "nonpayable",
			"type": "function"
		},
		{
			"inputs": [],
			"name": "treasuryAmount",
			"outputs": [
				{
					"internalType": "uint256",
					"name": "",
					"type": "uint256"
				}
			],
			"stateMutability": "view",
			"type": "function"
		},
		{
			"inputs": [],
			"name": "unpause",
			"outputs": [],
			"stateMutability": "nonpayable",
			"type": "function"
		},
		{
			"inputs": [
				{
					"internalType": "address",
					"name": "",
					"type": "address"
				},
				{
					"internalType": "uint256",
					"name": "",
					"type": "uint256"
				}
			],
			"name": "userRounds",
			"outputs": [
				{
					"internalType": "uint256",
					"name": "",
					"type": "uint256"
				}
			],
			"stateMutability": "view",
			"type": "function"
		}
	]
}